:020000040800F2
:10000000103500202102000899190008291800085D
:100010002D1800087D060008611E00080000000081
:10002000000000000000000000000000890100083E
:10003000BB06000800000000CD010008E31900081D
:100040003B0200083B0200083B0200083B0200089C
:100050003B0200083B0200083B0200083B0200088C
:100060003B0200083B0200083B0200083B0200087C
:100070003B0200083B0200083B0200083B0200086C
:100080003B0200083B0200083B0200083B0200085C
:100090003B0200083B0200083B0200083B0200084C
:1000A0003B0200083B0200083B0200083B0200083C
:1000B0003B0200083B0200083B0200083B0200082C
:1000C0003B0200083B0200083B0200083B0200081C
:1000D0003B020008591E00083B0200083B020008D2
:1000E0003B0200083B0200083B02000800F002F857
:1000F00000F03AF80AA090E8000C82448344AAF188
:100100000107DA4501D100F02FF8AFF2090EBAE885
:100110000F0013F0010F18BFFB1A43F0010318473B
:10012000803B0000A03B0000103A24BF78C878C193
:10013000FAD8520724BF30C830C144BF04680C60ED
:10014000704700000023002400250026103A28BF35
:1001500078C1FBD8520728BF30C148BF0B60704739
:100160001FB51FBD10B510BD00F01BF91146FFF7FC
:10017000F7FF01F09BFE00F039F903B4FFF7F2FF3F
:1001800003BC00F03DF90000224B19680868B0E894
:10019000F00F80F30988BFF36F8F4FF0000080F3FA
:1001A00011884EF00D0E70470000000006480068F0
:1001B000006880F3088862B661B6BFF34F8FBFF363
:1001C0006F8F00DF00BF00BF08ED00E0EFF3098094
:1001D000BFF36F8F0F4B1A6820E9F00F106008B55E
:1001E0004FF0500080F31188BFF34F8FBFF36F8F34
:1001F00002F08EFD4FF0000080F31188BDE808404A
:1002000019680868B0E8F00F80F30988BFF36F8FB2
:10021000704700BF18000020EFF305807047000012
:100220000948804709480047FEE7FEE7FEE7FEE78A
:10023000FEE7FEE7FEE7FEE7FEE7FEE704480549C6
:10024000054A064B704700005D1A0008ED000008E3
:10025000102D00201035002010310020103100201A
:10026000032A40F2308010F0030C00F0158011F8E2
:10027000013BBCF1020F624498BF11F801CB00F8BA
:10028000013B38BF11F8013BA2F1040298BF00F80E
:1002900001CB38BF00F8013B11F0030300F02580CB
:1002A000083AC0F0088051F8043B083A51F804CBF2
:1002B000A0E80810F5E7121D5CBF51F8043B40F8B8
:1002C000043BAFF30080D20724BF11F8013B11F8C3
:1002D00001CB48BF11F8012B24BF00F8013B00F807
:1002E00001CB48BF00F8012B704710B5203AC0F091
:1002F0000B80B1E81850203AA0E81850B1E8185027
:10030000A0E81850BFF4F5AF5FEA027C24BFB1E863
:100310001850A0E8185044BF18C918C0BDE81040D4
:100320005FEA827C24BF51F8043B40F8043B08BFDD
:100330007047D20728BF31F8023B48BF11F8012BA4
:1003400028BF20F8023B48BF00F8012B70474FF050
:10035000000200B5134694469646203922BFA0E815
:100360000C50A0E80C50B1F12001BFF4F7AF090721
:1003700028BFA0E80C5048BF0CC05DF804EB890012
:1003800028BF40F8042B08BF704748BF20F8022B55
:1003900011F0804F18BF00F8012B7047704770476D
:1003A0007047754600F028F8AE460500694653468A
:1003B00020F00700854618B020B5FFF73FFFBDE8E5
:1003C00020404FF000064FF000074FF000084FF0BC
:1003D000000B21F00701AC46ACE8C009ACE8C0094D
:1003E000ACE8C009ACE8C0098D4670470446AFF3DD
:1003F00000802046FFF7C1FE00487047AC2C00206B
:1004000001491820ABBEFEE726000200704700003D
:1004100000B585B00020019002900390049000BFC9
:100420001048806940F010000E49886108468069D4
:1004300000F01000009000BF00BF4FF4005001908A
:1004400001200290002003900220049001A9064898
:1004500000F0BAF901225103034800F04FFB05B048
:1004600000BD0000001002400010014010B54FF424
:100470000051024800F038FB10BD000000100140A0
:1004800008B50F4800680068C0F3001098B100BFBD
:10049000002000900A480068006800900848006842
:1004A0004068009000BF00BF06480088002802DDB9
:1004B000012005490870024800F06AFF08BD0000ED
:1004C000E42B0020840000208600002000B585B0C9
:1004D00000BF3248806940F4804030498861084656
:1004E000806900F48040009000BF00BF00BF084654
:1004F000806940F0040088610846806900F00400CB
:10050000009000BF00BF0020019002900390049073
:1005100048150190022002900020039003200490CF
:1005200001A91F4800F050F94FF4806001900020AD
:100530000290012003900320049001A9184800F0C4
:1005400043F91848184908604FF4E1304860002129
:1005500015488160C16001610C2141610021816108
:10056000C16101F087F808B100F0A8F80022052168
:10057000252000F049FB252000F036FB0A480068E2
:10058000C06840F0100008490968C86001220749A6
:10059000054801F0ABF805B000BD000000100240B6
:1005A0000008014000380140E42B00202C2C0020E2
:1005B00001480078704700008600002070B50646AC
:1005C0000C460F48007808B9002070BD0D4800881F
:1005D000A04202DA0B48008800E0204605462A4681
:1005E00009493046FFF73CFE0020064908800449CF
:1005F000087001220449054801F078F82846E4E72C
:1006000086000020840000202C2C0020E42B0020F9
:100610002DE9FC4105460E46144601F077FA1548CF
:10062000006870B9002000900190684601F084FCD9
:10063000104908600846006810B90020BDE8FC8138
:1006400000BF002721460B48006801F0ABFC70B9E1
:10065000234632462946084801F086F808B90120A9
:1006600000E0002007460348006801F073FC3846AC
:10067000E4E7000088000020E42B002000BFFEE734
:1006800030B502460B464FF6FF70002112E0545C75
:10069000604000240AE000F0010525B140104AF254
:1006A0000105684000E04010651CECB2082CF2DB4C
:1006B0004C1CA1B29942EADB30BD704772B600BF54
:1006C000FEE70146002291F82100022808D004200C
:1006D000886300BF002081F8200000BF0120704720
:1006E0000868006820F00E000B6818600868006851
:1006F00020F001000B68186091F84030012098400C
:10070000CB6B5860012081F8210000BF002081F8E8
:10071000200000BF1046E2E770B50446002594F8BB
:100720002100022803D00420A063012548E02068AE
:10073000006820F00E00216808602068006820F042
:100740000100216808601F492068884201D101200A
:1007500026E01C4914312068884201D110201FE096
:10076000184928312068884201D1801518E01549C0
:100770003C312068884201D1801411E01149503188
:100780002068884202D14FF4803009E00D4964317D
:100790002068884202D14FF4801001E04FF0807051
:1007A000084908394860012084F8210000BF002072
:1007B00084F8200000BF606B10B12046616B884751
:1007C000284670BD080002402DE9F8470346002284
:1007D00094466EE14FF0010808FA02F4D1F8008067
:1007E00008EA0400A0427DD1DFF8DCA2D1F8048041
:1007F000A8EB0A09D0453AD014DCB8F1030F50D069
:1008000009DCB8F1000F31D0B8F1010F1CD0B8F1FC
:10081000020F49D120E0B8F1110F18D0B8F1120F32
:1008200042D11EE0B9F5881F25D006DCB9F5803F1E
:1008300020D0B9F5801F37D11AE0B9F5001F18D0C4
:10084000B9F5041F30D117E0D1F80CC02DE0D1F874
:100850000C8008F1040C28E0D1F80C8008F1080C99
:1008600023E0D1F80C8008F10C0C1EE000BF00BFA3
:1008700000BF00BF00BF00BFD1F80880B8F1000F73
:1008800002D14FF0040C0BE0D1F80880B8F1010F51
:1008900003D14FF0080C1C6102E04FF0080C5C61C2
:1008A00003E04FF0000C00E000BF00BFFF2801D8BC
:1008B000984601E003F104084646FF2802D84FEAB3
:1008C000820803E0A2F108084FEA88084746D6F8F4
:1008D00000804FF00F0909FA07F928EA09080CFA15
:1008E00007F900E088E048EA0908C6F80080D1F876
:1008F000048008F08058B8F1805F7DD100BFDFF838
:10090000CC81D8F8188048F00108DFF8C091C9F808
:100910001880C846D8F8188008F00108CDF8008083
:1009200000BF00BF4FEAB9384FEA920958F8295082
:100930004FEA82784FEA18794FF00F0808FA09F861
:1009400025EA0805DFF88881434502D14FF0000809
:1009500016E0DFF88081434502D14FF001080FE037
:10096000DFF87481434502D14FF0020808E0DFF858
:100970006C81434502D14FF0030801E04FF00408B9
:100980004FEA82794FEA197908FA09F848EA050529
:10099000DFF84C814FEA920948F82950D1F80480D9
:1009A00008F48018B8F5801F0AD1DFF83881D8F82C
:1009B000008048EA0008DFF82C91C9F8008009E0BF
:1009C000DFF82081D8F8008028EA0008DFF81491C9
:1009D000C9F80080D1F8048008F40018B8F5001FA9
:1009E00010D1DFF8008108F10408D8F8008048EA47
:1009F0000008DFF8F09000E05AE009F10409C9F8B6
:100A000000800DE0DFF8DC8008F10408D8F80080F1
:100A100028EA0008DFF8CC9009F10409C9F8008041
:100A2000D1F8048008F40038B8F5003F0ED1DFF8A3
:100A3000B480A8F10408D8F8008048EA0008DFF87C
:100A4000A490A9F10409C9F800800DE0DFF89480B2
:100A5000A8F10408D8F8008028EA0008DFF884909C
:100A6000A9F10409C9F80080D1F8048008F480389D
:100A7000B8F5803F0ED1DFF86C80A8F10808D8F8EF
:100A8000008048EA0008DFF85C90A9F10809C9F87D
:100A900000800DE0DFF84C80A8F10808D8F800804D
:100AA00028EA0008DFF83C90A9F10809C9F800809D
:100AB000521CD1F8008028FA02F8B8F1000F7FF438
:100AC00089AEBDE8F8870000000011100010024058
:100AD00000080140000C01400010014000140140DA
:100AE000080001400804014010B5C26821EA020371
:100AF00002EA010443EA0443036110BD0AB1016143
:100B000001E00B0403617047014800687047000072
:100B10000800002003480068034909780844014997
:100B200008607047080000201000002010B5084839
:100B3000006840F0100006490860032000F0A2F8A9
:100B40000F2000F007F800F02BF8002010BD000087
:100B50000020024070B504460E4800784FF47A71C8
:100B6000B1FBF0F00C490968B1FBF0F5284600F044
:100B7000F3FB08B1012070BD102C07D200222146E2
:100B8000501E00F041F80548046001E00120F2E742
:100B90000020F0E710000020140000200C000020CE
:100BA00008B500BF0F48806940F001000D49886119
:100BB0000846806900F00100009000BF00BF00BF40
:100BC0000846C06940F08050C8610846C06900F01E
:100BD0008050009000BF00BF00220F21901E00F047
:100BE00013F808BD0010024001460846002809DB42
:100BF00000F01F0301229A4043099B0003F1E02308
:100C0000C3F8002100BF70472DE9F05F80460D4614
:100C10001646002701F026F9074639462A4633468C
:100C200001F00700C0F1070ABAF1040F02D94FF032
:100C3000040A01E0C0F1070AD14600F1040ABAF142
:100C4000070F02D24FF0000A01E0A0F1030AD446D8
:100C50004FF0010A0AFA09FAAAF1010A0AEA020A9D
:100C60000AFA0CFA4FF0010B0BFA0CFBABF1010B7B
:100C70000BEA030B4AEA0B042146404601F0FAF85E
:100C8000BDE8F09F00BF00F00702064B19684FF661
:100C9000FF031940044B0B4343EA0221014B196047
:100CA00000BF70470CED00E00000FA0570B5044687
:100CB0000D460CB9012070BD5A48006800F00700CD
:100CC000A8420ED25748006820F007002843554933
:100CD00008600846006800F00700A84201D0012023
:100CE000E9E7207800F0020002281DD1207800F00A
:100CF0000400042805D14C48406840F4E0604A49AB
:100D00004860207800F00800082805D1464840686F
:100D100040F46050444948604348406820F0F00087
:100D2000A168084340494860207800F0010078B38A
:100D30006068012806D13C48006800F4003090B992
:100D40000120B8E76068022806D13748006800F043
:100D5000007040B90120AEE73348006800F002009F
:100D600008B90120A7E73048406820F00300616817
:100D700008432D494860FFF7C7FE064609E0FFF724
:100D8000C3FE801B41F28831884202D9032092E7DA
:100D900007E02548406800F00C006168B0EB810F67
:100DA000EDD12048006800F00700A8420ED91D4888
:100DB000006820F0070028431A49086008460068C8
:100DC00000F00700A84201D0012074E7207800F06D
:100DD0000400042807D11448406820F4E060E1686A
:100DE000084311494860207800F00800082808D11D
:100DF0000D48406820F46050216940EAC1000A496A
:100E0000486000F03FF808494968C1F30311074AF8
:100E1000515CC8400649086006480068FFF79AFE22
:100E2000002048E700200240001002406E3C00080D
:100E3000140000200C0000200148006870470000EA
:100E40001400002000B5FFF7F7FF04494968C1F31B
:100E50000221034A515CC84000BD0000001002405E
:100E60007E3C000800B5FFF7E7FF04494968C1F37D
:100E7000C221034A515CC84000BD0000001002407E
:100E80007E3C000870B500210022002400230020D1
:100E9000134D696801F00C05F5B1042D02D0082D41
:100EA00019D101E00F4819E00F4DC1F38346AB5D46
:100EB00001F4803555B10A4D6D68C5F340450B4EC0
:100EC000725D084D5D43B5FBF2F402E0084D03FB93
:100ED00005F4204602E000BF024800BF00BF70BD1D
:100EE0000010024000127A005C3C00086C3C0008D4
:100EF00000093D00F8B504460CB90120F8BD207882
:100F000000F00100002878D0F848406800F00C009C
:100F100004280CD0F548406800F00C00082811D1D6
:100F2000F248406800F48030B0F5803F0AD1EF48C5
:100F3000006800F4003000285FD0606800285CD1B1
:100F40000120DBE700BF6068B0F5803F06D1E748CD
:100F5000006840F48030E549086028E0606858B9CE
:100F6000E248006820F48030E049086008460068E4
:100F700020F4802008601AE06068B0F5A02F0BD143
:100F8000DA48006840F48020D849086008460068C4
:100F900040F4803008600AE0D448006820F48030D3
:100FA000D24908600846006820F48020086000BF2D
:100FB000606888B1FFF7A8FD054606E0FFF7A4FDCD
:100FC000401B642801D9032098E7C848006800F452
:100FD00000300028F2D010E0FFF796FD054606E04D
:100FE000FFF792FD401B642801D9032086E7BF4824
:100FF000006800F400300028F2D1207800F00200F0
:10100000022857D1B948406800F00C0050B1B748E9
:10101000406800F00C00082818D1B448406800F47B
:10102000803098B9B148006800F0020020B1206912
:10103000012801D0012061E7AC48006820F0F800E9
:10104000616940EAC100A949086033E02069E8B15C
:101050000120A7490860FFF757FD054606E0FFF7A6
:1010600053FD401B022801D9032047E79F48006831
:1010700000F002000028F2D09C48006820F0F80040
:10108000616940EAC1009949086013E0002098496D
:101090000860FFF739FD054606E0FFF735FD401B08
:1010A000022801D9032029E79048006800F00200D7
:1010B0000028F2D1207800F0080008282DD1A0697E
:1010C000B8B101208B490860FFF71EFD054606E018
:1010D000FFF71AFD401B022801D903200EE78348C1
:1010E000406A00F002000028F2D0012000F056FC17
:1010F00013E000207F490860FFF706FD054606E083
:10110000FFF702FD401B022801D90320F6E67748CD
:10111000406A00F002000028F2D1207800F00400BC
:10112000042873D100277148C06900F0805070B95D
:1011300000BF6E48C06940F080506C49C8610846E5
:10114000C06900F08050009000BF00BF01276A48CE
:10115000006800F48070B0B96748006840F480709F
:1011600065490860FFF7D0FC054606E0FFF7CCFCB8
:10117000401B642801D90320C0E65F48006800F4E2
:1011800080700028F2D000BFE068012806D15748DF
:10119000006A40F001005549086227E0E06858B94C
:1011A0005248006A20F00100504908620846006A6F
:1011B00020F00400086219E0E06805280BD14B48D4
:1011C000006A40F00400494908620846006A40F09D
:1011D000010008620AE04548006A20F00100434926
:1011E00008620846006A20F00400086200BFE06858
:1011F000A0B1FFF789FC054609E0FFF785FC401B1D
:1012000041F28831884202D9032077E622E037484C
:10121000006A00F002000028EFD012E0FFF774FC33
:10122000054608E0FFF770FC401B41F28831884218
:1012300001D9032062E62D48006A00F00200002870
:10124000F0D1012F05D12948C06920F080502749ED
:10125000C86100BFE069C8B32448406800F00C00D2
:10126000082860D0E069022848D10020204908669B
:10127000FFF74AFC054606E0FFF746FC401B022844
:1012800001D903203AE61948006800F000700028F0
:10129000F2D1206AB0F5803F07D11448406820F4AD
:1012A0000030A168084311494860D4E908010843A7
:1012B0000E49496821F4741108430C494860012023
:1012C0000B490866FFF720FC054607E03DE0FFF705
:1012D0001BFC401B022801D903200FE603480068CD
:1012E00000F000700028F2D02FE000000010024053
:1012F0000000424280044242007000400020144935
:101300000866FFF701FC054606E0FFF7FDFB401B02
:10131000022801D90320F1E50E48006800F00070B2
:101320000028F2D111E0E069012800D1E6E5094882
:10133000466806F48031206A814204D106F47011B7
:10134000606A814201D00120D8E50020D6E5000086
:10135000000042420010024070B504462546681E57
:10136000B0F1807F01D301200FE0681E4FF0E02133
:1013700048610F214FF0FF3000F07CFD00204FF05E
:10138000E021886107200861002070BD7047704728
:101390002DE9F84F0446206805682068C668206873
:1013A00047694FF00009CA4605F00F09B9F1000F6F
:1013B0000AD105F0200038B106F0200020B1204607
:1013C00000F0B8FBBDE8F88FB9F1000F7BD007F053
:1013D000010018B906F49070002874D005F00100DF
:1013E00030B106F4807018B1606C40F001006064A8
:1013F00005F0040030B107F0010018B1606C40F056
:101400000200606405F0020030B107F0010018B17D
:10141000606C40F00400606405F0080048B106F01C
:10142000200010B907F0010018B1606C40F008000E
:101430006064606C002845D005F0200028B106F0FB
:10144000200010B1204600F075FB20684069C0F311
:10145000801A606C00F0080010B9BAF1000F2CD0AF
:10146000204600F00DFB2068406900F0400000B30A
:1014700000BF00BF2168143151E8001F21F0400077
:101480002168143141E80002002AF3D100BFE06B6B
:1014900050B17748E16B4863E06BFFF73DF988B1E5
:1014A000E06B416B88470DE02046FFF770FF09E0D5
:1014B00009E02046FFF76BFF04E02046FFF767FFD7
:1014C000002060647EE7206B012877D105F01000D2
:1014D000002873D006F010000028FAD000BF0020CA
:1014E000009020680068009020684068009000BF6D
:1014F00000BF2068406900F0400000285FD0E06B2A
:10150000006840681FFA80F8B8F1000F55D0A08D30
:10151000404552DDA4F82E80E06B8069202843D03E
:1015200000BF00BF21680C3151E8001F21F480701A
:1015300021680C3141E80002002AF3D100BF00BF4E
:1015400000BF2168143151E8001F21F0010021681B
:10155000143141E80002002AF3D100BF00BF00BFF0
:101560002168143151E8001F21F040002168143136
:1015700041E80002002AF3D100BF202084F8420095
:101580000020206300BF00BF21680C3151E8001F1C
:1015900021F0100021680C3141E80002002AF3D14B
:1015A00000BFE06BFFF78DF802206063A08DE28D35
:1015B000801A81B22046FFF7E9FE03E742E0A08DE2
:1015C000E18D401A1FFA80F8E08DD0B3B8F1000F1A
:1015D00037D000BF00BF21680C3151E8001F21F453
:1015E000907021680C3141E80002002AF3D100BF5D
:1015F00000BF00BF2168143151E8001F21F0010035
:101600002168143141E80002002AF3D100BF2020F4
:1016100084F842000020206300BF00BF21680C3125
:1016200051E8001F21F0100021680C3141E8000250
:10163000002AF3D100BF0220606341462046FFF735
:10164000A5FEBFE605F0800030B106F0800018B1BD
:10165000204600F08BFBB5E605F0400030B106F007
:10166000400018B1204600F041FAABE600BFA9E601
:101670006D1A000810B504460CB9012010BDA06910
:1016800000B100E000BF94F8410028B9002084F8C0
:101690004000204600F029F8242084F8410020680A
:1016A000C06820F400502168C860204600F0C0FAED
:1016B0002068006920F49040216808612068406932
:1016C00020F02A00216848612068C06840F400507A
:1016D0002168C86000206064202084F8410084F8FC
:1016E00042000020606300BFC8E7704770B5044641
:1016F0000D46164694F8420020280BD105B10EB9CC
:10170000012070BD0020206332462946204600F0AB
:101710000DFBF6E70220F4E710B504460E492068F9
:10172000884218D10D480088802814DA0B480088B8
:10173000401C0A49088008460088802808DA0848C2
:101740000A461288811801222046FFF7CFFF02E0E7
:1017500001200449087010BD0038014084000020B9
:101760002C2C0020860000202DE9F84F04460E4660
:10177000174699464FF0000A94F84100202850D1AE
:1017800006B117B90120BDE8F88F00206064212060
:1017900084F84100FFF7B8F98246A784E784A0687F
:1017A000B0F5805F04D1206910B90025B04602E091
:1017B00035464FF000081EE05346002280212046A7
:1017C000CDF8009000F002FB20B1202084F8410009
:1017D0000320D8E745B9B8F80000C0F30800216835
:1017E000486008F1020803E02878216848606D1C11
:1017F000E08C401EE084E08C0028DDD153460022BE
:1018000040212046CDF8009000F0E0FA20B12020E1
:1018100084F841000320B6E7202084F8410000202E
:10182000B1E70220AFE7704700BFFEE700BFFEE769
:1018300041F234200749088045F2786048804AF632
:10184000CD30888041F23420C88041F28830088150
:1018500070470000D02B00202DE9F04FE3B0FEF7D9
:10186000A7FE00287ED0802143A8FEF7A7FE0646EB
:10187000042E02DA63B0BDE8F08F9DF80C01012858
:1018800000D0F7E79DF80D71B01E43A9095C701EEA
:1018900043AA105C41EA00214291B01E81B243A8E4
:1018A000FEF7EEFE80464299414500D0E2E7032F65
:1018B0006CD19DF80F019DF80E1140EA01299DF8A9
:1018C00011019DF8101140EA01242CB17D2C03DC9C
:1018D00009EB04000A281CDD01208DF8000047F008
:1018E00080008DF8010002208DF802000321684677
:1018F000FEF7C6FE83460BF0FF008DF803004FEAAB
:101900001B208DF80400642205216846FEF780FE46
:10191000B0E701208DF8080003208DF8090060066B
:10192000000E8DF80A00002014E009EB0001194AAE
:1019300032F81110090A032202EB400202AB99545B
:1019400009EB0001134A12F81110042202EB4002C5
:101950009954401CA042E8DB032000EB440085B210
:10196000294600E013E002A8FEF78AFE824602A99B
:1019700001F805A04FEA1A2102AA681C1154A81CFC
:1019800081B2642202A8FEF743FE00BF00BF00BF81
:1019900070E70000D02B002000BFFEE708B5084923
:1019A0000968C9084FF47A72B1FBF2F14143009122
:1019B00000BF00BF00994A1E00920029F9D108BD5E
:1019C0001400002000BFFEF751FD4FF4FA7000F044
:1019D000A2FAF8E704E0FFF73FFF012000F09BFACE
:1019E000F9E710B5FFF796F801F0DAFE012801D00B
:1019F00001F050FA10BD00B58FB0282105A8FEF700
:101A0000A6FC14216846FEF7A2FC01200590000404
:101A10000690002007900120099002200C90C1033D
:101A20000D914FF4E0110E9105A8FFF763FA08B18C
:101A3000FEF744FE0F20009002200190002002904B
:101A40004FF4806003900020049002216846FFF765
:101A50002DF908B1FEF732FE0FB000BD704700004F
:101A600001200149087070478000002070B50546CC
:101A70006C6A0020E085E0842046FFF788FC70BD9A
:101A800000BF00BF02680C3252E8002F22F49071B0
:101A900002680C3242E80013002BF3D100BF00BFF4
:101AA00000BF0268143252E8002F22F001010268E0
:101AB000143242E80013002BF3D100BF016B01295F
:101AC0000ED100BF00BF02680C3252E8002F22F096
:101AD000100102680C3242E80013002BF3D100BF62
:101AE000202180F8421000210163704710B50446A0
:101AF0002068C06820F040002168C860202084F879
:101B000041002046FFF78FFE002010BD1CB508489D
:101B1000006860B901F044FE022808D1002000905E
:101B20000190684600F008FA0149086000BF1CBD3A
:101B300088000020F8B5044694F84200222875D1A8
:101B4000A068B0F5805F0CD1206950B90025A66A65
:101B500020684068C0F308003080A06A801CA06242
:101B600015E0A56A0026A068B0F5805F03D0A068E4
:101B700028B9206918B920684068287004E02068F6
:101B8000406800F07F002870A06A401CA062E08DD1
:101B9000401E80B2E085002846D12068C06820F051
:101BA00020002168C8602068C06820F48070216827
:101BB000C8602068406920F0010021684861202049
:101BC00084F8420000206063206B012826D10020A9
:101BD000206300BF00BF21680C3151E8001F21F0D5
:101BE000100021680C3141E80002002AF3D100BF47
:101BF0002068006800F0100010280AD100BF002003
:101C0000009020680068009020684068009000BF45
:101C100000BFA18D2046FFF7B9FB02E02046FFF789
:101C20007BFD0020F8BD01E00020FBE70220F9E782
:101C300070B504462168096921F44051E2681143F6
:101C4000226811612269A1681143626941EA0205B3
:101C50002168C96841F20C62914329432268D1602E
:101C60002168496921F44071A269114322685161D8
:101C70002D4A2168914202D1FFF7F4F801E0FFF705
:101C8000E1F800EBC00101EB001162689200B1FBCA
:101C9000F2F100EBC00202EB001263689B00B2FBA2
:101CA000F3F26423B2FBF3F202EBC20303EB021282
:101CB000A1EB8201322202EB01116422B1FBF2F1AD
:101CC00001F0F00100EBC00202EB001263689B0020
:101CD000B2FBF3F26423B2FBF3F201EB021200EB6E
:101CE000C00101EB001163689B00B1FBF3F100EB55
:101CF000C00303EB00136668B600B3FBF6F364267B
:101D0000B3FBF6F303EBC30606EB0313A1EB83016E
:101D1000322303EB01116423B1FBF3F101F00F0156
:101D200011442268916070BD0038014010B503462F
:101D300099629A85DA8500205864222083F842004F
:101D4000186928B11868C06840F480701C68E060A9
:101D50001868406940F001001C6860611868C0683C
:101D600040F020001C68E060002010BD014691F8A2
:101D70004100212828D18868B0F5805F0BD108691F
:101D800048B90A6A1088C0F308000B685860086AEE
:101D9000801C086205E00B6A581C086218780B6802
:101DA0005860C88C401E80B2C88458B90868C068A2
:101DB00020F080000B68D8600868C06840F04000E0
:101DC0000B68D860002070470220FCE72DE9F8433B
:101DD00004460D4617469846089E31E0701C70B3C5
:101DE000FEF792FEA0EB0800B04200D816B903201F
:101DF000BDE8F8832068C06800F00400F8B1802DC9
:101E00001ED0402D1CD020680068C0F3C000B0B1C7
:101E100000BF0020009020680068009020684068A3
:101E2000009000BF00BF2046FFF72AFE0820606434
:101E300000BF002084F8400000BF0120D8E7FFE782
:101E4000206800682840A84201D1012000E000205D
:101E5000B842C3D00020CBE710B5FEF711FB10BD90
:101E600000BFFEE702480068C0F302207047000090
:101E70000CED00E010B5002804DB0A07130E054A3C
:101E8000135406E00A07140E034A00F00F031B1F49
:101E9000D45410BD00E400E018ED00E000BFEFF303
:101EA000058008B1012070470020FCE78EB0FEF7E6
:101EB0003DFEFFF7A0FDFEF7ABFAFEF707FBFFF7CD
:101EC000B7FCFFF7CDFD1C220C4907A8FEF70DFA61
:101ED000002107A800F09AF8094908601C22074968
:101EE0001C316846FEF701FA0021684600F08EF8C2
:101EF0000449086000F01BF800BFFEE7243C00081E
:101F0000000000200400002001460020842901D0A8
:101F1000CA1C1044704770B5044625460DB12946C9
:101F200000E00121084600F0C5FD002070BD10B59D
:101F300000F08EFE002010BD10B50446606820B190
:101F40000120616800F0D1FF10BD012000F0BCFF4E
:101F5000FAE7000038B50446002500200090FFF79E
:101F60009DFF90B16946204601F092F9012801D009
:101F7000FF2038BD009888B14FF0805008490860B4
:101F8000BFF34F8FBFF36F8F08E000231A46194647
:101F9000204601F0A9F8012800D0FF252846E8E7EF
:101FA00004ED00E0F8B506460C46002000900EB99E
:101FB0008020F8BD0025601C08B96D1E03E014B137
:101FC000254605B90125FFF769FF98B16A4600214A
:101FD000304601F0CDF9012801D0FF20E9E7009853
:101FE00080B14FF0805008490860BFF34F8FBFF3B6
:101FF0006F8F07E02946304601F020FA012801D012
:10200000FF20D6E70020D4E704ED00E07FB50446CA
:102010000D46606998B1A06988B1B4F90800FFF76E
:1020200073FF0646D4E90510CDE9006102902B4606
:102030002269D4E9001001F055FB039013E0B4F9D4
:102040000800FFF761FF064603A8CDE90060238A78
:102050009AB22B46D4E9001001F012FB012802D0FD
:10206000002004B070BD0398FBE700002DE9F041AB
:1020700005460E461C4807681C480068001D00F015
:10208000D9FB50B91948006890F82C1001208840FD
:1020900017490968814316480160681C38B936B190
:1020A00012480168091D134800F00EFC1AE07C1963
:1020B0000E4800684460BC4207D20C480168091D04
:1020C0000D48006800F0E6FB0CE008480168091DB7
:1020D0000A48006800F0DEFB09480068844201D22B
:1020E00007480460BDE8F0812C00002018000020A3
:1020F00030000020BC030020200000201C00002035
:102100004800002010B5044600F0EAFB23480068B0
:10211000401C224908602248006840B920480460F9
:102120000846006801280DD100F0BEF90AE01D48FC
:10213000006838B91A480068C06AE16A884201D864
:102140001748046018480068401C1749086094F854
:102150002C1001208840154909680843134908607C
:10216000E16A01EB8101124A02EB8100211D00F0BE
:10217000ABFB00F0DFFB0B48006868B10848006863
:10218000C06AE16A884207D24FF08050094908606E
:10219000BFF34F8FBFF36F8F10BD000028000020EA
:1021A00018000020340000204400002030000020EF
:1021B000E002002004ED00E010B516E000F090FB16
:1021C0000C48C068C468201D00F034FB0A48006851
:1021D000401E0949086009480068401E0749086018
:1021E00000F0A8FB204600F05FF8044800680028D3
:1021F000E4D110BDA8030020280000202400002006
:1022000070B504460D46206C70B1216CE068014445
:10221000E160D4E90210884201D32168E1602846D8
:10222000226CE168FEF71CF870BD2DE9F041044610
:102230000F4615464FF00008A66B206C48B9206881
:1022400000282CD1A06801F05FFB80460020A06030
:1022500025E07DB93946226C6068FEF701F8216CF3
:10226000606808446060D4E90101884217D320689F
:10227000606014E03946226CE068FDF7F1FF216CE4
:10228000E068411AE1602168E068884203D2216C6D
:10229000A068411AE160022D01D106B1761E701CC2
:1022A000A0634046BDE8F08110B5044694F85100A3
:1022B00030B9206B00F05CFB204600F059FB1AE0BF
:1022C00094F85100012803D1204600F051FB12E0A0
:1022D00094F85100022801D1012000E0002050B9FB
:1022E00000BF502080F31188BFF34F8FBFF36F8F73
:1022F00000BF00BFFEE710BD01464A6A22B10A6B6B
:102300001268C2F1070000E00020704730B54FF4BA
:102310002053174800F007042CB1C01D20F007001F
:10232000134C041B1B1B0246124C22600024114D4F
:102330006C60D018083820F007000F4C2060002493
:102340000D4D2D686C600C4D2D682C601146441AA3
:102350004C60094C24680C60084D4C682C60084D9A
:102360004C682C604FF00044064D2C6030BD0000DE
:10237000D0030020540000205C00002064000020F6
:10238000600000207000002000BFFFF715FF064826
:1023900000680128F9D94FF0805004490860BFF364
:1023A0004F8FBFF36F8FF0E7E002002004ED00E0F5
:1023B00010B5044654B10020A06020600021E16007
:1023C00000231A461946204600F08EFE10BD2DE966
:1023D000F04106460D4617469846069C0DB9246006
:1023E00000E02760E66325640121204600F030FE0E
:1023F000BDE8F0812DE9FF5F81460E469246DDE99A
:102400000E7B109CAAF10100216B01EB800828F0E3
:10241000070808F0070008B9012000E0002050B9C3
:1024200000BF502080F31188BFF34F8FBFF36F8F31
:1024300000BF00BFFEE786B1002507E0715D04F133
:1024400034004155705D00B902E06D1C102DF5D3CC
:1024500000BF00214320015502E0002084F8340031
:10246000072F00D30627E76267640020A064201DC1
:1024700000F00DFA04F1180000F009FA2461C7F128
:102480000700A06164620020E06484F850004946BF
:102490004046039A00F0BCF92060BBF1000F01D068
:1024A000CBF80040BDE8FF9F10B5002407E004EB27
:1024B00084010F4A02EB810000F0DCF9641C072C58
:1024C000F5D30C4800F0D6F90B4800F0D3F90B48CF
:1024D00000F0D0F90A4800F0CDF90A4800F0CAF936
:1024E00004480949086004480849086010BD000014
:1024F000E00200206C0300208003002094030020F1
:10250000A8030020BC0300201C00002020000020A5
:1025100010B50146164800E0006803688B42FBD303
:102520000246436813448B4204D143684C682344F9
:10253000436001460A464B6813440468A34211D124
:102540000C4C03682468A34208D04B680468646894
:1025500023444B6003681B680B6005E0054B1B6858
:102560000B6001E003680B60884200D0016010BD81
:10257000540000205C00002070B5054600F0B0F962
:10258000A86B08B9012400E0002400F0D3F920462C
:1025900070BD70B5054600F0A3F9A86BE96B8842E1
:1025A00001D1012400E0002400F0C4F9204670BDF0
:1025B0000A490968096809B9012100E0002121B12F
:1025C0004FF0FF31064A116006E004490968C96806
:1025D000C868034A41681160704700001C00002071
:1025E000480000200E480068401C08B9012000E0A7
:1025F000002050B900BF502080F31188BFF34F8FE7
:10260000BFF36F8F00BF00BFFEE700BF502080F315
:102610001188BFF34F8FBFF36F8F00BF00BFFEE77E
:102620007400002070B5044600F05AF994F9455042
:1026300010E0606A08B9012000E0002038B904F118
:10264000240001F021FA18B100F06EFA00E003E076
:10265000681E45B2002DECDC00BFFF2084F8450069
:1026600000F068F900F03CF994F9445010E020695A
:1026700008B9012000E0002048B904F1100001F081
:1026800003FA08B100F050FA681E45B200E001E01C
:10269000002DECDC00BFFF2084F8440000F04AF974
:1026A00070BD00002DE9F04104464FF0000800F035
:1026B00027FB4948006808B9FFF728FE474800682B
:1026C0002040002870D1D4B1083404F00700B0B124
:1026D00004F00700C0F10800044404F0070008B942
:1026E000012000E0002050B900BF502080F3118885
:1026F000BFF34F8FBFF36F8F00BF00BFFEE7002C0B
:1027000052D03748006884424ED8364E304605686D
:1027100001E02E462D686868A04202D22868002891
:10272000F7D12D48006885423ED0306800F1080896
:10273000286830606868001B102819D92F1907F025
:10274000070008B9012000E0002050B900BF502068
:1027500080F31188BFF34F8FBFF36F8F00BF00BFAF
:10276000FEE76868001B78606C603846FFF7D0FEB3
:102770001B4968680968081A194908600846006812
:1027800019490968884203D215480068164908604B
:102790001249686809680843686000202860134887
:1027A0000068401C1149086001F0BAF908F0070000
:1027B00008B9012000E0002050B900BF502080F38C
:1027C0001188BFF34F8FBFF36F8F00BF00BFFEE7CD
:1027D0004046BDE8F08100005C0000207000002051
:1027E00060000020540000206400002068000020E9
:1027F0000648006830B10549096801F14800896C54
:10280000491C016001480068704700001800002062
:10281000001F4FF080730360001F21F0010303606D
:10282000001F034B0360143802602038704700001B
:10283000E525000801460A69D1E901309860D1E92F
:10284000010358605068884201D1886850600020B8
:1028500008611068401E106010687047034B0360E9
:10286000034B0B6080231360704700008C00002036
:10287000E000002000F1080141604FF0FF3181606D
:1028800000F10801C1600161002101607047002171
:102890000161704710B502460B685C1C0CB91069E9
:1028A00007E002F1080000E04068446824689C42A8
:1028B000FAD944684C604C68A160886041600A6144
:1028C0001468641C146010BD42684A6093688B6091
:1028D000936859609160086103685B1C03607047EE
:1028E00000BF502080F31188BFF34F8FBFF36F8F6D
:1028F00000BF0E480068401C0C490860084600688C
:10290000012812D10A480068C0B208B9012000E0CD
:10291000002050B900BF502080F31188BFF34F8FC3
:10292000BFF36F8F00BF00BFFEE770477400002049
:1029300004ED00E00D48006850B900BF502080F35E
:102940001188BFF34F8FBFF36F8F00BF00BFFEE74B
:1029500006480068401E054908600846006820B91E
:10296000002080F3118800BF00BF70477400002072
:1029700070B506463546002E44D0083D2C46224907
:1029800060680968084008B1012000E0002050B9E3
:1029900000BF502080F31188BFF34F8FBFF36F8FBC
:1029A00000BF00BFFEE7206808B9012000E000205A
:1029B00050B900BF502080F31188BFF34F8FBFF391
:1029C0006F8F00BF00BFFEE70F49606809680840CD
:1029D000C0B12068B0B90C4960680968884360607C
:1029E00000F08EF9094960680968084407490860E1
:1029F0002046FFF78DFD06480068401C044908602A
:102A000001F08EF870BD0000700000206000002012
:102A10006C00002000204FF0E0210861886106482A
:102A200000684FF47A71B0FBF1F0401E4FF0E021E6
:102A300048610720086170471400002070B5FDF759
:102A4000EBFB0446102C16D304F1E02090F8F05371
:102A500015480078854201DB012000E0002050B9D4
:102A600000BF502080F31188BFF34F8FBFF36F8FEB
:102A700000BF00BFFEE70D48006800F4E0600C49AD
:102A80000968884201D8012000E0002050B900BF49
:102A9000502080F31188BFF34F8FBFF36F8F00BFBB
:102AA00000BFFEE770BD0000780000200CED00E0E4
:102AB0007C00002070B504460025D4B1124800689F
:102AC00008B9012000E0002050B900BF502080F379
:102AD0001188BFF34F8FBFF36F8F00BF00BFFEE7BA
:102AE00000F00EF900212046FFF7C0FA01F018F8B7
:102AF00005463DB94FF0805004490860BFF34F8F41
:102B0000BFF36F8F70BD00005000002004ED00E0A7
:102B10000349096801600349096841607047000082
:102B2000400000202C00002001200149086070476F
:102B30003C00002070B504460D4654B900BF50203B
:102B400080F31188BFF34F8FBFF36F8F00BF00BFBB
:102B5000FEE70548016818312046FFF79BFE01217A
:102B60002846FFF783FA70BD180000202DE9F047D2
:102B700006460F4634464FF00109002E60D0A06C87
:102B800050B900BF502080F31188BFF34F8FBFF3BF
:102B90006F8F00BF00BFFEE7606CB84201D23D46B8
:102BA00000E0656CE06AA8424AD0A06C012847D1D9
:102BB00024480068844201D0012000E0002050B980
:102BC00000BF502080F31188BFF34F8FBFF36F8F8A
:102BD00000BF00BFFEE7D4F82C80E562A06900F0DA
:102BE000004010B9C5F10700A06108EB8801164A42
:102BF00002EB81016069884201D1012000E00020E0
:102C0000F0B1201DFFF716FE40B994F82C100120FA
:102C100088400E49096881430C48016094F82C10E3
:102C20000120884009490968084308490860E16AA9
:102C300001EB8101044A02EB8100211DFFF744FEF4
:102C4000BDE8F08718000020E002002030000020DE
:102C500010B586B000200590049003AA04A905A829
:102C6000FFF7FCFD0022DDE904101346CDE9002149
:102C700002901CA11D48039A00F034FD1C49086015
:102C80000846006808B1012400E00024012C15D199
:102C900000BF502080F31188BFF34F8FBFF36F8FB9
:102CA00000BF4FF0FF30134908600120124908604F
:102CB00000201249086000F071F810E0601C08B1B3
:102CC000012000E0002050B900BF502080F311889F
:102CD000BFF34F8FBFF36F8F00BF00BFFEE706B09B
:102CE00010BD000049444C45000000008923000845
:102CF0004C00002048000020340000202C00002060
:102D000002480068401C01490860704750000020DC
:102D10001D48006818B101201C49086032E00020FD
:102D20001A4908601A480068B0FA80F0C0F11F0123
:102D300001EB8100174A52F8200008B1012000E0A1
:102D4000002050B900BF502080F31188BFF34F8F8F
:102D5000BFF36F8F00BF00BFFEE701EB81020D4B99
:102D600003EB820042685268426000F10802436847
:102D7000934202D14268526842604268D268064B70
:102D80001A6000BF70470000500000203C00002087
:102D900030000020E0020020180000201CB5384957
:102DA000084600780190FF200A4610700846007817
:102DB00000909DF8000000F0F0009DF80020904287
:102DC00001D1012000E0002050B900BF502080F365
:102DD0001188BFF34F8FBFF36F8F00BF00BFFEE7B7
:102DE0009DF8000000F05000264A10700720264A87
:102DF000106009E024480068401E234A10609DF8D6
:102E000000004006000E00909DF8000000F08000D9
:102E10008028EFD01C480068C0F10700042801D1C9
:102E2000012000E0002050B900BF502080F311883D
:102E3000BFF34F8FBFF36F8F00BF00BFFEE7124895
:102E400000680002104A10601046008800F4E0603C
:102E500010600B4A019810700C48006840F4700034
:102E60000A4908600846006840F070400860FFF7B3
:102E7000D1FD002006490860FDF798F900201CBD2F
:102E800000E400E0780000207C00002020ED00E05D
:102E90007400002010B500BF502080F31188BFF3EC
:102EA0004F8FBFF36F8F00BF00F08AFC18B14FF057
:102EB00080500449086000BF002080F3118800BFE3
:102EC00010BD000004ED00E02DE9F04104460126AC
:102ED000002722460021012000F01CF80546284664
:102EE000FFF766FA2846BDE8F0812DE9F84304466D
:102EF0000D4601274FF000082B4600221146012005
:102F0000009400F034F806463046FFF751FA304698
:102F1000BDE8F8832DE9F84305460E4617460DB186
:102F2000012000E0002050B900BF502080F311883C
:102F3000BFF34F8FBFF36F8F00BF00BFFEE705FBEE
:102F400006F808F14800FFF7ADFB044664B1A1465E
:102F500009F14809002084F846003B464A463146BC
:102F600028460094FFF733FA2046BDE8F8832DE9A0
:102F7000F84380460E4617461D46DDF82090B8F10E
:102F8000000F01D0012000E0002050B900BF502008
:102F900080F31188BFF34F8FBFF36F8F00BF00BF67
:102FA000FEE70DB1012000E0002050B900BF502025
:102FB00080F31188BFF34F8FBFF36F8F00BF00BF47
:102FC000FEE707B10EB1012000E0002050B900BFBC
:102FD000502080F31188BFF34F8FBFF36F8F00BF76
:102FE00000BFFEE707B90EB9012000E0002050B98C
:102FF00000BF502080F31188BFF34F8FBFF36F8F56
:1030000000BF00BFFEE7482000900098482801D18B
:10301000012000E0002050B900BF502080F311884B
:10302000BFF34F8FBFF36F8F00BF00BFFEE700BF3E
:103030002C464CB1012084F846004B463A463146B6
:1030400040460094FFF7C3F92046BDE8F88300002E
:1030500070B505460E462C4654B900BF502080F38B
:103060001188BFF34F8FBFF36F8F00BF00BFFEE724
:10307000FFF736FCD4E90F12206801FB0200A060C4
:103080000020A06320686060E06B401E226C216815
:1030900000FB0211E160FF2084F8440084F8450041
:1030A0009EB9206908B9012000E00020A8B904F108
:1030B000100000F0E9FC80B14FF080500949086031
:1030C000BFF34F8FBFF36F8F07E004F11000FFF7DE
:1030D000D1FB04F12400FFF7CDFBFFF72BFC01200F
:1030E00070BD000004ED00E02DE9FF4383B006460B
:1030F00088461D464FF00009344654B900BF5020A1
:1031000080F31188BFF34F8FBFF36F8F00BF00BFF5
:10311000FEE7B8F1000F01D1206C08B9012000E0F2
:10312000002050B900BF502080F31188BFF34F8FAB
:10313000BFF36F8F00BF00BFFEE7022D02D1E06B2F
:10314000012801D1012000E0002050B900BF50202B
:1031500080F31188BFF34F8FBFF36F8F00BF00BFA5
:10316000FEE700F01DFB08B9059808B9012000E052
:10317000002050B900BF502080F31188BFF34F8F5B
:10318000BFF36F8F00BF00BFFEE700BFFFF7A8FBD4
:10319000A06BE16B884201D3022D28D12A4641461B
:1031A0002046FFF742F80746606A08B9012000E0B0
:1031B000002068B904F1240000F066FC88B14FF0EB
:1031C000805032490860BFF34F8FBFF36F8F08E024
:1031D0003FB14FF080502D490860BFF34F8FBFF3D0
:1031E0006F8FFFF7A7FB012007B0BDE8F0830598BC
:1031F00018B9FFF79FFB0020F6E7B9F1000F04D1E3
:1032000001A8FFF785FC4FF00109FFF793FBFFF7DB
:1032100077FDFFF765FB94F94400401C10B90020CE
:1032200084F8440094F94500401C10B9002084F84B
:103230004500FFF77FFB05A901A800F0DBF9F0B915
:103240002046FFF7A6F9A0B104F110000599FFF799
:1032500071FC2046FFF7E6F900F062FC002895D1EA
:103260004FF0805009490860BFF34F8FBFF36F8F55
:103270008CE72046FFF7D6F900F052FC86E720469F
:10328000FFF7D0F900F04CFC0020ADE704ED00E0C2
:103290002DE9F04706460F46344654B900BF50208A
:1032A00080F31188BFF34F8FBFF36F8F00BF00BF54
:1032B000FEE7206C08B9012000E0002050B900BFF3
:1032C000502080F31188BFF34F8FBFF36F8F00BF83
:1032D00000BFFEE7206808B9A06808B9012000E037
:1032E000002050B900BF502080F31188BFF34F8FEA
:1032F000BFF36F8F00BF00BFFEE7FFF79FFB00BF6C
:103300005021EFF3118081F31188BFF34F8FBFF38A
:103310006F8F00BF0546D4F83890E06B48451ED942
:1033200094F945A009F10100A0630AF1010070B908
:10333000606A08B9012000E0002068B904F12400A7
:1033400000F0A2FB40B13FB10120386004E00AF177
:10335000010040B284F845004FF0010801E04FF051
:10336000000800BF85F3118800BF4046BDE8F08724
:103370002DE9F05F064689461746344654B900BF2A
:10338000502080F31188BFF34F8FBFF36F8F00BFC2
:1033900000BFFEE7B9F1000F01D1206C08B9012090
:1033A00000E0002050B900BF502080F31188BFF327
:1033B0004F8FBFF36F8F00BF00BFFEE7FFF73EFBED
:1033C00000BF5021EFF3118081F31188BFF34F8FBD
:1033D000BFF36F8F00BF0546D4F838A0BAF1000FD5
:1033E00022D094F944B049462046FEF709FFAAF1DD
:1033F0000100A0630BF1010070B9206908B9012038
:1034000000E0002068B904F1100000F03DFB40B17D
:103410003FB10120386004E00BF1010040B284F8B4
:1034200044004FF0010801E04FF0000800BF85F3B1
:10343000118800BF4046BDE8F09F00002DE9F34130
:1034400082B005464FF000082C46002654B900BF54
:10345000502080F31188BFF34F8FBFF36F8F00BFF1
:1034600000BFFEE7206C08B9012000E0002050B941
:1034700000BF502080F31188BFF34F8FBFF36F8FD1
:1034800000BF00BFFEE700F08BF908B9039808B948
:10349000012000E0002050B900BF502080F31188C7
:1034A000BFF34F8FBFF36F8F00BF00BFFEE700BFBA
:1034B000FFF716FAA76BFFB1781EA063206810B95A
:1034C000FFF796F9A060206908B9012000E000200C
:1034D00060B904F1100000F0D7FA38B14FF0805015
:1034E00043490860BFF34F8FBFF36F8FFFF722FA96
:1034F000012004B0BDE8F081039898B90EB901200D
:1035000000E0002050B900BF502080F31188BFF3C5
:103510004F8FBFF36F8F00BF00BFFEE7FFF70AFAC0
:103520000020E6E7B8F1000F04D16846FFF7F0FA93
:103530004FF00108FFF7FEF9FFF7E2FBFFF7D0F9C4
:1035400094F94400401C10B9002084F8440094F918
:103550004500401C10B9002084F84500FFF7EAF947
:1035600003A9684600F046F840BB2046FFF704F880
:10357000F0B1206838B9FFF7B3F9A06800F028FA75
:103580000646FFF7D7F904F124000399FFF7D2FAB2
:103590002046FFF747F800F0C3FA002888D14FF023
:1035A000805013490860BFF34F8FBFF36F8F7FE7E1
:1035B0002046FFF737F800F0B3FA79E72046FFF727
:1035C00031F800F0ADFA2046FEF7D6FF0028EED025
:1035D0005EB1FFF785F92046FEF78EFE07463946B5
:1035E000A068FFF7C3FAFFF7A5F9002081E7000004
:1035F00004ED00E070B505460C4655B900BF5020FB
:1036000080F31188BFF34F8FBFF36F8F00BF00BFF0
:10361000FEE754B900BF502080F31188BFF34F8FED
:10362000BFF36F8F00BF00BFFEE7FFF759F91248E5
:1036300002686868131A2068401C08B9002617E061
:103640000E4928680968884204D06868904201D809
:1036500001260DE02068984207D92068C01A206032
:103660002846FFF755FA002602E0002020600126D8
:10367000FFF760F9304670BD2C00002040000020AC
:103680002DE9FF4F85B0804689461746DDE912AB2C
:10369000B800FFF707F8064656B15420FFF702F8C6
:1036A00004460CB1266304E03046FFF761F900E000
:1036B00000248CB1002084F85100CDE900ABCDE9A5
:1036C00002403A4649464046089BFEF793FE204694
:1036D000FEF718FD012501E04FF0FF35284609B03F
:1036E000BDE8F08F2DE9F04F85B00746884691463A
:1036F0009A46DDE90EB6109C0EB1012000E00020D4
:1037000050B900BF502080F31188BFF34F8FBFF333
:103710006F8F00BF00BFFEE70CB1012000E000206A
:1037200050B900BF502080F31188BFF34F8FBFF313
:103730006F8F00BF00BFFEE754200390039854280A
:1037400001D1012000E0002050B900BF502080F3DB
:103750001188BFF34F8FBFF36F8F00BF00BFFEE72D
:1037600000BFB4B1AEB125462C462E63022085F8C9
:103770005100002004A953464A46CDE900B1CDE9E5
:10378000025041463846FEF735FE2846FEF7BAFCA1
:1037900001E000200490049805B0BDE8F08F00001F
:1037A0000549096809B9012005E00449096809B912
:1037B000022000E00020704734000020500000206C
:1037C0002DE9F0414FF000084448006800287CD102
:1037D00043480068451C4248056015BB41480068E5
:1037E000006808B9012000E0002050B900BF502057
:1037F00080F31188BFF34F8FBFF36F8F00BF00BFFF
:10380000FEE7384807683848006836490860364897
:10381000076036480068401C34490860FEF7C8FE5F
:1038200000BF3348006885423CD300BF2D48006884
:10383000006808B9012000E0002020B14FF0FF30FF
:103840002B4908602DE027480068C068C468666896
:10385000B54202D22648066023E0201DFEF7EAFFAB
:10386000A06A18B104F11800FEF7E4FF94F82C10D8
:10387000012088401F49096808431E490860E16A21
:1038800001EB81011C4A02EB8100211DFFF71CF8AE
:103890001A49E06A0968C96A8842C7D34FF001082B
:1038A000C4E700BF15480068C06A00EB80001249F9
:1038B00051F82000012801D94FF001081048006894
:1038C00008B14FF0010805E0FFE70E480068401C12
:1038D0000C4908604046BDE8F0810000500000201F
:1038E0002C0000201C0000202000002040000020B0
:1038F0004800002030000020E002002018000020D6
:103900003C0000203800002070B505462C460026FB
:10391000002D55D02B480068844201D1012000E0E1
:10392000002050B900BF502080F31188BFF34F8FA3
:10393000BFF36F8F00BF00BFFEE7A06C50B900BFA0
:10394000502080F31188BFF34F8FBFF36F8F00BFFC
:1039500000BFFEE7A06C401EA064616CE06A884274
:103960002ED0A06C60BB201DFEF764FF78B9E06A22
:1039700000EB8000144951F8200040B994F82C1055
:103980000120884011490968814310480160606C3A
:10399000E062E06AC0F10700A06194F82C100120F9
:1039A00088400A490968084308490860E16A01EB50
:1039B0008101054A02EB8100211DFEF785FF0126EA
:1039C000304670BD18000020E002002030000020CA
:1039D00070B505462C460026002D4DD02749E06ADB
:1039E0000968C96A884240D2A06900F0004028B93D
:1039F00022480068C06AC0F10700A061E16A01EBDB
:103A000081011F4A02EB81016069884201D10120D6
:103A100000E0002018B3201DFEF70CFF40B994F819
:103A20002C1001208840174909688143154801601E
:103A300012480068C06AE06294F82C1001208840A7
:103A40001049096808430F490860E16A01EB8101E8
:103A50000B4A02EB8100211DFEF736FF03E0074809
:103A60000068C06AE062012606E00449606C0968EB
:103A7000C96A884200D20126304670BD1800002075
:103A8000E00200203000002070B50646F068C468EF
:103A900054B900BF502080F31188BFF34F8FBFF39C
:103AA0006F8F00BF00BFFEE704F11800FEF7C2FEF3
:103AB00015480068A8B9201DFEF7BCFE94F82C102C
:103AC0000120884011490968084310490860E16AEB
:103AD00001EB81010E4A02EB8100211DFEF7F4FE8D
:103AE00004E004F118010B48FEF7EEFE0A49E06A13
:103AF0000968C96A884204D901250120074908607C
:103B000000E00025284670BD500000203000002055
:103B1000E002002094030020180000203C00002058
:103B200070B5002400263648006850B900BF502008
:103B300080F31188BFF34F8FBFF36F8F00BF00BFBB
:103B4000FEE7FEF7CDFE2E480068401E2C490860B7
:103B50000846006800284FD12A48006800284BD04A
:103B600024E02948C068C46804F11800FEF762FE2A
:103B7000201DFEF75FFE94F82C1001208840234999
:103B80000968084321490860E16A01EB8101204A84
:103B900002EB8100211DFEF797FE1E49E06A0968CD
:103BA000C96A884202D301201B4908601648006890
:103BB00008B9012000E000200028D2D00CB1FEF7A7
:103BC000F7FC1648056865B100BFFFF7F9FD10B1B5
:103BD0000120114908606D1E002DF6D100200F490B
:103BE00008600D48006838B1012630070C490860AC
:103BF000BFF34F8FBFF36F8FFEF79CFE304670BD53
:103C000050000020280000209403002030000020F5
:103C1000E0020020180000203C00002038000020B6
:103C200004ED00E0883C0008C5190008FEFF000014
:103C30000000000080000000000000000000000004
:103C4000943C0008D51900080000000000000000A6
:103C50000002000000000000000000000203040554
:103C6000060708090A0B0C0D0E0F101001020000C8
:103C7000000000000000010203040607080900001C
:103C800000000102030400004C45445F5461736B63
:103C900000000000756172745F7461736B00000056
:103CA000C03C0008000000208C0000002801000833
:103CB0004C3D00088C0000208434000044010008C2
:103CC00000000000000000000000000010000000E4
:103CD0000100000000127A00000000000000000057
:103CE00000000000000000000000000000000000D4
:103CF00000000000000000000000000000000000C4
:103D000000000000000000000000000000000000B3
:103D100000000000000000000000000000000000A3
:103D20000000000000000000000000000000000093
:103D300000000000AAAAAAAA0000000000000000DB
:0C3D400000000000000000000000000077
:04000005080000ED02
:00000001FF
