:020000040800F2
:100000007835002031020008271600082316000862
:1000100025160008010D00082F1800080000000038
:10002000000000000000000000000000990100082E
:10003000030D000800000000DD0100083D16000867
:100040004B0200084B0200084B0200084B0200085C
:100050004B0200084B0200084B0200084B0200084C
:100060004B0200084B0200084B0200084B0200083C
:100070004B0200084B0200084B0200084B0200082C
:100080004B0200084B0200084B0200084B0200081C
:100090004B0200084B0200084B0200084B0200080C
:1000A0004B0200084B0200084B0200084B020008FC
:1000B0004B0200084B0200084B0200084B020008EC
:1000C0004B0200084B0200084B0200084B020008DC
:1000D0004B0200084B0200084B0200084B020008CC
:1000E0004B0200084B0200084B02000800F002F827
:1000F00000F042F80AA090E8000C82448344AAF180
:100100000107DA4501D100F037F8AFF2090EBAE87D
:100110000F0013F0010F18BFFB1A43F0010318473B
:10012000C4220000E4220000103A24BF78C878C13D
:10013000FAD8520724BF30C830C144BF04680C60ED
:10014000704700000023002400250026103A28BF35
:1001500078C1FBD8520728BF30C148BF0B60704739
:100160001FB59DE8030000F037FB00F017F91FBD35
:1001700010B500F07CF910BD00F0DFF91146FFF773
:10018000EFFF01F071FB00F0F7FA03B4FFF7F0FFA7
:1001900003BC00F0B3FC0000224B19680868B0E80B
:1001A000F00F80F30988BFF36F8F4FF0000080F3EA
:1001B00011884EF00D0E70470000000006480068E0
:1001C000006880F3088862B661B6BFF34F8FBFF353
:1001D0006F8F00DF00BF00BF08ED00E0EFF3098084
:1001E000BFF36F8F0F4B1A6820E9F00F106008B54E
:1001F0004FF0500080F31188BFF34F8FBFF36F8F24
:1002000001F0E6FE4FF0000080F31188BDE80840E1
:1002100019680868B0E8F00F80F30988BFF36F8FA2
:10022000704700BF18000020EFF305807047000002
:100230000948804709480047FEE7FEE7FEE7FEE77A
:10024000FEE7FEE7FEE7FEE7FEE7FEE704480549B6
:10025000054A064B70470000B3160008ED00000881
:10026000782D00207835002078310020783100206A
:100270000FB4044910B503AA029800F061F810BC4D
:100280005DF814FB6C2C002010B5203AC0F00B80F8
:10029000B1E81850203AA0E81850B1E81850A0E88A
:1002A0001850BFF4F5AF5FEA027C24BFB1E81850E4
:1002B000A0E8185044BF18C918C0BDE810405FEA54
:1002C000827C24BF51F8043B40F8043B08BF7047D0
:1002D000D20728BF31F8023B48BF11F8012B28BFD5
:1002E00020F8023B48BF00F8012B70474FF0000296
:1002F00000B5134694469646203922BFA0E80C501C
:10030000A0E80C50B1F12001BFF4F7AF090728BFF6
:10031000A0E80C5048BF0CC05DF804EB890028BF72
:1003200040F8042B08BF704748BF20F8022B11F09B
:10033000804F18BF00F8012B704770477047704717
:10034000074B70B50D467B4400F011F80446284673
:1003500000F020F810B14FF0FF3070BD204670BDA6
:100360000715000001694A1C02610878704700B552
:100370008FB0CDE901310021059105497944CDE9DE
:1003800003101146684600F024F90FB000BD0000CC
:10039000E5FFFFFF007B00F08000704710B542488A
:1003A0005421FFF7A3FF41485421FFF79FFF404826
:1003B0005421FFF79BFF3F493B483C4A3F4B0860B5
:1003C0003D490A603A491960531C0365481C106591
:1003D000012008653B48344A39A1784400F030F9DF
:1003E00020B9384878440A3800F0CCF937482F4A09
:1003F00035A1784400F024F920B9344878440A380B
:1004000000F0C0F932482A4A2FA1784400F018F9C8
:1004100020B92F4878440A3800F0B4F94023224824
:10042000DC000021224600F0E8F820B1254878449D
:10043000543800F0A7F91D4822464023002100F05F
:10044000DCF820B121487844543800F09BF9184872
:1004500022461023002100F0D0F8002806D01C48C6
:100460007844BDE81040563800F08CB910BD1048F3
:1004700070B5006D20F001040B4800F057F90B48EF
:1004800000F054F90A4800F051F909E0206D20F01D
:100490000105204600F04AF9204600F073F82C468A
:1004A000002CF3D170BD0000182C00206C2C002013
:1004B000C02C002080000020840000208800002044
:1004C00072000000E01F000077000000CC1F000059
:1004D000B81F00000EB5CDE9000100F0EFFA029060
:1004E00069460120ABBE0EBD08B5694600900220EA
:1004F000ABBE08BD1FB58DE8070069460520ABBE41
:1005000004B010BD1FB58DE80F0069460620ABBED4
:10051000F6E708B5694600900920ABBE08BD1CB5DA
:10052000CDE9000169460A20ABBE1CBD704708B585
:10053000694600900C20ABBE08BD754600F02AF954
:10054000AE4605006946534620F00700854618B0C0
:1005500020B5FFF77BFEBDE820404FF000064FF0CE
:1005600000074FF000084FF0000B21F00701AC46E8
:10057000ACE8C009ACE8C009ACE8C009ACE8C00907
:100580008D46704770B50446051F00F009F90068F4
:10059000002C14BF446870BD002C18BFAC423CBF97
:1005A00020466468F8D301680A18AA4218BF45605B
:1005B00003D12A6805461144016028684119A14207
:1005C0001CBF6C6070BD6168696021680844286068
:1005D00070BD2DE9F04106460024D6E90170F568AA
:1005E0008046304603E04146B847641C3046A84781
:1005F0000028F8D12046BDE8F08170B5C468A50791
:1006000013D0650211D4B2F5807F09D0B2F5007F16
:1006100006D0B2F5806F08D1012300F1240106E075
:100620005D1E6FF07F46B54201D3012070BD0161B0
:10063000C361416024F470611143C160002070BD4A
:100640002DE9F0410C4607461646104600F06EF8BC
:100650002078611C61280AD0722802D077283CD10A
:1006600002E00125002405E00225042402E008241C
:1006700048F2020511F8010B2B2806D0622809D098
:1006800011F8010C74280AD00BE045F0030544F082
:100690000204EFE745F0040544F00104EAE744F002
:1006A000100438462146FFF715FF411C15D00021E4
:1006B000316171604FF40071F560F1617061200784
:1006C00004D530460222002100F0E4F8306D40F0FD
:1006D000010030653046BDE8F0810020FBE72DE9E0
:1006E000F0410D460646104C206DC10704D041086C
:1006F00004D020F00104F7E722460EE0542000F079
:100700009AF807000ED0206D47F0010108435421EC
:1007100020653846FFF7EAFD3A4629463046BDE8EF
:10072000F0418DE70020D6E7182C00202DE9F04796
:1007300004464FF000094FF0FF37C568D4E904863E
:10074000A80707D0204600F055F93046FFF7CCFE49
:10075000002802DA3846BDE8F087280502D5404671
:10076000FFF710FF4C212046FFF7C0FD206D20F061
:10077000010020654846EEE70446AFF300802046BE
:10078000FFF703FD10B500F07FF9BDE8104000F061
:1007900075B9000000487047142D00207047000014
:1007A000004870471C2D0020704770477047704705
:1007B00038B504460A4600206946AFF30080002899
:1007C00008BF38BD02460099204600F0A4F9012078
:1007D00038BD012000F0F3B9F8B5AFF3008005464D
:1007E00000200C46102000BF0646A819A0420DD9D3
:1007F000324669460020AFF30080070008BF00F0D2
:10080000DEF90098A04218BF0546C419FFF7C8FFDB
:1008100005600746F01D20F007004619284600F045
:1008200073F9B44208BFF8BDA21B31463868BDE871
:10083000F84000F070B970B50646FFF7B1FF0568E3
:1008400006F10B0020F00704B4429CBF002070BDED
:100850002B466A68BAB11068A04210D304F10801AF
:1008600088423CBF5068586007D3516810194160F6
:100870001168091B016058601460101D70BD13469B
:100880005268002AE7D121462846FFF791FF002849
:10089000DED170BD2DE9F041044616460D4647698C
:1008A000007B80072ED03846FFF733FE50BB3EB3A7
:1008B000012E02D0022E25D104E0204600F045F999
:1008C00005441DE03846FFF732FEE168002841F09C
:1008D0001001E16005DA204600F058F80120BDE87B
:1008E000F081C9030BD56268E16A914200D81146D4
:1008F000A26911442269891A814200DD0846054433
:10090000002D01DA0220EAE7E16A6068E2688142CC
:1009100006D29103E06203D522F4003141F01002C7
:10092000A6690027AE4213DCE16A814201D90B4679
:1009300000E0034603EB060C2369ACEB030CAC456B
:1009400006DD814201D98C4600E084469C4505D1F4
:10095000A760276042F02000A5620DE0AD1BE669AC
:10096000AE1B8142A66000D90846C01A281A206032
:100970005819606022F0200003490840E060002020
:1009800084F84870ABE70000BFCFD7FFC16821F4FF
:10099000001141F08001C160002181600160704759
:1009A0002DE9F047814614460E464FF0FF38324895
:1009B000D5685769054209D03846A169FFF7AFFDF0
:1009C000002811DB2C48C0430540E5602B46324629
:1009D00049463846FFF78EFDA16920F00042B21A61
:1009E00011440028A16103D02046FFF7CFFF404605
:1009F000BDE8F08770B504460569C06A6168884241
:100A000000D80846E16821F42011E160C90312D53D
:100A1000A84208D02246411B2846FFF7C1FF10B16B
:100A20004FF0FF3070BD0020E562C4E90150E0687E
:100A300020F48030E060002070BD10B50446C0682E
:100A400020F02000E060A16AA06988420DD0204615
:100A5000FFF7D0FFE06820F4405040F01000E06065
:100A6000A06AA0612069E062606044F24001E06831
:100A70008843E06010BD000010000200002801D093
:100A800000F03CB87047000010B5014602A000F02D
:100A90007DF8012010BD000053494752545245448F
:100AA0003A2052656469726563743A2063616E2707
:100AB00074206F70656E3A200000000010B5431C72
:100AC00002E010F8011B71B18107FAD14FF0013239
:100AD00002C88C1A8C4314EAC211F9D0C01A0A0653
:100AE00003D0C01E10BDC01A10BD0A0401D0801E64
:100AF00010BD0902FCD0401E10BD000001491820A5
:100B0000ABBEFEE72600020000210160C0E9011033
:100B1000704710207047034640688C46002818BF75
:100B200088423CBF03464068F8D31868184488429E
:100B300007D00CF1030020F00700001D411A521AE3
:100B40000146081D0A60FFF71DBD10B50146C268C9
:100B5000900703D0900607D5886A0AE000F03EF8B7
:100B600001210160881E10BD8B69486818440B691B
:100B7000C01A91F848301BB191F84910401A10BDC5
:100B80001103FCD50028FADD401E10BD70B50546E6
:100B90000C460A2000E06D1C00F018F835B12878EA
:100BA0000028F8D102E0641C00F010F814B120789D
:100BB0000028F8D1BDE870400A2000F007B810B551
:100BC00000F010F8BDE81040FFF758BF08B56946BF
:100BD0008DF800000320ABBE08BD00000048704740
:100BE000142D002010B5012805D0002103A0FFF727
:100BF000CDFF012010BD09A1F8E70000534947527D
:100C0000544D454D3A204F7574206F6620686561DC
:100C100070206D656D6F7279000000003A204865A4
:100C20006170206D656D6F727920636F727275707F
:100C3000746564004FF4FA7400F03EF8204600F04A
:100C40003FFEF9E74FF47A7403A0FFF711FB20464B
:100C500000F036FEF8E700004D6F746F72205461AB
:100C6000736B2052756E6E696E670D0A000000008E
:100C700030B585B0002002900D48816941F0100127
:100C8000816180694FF4005400F01000049001204D
:100C9000CDE900400220074D03906946284600F048
:100CA00033F801222146284600F026F905B030BD70
:100CB00000100240001001404FF40051014800F0C4
:100CC00013B90000001001400C4810B50A4901603A
:100CD0004FF4E1314160002181600C22C160C0E924
:100CE00004128161C16100F019FC002803D0BDE845
:100CF000104000F007B810BD003801408C00002003
:100D0000FEE7704772B6FEE72DE9F84FDFF8B891BD
:100D10000024A9F1040B23460F2709F1040AABF1C3
:100D2000040EC9E00125A5402A40AA427DD1674EA4
:100D3000D1F804C0ACEB0608B44532D014DCBCF1E9
:100D4000030F3AD009DCBCF1000F2AD0BCF1010F2F
:100D50001CD0BCF1020F31D11DE0BCF1110F17D036
:100D6000BCF1120F2AD119E0B8F5881F19D006DCA2
:100D7000B8F5803F15D0B8F5801F1FD111E0B8F548
:100D8000001F0ED0B8F5041F18D10AE0CB6815E09B
:100D9000CB681B1D12E0CB6808330FE0CB680C3327
:100DA0000CE08B682BB1012B4FF0080303D0456199
:100DB00004E0042302E0056100E00023FF2A01D8DB
:100DC000064601E000F104064FEA840501D9A5F1C9
:100DD0002005D6F8008007FA05FC28EA0C0803FA7B
:100DE00005F548EA0508C6F800804D68ED0062D5B3
:100DF000374DAE6946F00106AE61AD6924F00306D9
:100E000005F001050095334D06EB050CDCF80850A4
:100E1000A607360F07FA06F825EA0805DFF8B880B6
:100E2000404503D14FF0000817E044E0DFF8AC8004
:100E3000404502D14FF001080FE0DFF8A4804045A3
:100E400002D14FF0020808E0DFF89880404502D157
:100E50004FF0030801E04FF0040808FA06F848EAEA
:100E60000508CCF808804D68D9F80060ED024D46C1
:100E700001D5164300E096432E604D68DAF8006015
:100E8000AD02554601D5164300E096432E604D68ED
:100E9000DBF80060AD035D4601D5164300E09643E4
:100EA0002E604D68DEF80060ED03754601D51643EF
:100EB00000E096432E60641C0D682A46E5407FF4EE
:100EC00031AFBDE8F88F00000804014000001110A8
:100ED000001002400000014000080140000C0140E9
:100EE0000010014000140140C26821EA02030A40D8
:100EF00043EA0241016170470AB101617047090488
:100F0000FBE70000014880687047000008000020EF
:100F1000024881680278114481607047080000200F
:100F2000074810B5016841F010010160032000F08E
:100F300063F80F2000F006F800F024F8002010BD40
:100F40000020024070B50D4D04464FF47A712878A8
:100F5000B1FBF0F00A490968B1FBF0F000F0CAFA01
:100F600048B9102C07D200222146501E00F024F868
:100F700000206C6070BD012070BD000008000020E2
:100F8000140000200B4882B0816941F001018161A9
:100F9000816901F001010091C16941F08051C16195
:100FA000C069002200F0805000900F21901E02B016
:100FB00000F002B800100240F0B40E4B1B680C4663
:100FC000C3F30223C3F10705042D00D90425191D1D
:100FD000072901D2002300E0DB1E012606FA05F1F5
:100FE000491E214099409E40761E16403143F0BC78
:100FF00000F01EBC0CED00E0064900F00702086896
:101000004FF6FF03184040EA0220034A10430860ED
:10101000704700000CED00E00000FA052DE9F047F4
:101020000F46050061D0434E306800F00700B8421B
:1010300009D2306820F0070038433060306800F093
:101040000700B84251D128683B4C810712D54007B0
:1010500003D5606840F4E06060602878000703D53D
:10106000606840F4605060606068A96820F0F0003B
:10107000084360602878C00728D06868012810D02D
:101080002168022810D0890700292EDA616821F032
:10109000030101436160FFF735FF804641F2883963
:1010A0000DE021688903EFE78901EDE7FFF72AFFEB
:1010B000A0EB0801494502D90320BDE8F08760682C
:1010C000696800F00C00B0EB810FEFD1306800F0E0
:1010D0000700B8420BD9306820F007003843306071
:1010E000306800F00700B84201D00120E5E7287819
:1010F000400705D56068E96820F4E0600843606057
:101100002878000706D56068296920F4605040EA15
:10111000C100606000F038F86168084AC1F303114B
:10112000515CC8400649086006480068FFF70AFF9E
:101130000020C2E70020024000100240A623000861
:10114000140000200C00002004480549006849688C
:10115000044AC1F30221515CC840704714000020CA
:1011600000100240B6230008044805490068496899
:10117000044AC1F3C221515CC840704714000020EA
:1011800000100240B62300080E4A51680E4801F0D4
:101190000C03042B11D0082B0FD10C48C1F383434F
:1011A000C903C05C0AD55168084AC1F34041921E88
:1011B000515C054A5043B0FBF1F070470449484385
:1011C000704700000010024000127A0096230008C9
:1011D00000093D002DE9F84F040070D02078C04D83
:1011E000C00749D06868C0F38100012807D068684B
:1011F000C0F38100022809D16868C00306D52868B9
:10120000800339D560680028E7D035E06068B0F524
:10121000803F0BD010B1B0F5A02F11D0286820F47A
:1012200080302860286820F4802002E0286840F49C
:1012300080302860606890B1FFF764FE06460AE0DF
:10124000286840F480202860F0E700BFFFF75AFECE
:10125000801B642873D828688003F7D50CE0FFF75B
:1012600051FE064605E000BFFFF74CFE801B6428D8
:10127000F0D828688003F7D420789A4E80074FF082
:1012800001094FF0000839D5686810F00C0F07D03D
:101290006868C0F38100022809D16868C00306D4D9
:1012A0002868800714D52069012808D110E020693A
:1012B000B0B1C6F80090FFF725FE074605E00AE149
:1012C000FFF720FEC01B0228C4D828688007F7D586
:1012D0002868616920F0F80040EAC10028600DE04C
:1012E000C6F80080FFF70EFE074604E0FFF70AFE8F
:1012F000C01B022823D828688007F7D4207800076D
:101300002CD57948A169D9B1C0F80090FFF7FAFD52
:10131000074604E0FFF7F6FDC01B02280FD8686AF5
:101320008007F7D571484FF4FA510068B0FBF1F02F
:10133000009000BF0098411E0091FAD20EE080E0BC
:10134000C0F80080FFF7DEFD074604E0FFF7DAFD96
:10135000C01B022875D8686A8007F7D42078400738
:1013600060D5E8690027C00008D4E86940F08050E3
:10137000E861E869012700F0805000905C4801684E
:10138000C90513D40168834641F480710160FFF7F9
:10139000B9FD824606E000BFFFF7B4FDA0EB0A00EE
:1013A00064284ED8DBF80000C005F5D5E0680128B8
:1013B0000AD008B1052813D0286A20F0010028625D
:1013C000286A20F0040002E0286A40F00100286248
:1013D000E06841F2883B98B1FFF794FD82460BE04C
:1013E000286A40F004002862EEE700BFFFF78AFD9C
:1013F000A0EB0A0159455AD8286A8007F6D50CE0B7
:10140000FFF780FD824605E0FFF77CFDA0EB0A01B7
:1014100059454CD8286A8007F6D41FB1E86920F0F6
:101420008050E861E06988B36968C1F381010229ED
:1014300044D00228C6F8608004D0FFF763FD04465C
:1014400038E034E0FFF75EFD074604E0FFF75AFDA1
:10145000C01B02282BD828688001F7D4206AB0F579
:10146000803F05D16868A16820F4003008436860B7
:10147000D4E908010843696821F4741108436860DD
:10148000C6F86090FFF73EFD044606E025E000BF89
:10149000FFF738FD001B022809D828688001F7D51E
:1014A0001BE000BFFFF72EFD001B022802D903201E
:1014B000BDE8F88F28688001F4D40EE00128F7D049
:1014C0006868226A00F48031914204D1616A00F4B4
:1014D0007010884201D00120EAE70020E8E7000010
:1014E00000100240000042428004424214000020EA
:1014F0000070004010B5401EB0F1807F01D3012084
:1015000010BD4FF0E02460610F21601700F090F9EA
:101510000020A06107202061002010BD70B50400EC
:1015200004D094F84100002510B106E0012070BD00
:1015300084F84050204600F023F8242084F841002D
:101540002068C16821F40051C160204600F0DAF83B
:101550002068016921F4904101612068416921F00E
:101560002A0141612068C16841F40051C16065648D
:10157000202084F8410084F842006563002070BD9B
:1015800070472DE9F843044690F841009846164606
:101590000D46202802D00220BDE8F88385B17EB137
:1015A00000206064212084F84100FFF7ABFCA68492
:1015B0008146E684A0682027B0F5805F02D003E072
:1015C0000120E9E7206910B12E4600250EE0002633
:1015D0000CE08021204600F0F1F8A8B9C6B116F859
:1015E000010B21684860E08C401EE084E08C4B4693
:1015F0004FF00002CDF800800028EAD14FF0400102
:10160000204600F0DBF840B184F841700320C3E7C6
:1016100035F8020BC0F30800E3E784F841700020BE
:10162000BAE7FEE7FEE7FEE704462046FFF702FBC7
:10163000FBE704462046FFF705FBFBE710B5FFF785
:1016400067FC00F0B5FD012803D0BDE8104000F0B4
:1016500041BD10BD30B58FB028216846FEF746FE6B
:1016600014210AA8FEF742FE01210804CDE900106A
:101670000024029402250491CDE907504FF4E010B4
:1016800009906846FFF7A6FD08B172B6FEE70F2085
:10169000CDE90A054FF48060CDE90C4002210AA88B
:1016A0000E94FFF7BBFC002801D072B6FEE70FB026
:1016B00030BD704701680C3151E8002F22F4907260
:1016C00041E80023002BF5D10168143151E8002FC7
:1016D00022F0010241E80023002BF5D1016B012922
:1016E00009D101680C3151E8002F22F0100241E8C5
:1016F0000023002BF5D1202180F842100021016346
:101700007047000070B5044600680169E26821F482
:101710004051114301612169A06808436169084390
:101720002168CA6841F20C639A430243CA60206888
:101730004169A26921F44071114341611E49206849
:10174000884202D1FFF710FD01E0FFF7FDFC00EB3E
:10175000C00101EB0012606864218000B2FBF0F36D
:10176000B3FBF1F36FF018067343B2FBF0F5B2FB75
:10177000F0F605EB8305322303EB0515B5FBF1F518
:10178000B6FBF1F605F0F00505EB0615B2FBF0F639
:10179000B2FBF0F0B0FBF1F06FF01802504306EB33
:1017A000800003EB0010B0FBF1F0216800F00F00A7
:1017B0002844886070BD0000003801402DE9F843DE
:1017C000984617460D460446089E24E0701C22D019
:1017D000FFF798FBA0EB0800B0421AD8CEB1206802
:1017E000C168490717D5802D15D0402D13D0016849
:1017F000C94309070FD401680025406800902046BE
:10180000FFF758FF0820606484F840500120BDE8CD
:10181000F8830320FBE72068006835EA000004D065
:101820000020B842D2D00020F1E70120F9E7FEE71E
:101830000907090E002804DB00F1E02080F80014FD
:10184000704700F00F0000F1E02080F8141D704791
:1018500013B50523012269460248FFF792FE00985E
:101860001CBD00008C0000208EB0FFF759FBFFF775
:10187000F1FEFFF7FDF9FFF727FA1C220B49684636
:10188000FEF702FD0021684600F026F8084C0749E3
:101890001C2220601C3107A8FEF7F6FC002107A8D7
:1018A00000F01AF8606000F012F8FEE75C23000810
:1018B0000000002001460020842900D0C81C704789
:1018C00010B500B9012000F01FFB002010BD10B5BD
:1018D00000F040FB002010BD7FB50D460446416975
:1018E000B0F9080081B1A16971B1FFF7E3FFD4E954
:1018F00005128DE80700D4E900102B46226900F09C
:101900002CFC039004B070BDFFF7D4FF03A9CDE910
:101910000001208A2B4682B2D4E9001000F0F0FBCF
:10192000012801D00020EDE70398EBE72DE9F04115
:10193000184C0F460546E6682068001D00F01CFAAA
:1019400038B9206890F82C10012088402169814323
:101950002161681C07D137B12168BDE8F0410E480C
:10196000091D00F04DBA20683544B5424560216834
:1019700005D2A06BBDE8F041091D00F029BA606BEB
:10198000091D00F025FAA06A854200D2A562BDE8D3
:10199000F081000018000020040400202DE9F0412F
:1019A000054600F039FA2E4CA068401CA060206863
:1019B0002C4F10B1606940B32DE02560A06801286C
:1019C00029D1002606EB860007EB800000F0F2F933
:1019D000761C072EF6D323488C3000F0EBF9214813
:1019E000A03000F0E7F91F48B43000F0E3F91D48DB
:1019F000C83000F0DFF91B48DC3000F0DBF9194893
:101A00008C3060631430A06305E02068E96AC06A26
:101A1000884200D82560606A401C6062E96A012043
:101A2000226988401043206101EB810007EB8000B0
:101A3000291D00F0E5F900F00FFA606900280CD0CC
:101A40002068E96AC06A884207D207494FF080508F
:101A50000860BFF34F8FBFF36F8FBDE8F0810000C8
:101A6000180000202803002004ED00E010B5044613
:101A700090F8510058B101280CD002280FD0502006
:101A800080F31188BFF34F8FBFF36F8FFEE7206B9A
:101A900000F0F6F92046BDE8104000F0F1B910BDA5
:101AA00010484FF42051420706D0C01D0D4920F0C8
:101AB0000700411AC1F520510B4A00230144C2E935
:101AC00000030839183A21F0070111604B600B60E0
:101AD0000B1AC0E9001393604FF00040536050614F
:101AE00070470000180400206C000020144E154CB4
:101AF000A6F1C8074FF08058DFF84C9012E000BF05
:101B000000F08AF9F068C568281D00F035F9A06872
:101B1000401EA0606068401E606000F09DF928468D
:101B2000FFF7A4FF60680028EAD138680128F9D9D6
:101B3000C9F80080BFF34F8FBFF36F8FF2E700004B
:101B4000F00300201800002004ED00E02DE9F0472C
:101B50009A46DDE9098481466FF00303206B03EBAD
:101B600082021044089E20F00707780707D0502013
:101B700080F31188BFF34F8FBFF36F8FFEE700250F
:101B800061B1002023180A5C83F834200A5C12B18A
:101B9000401C1028F6D384F8435001E084F83450F8
:101BA000072E00D30626E662C4E91165201D00F069
:101BB0000CF904F1180000F008F92461C6F10700DF
:101BC0006462A061E56484F8505052464946384644
:101BD00000F0C0F82060B8F1000F01D0C8F8004054
:101BE000BDE8F08730B5114900E011460A6882422D
:101BF000FBD34B685C18844203D1406818444860AA
:101C0000084643681C18944209D1084C183C2468C3
:101C1000A24209D052681A4442600A6812680260FF
:101C2000814200D0086030BD0460F9E76C000020FC
:101C30000648416B096829B1416BC968C9684968A0
:101C4000816270474FF0FF31FAE700001800002072
:101C500008484068401C4FF0500080F3118804D0C1
:101C6000BFF34F8FBFF36F8FFEE7BFF34F8FBFF30D
:101C70006F8FFEE7740000202DE9F0410546002734
:101C800000F09EF9324E306808B9FFF709FF70691D
:101C900005424ED1C5B3083568070ED005F00700E0
:101CA000C0F108000544680707D0502080F3118870
:101CB000BFF34F8FBFF36F8FFEE72DB37068854280
:101CC00037D82348183001460C6801E020460C46FE
:101CD0006168A94202D221680029F7D131688C429B
:101CE00027D007682168016060680837411B102908
:101CF0000FD96019420708D0502080F31188BFF334
:101D00004F8FBFF36F8FFEE713E041606560FFF711
:101D100069FF61687068401A7060B268904200D2D2
:101D2000B060706901430020C4E90001F068401C04
:101D3000F06000F0B1FA780707D0502080F31188E6
:101D4000BFF34F8FBFF36F8FFEE73846BDE8F081DA
:101D50005400002010B5031F4FF080741C601B1F3F
:101D600021F001011960191F024B0B601439403832
:101D70000A6010BD511C0008D0E9013201699A6067
:101D8000D0E901235A604A68824201D182684A60E0
:101D9000002202610868401E086008687047000061
:101DA000034B036003F1540008608020106070470B
:101DB000D400002000F108014FF0FF32C0E9011209
:101DC000C16001610021016070470021016170471D
:101DD00030B50B685A1C02D000F1080202E002691B
:101DE00004E02246546825689D42FAD953684B6046
:101DF00099608A60516008610168491C016030BDCA
:101E000042684A6093688B6093685960916008618A
:101E10000168491C01607047502080F31188BFF3AE
:101E20004F8FBFF36F8F0A494868401C48600128F4
:101E30000CD10848006810F0FF0F07D0502080F345
:101E40001188BFF34F8FBFF36F8FFEE7704700001D
:101E50007400002004ED00E00849486828B1401EE5
:101E6000486001D180F311887047502080F31188B9
:101E7000BFF34F8FBFF36F8FFEE7000074000020A9
:101E800070B500282AD0164DA0F108046068696971
:101E9000084207D1502080F31188BFF34F8FBFF362
:101EA0006F8FFEE722683AB1502080F31188BFF3AC
:101EB0004F8FBFF36F8FFEE78843606000F080F8BC
:101EC00060686968084468602046FFF78BFE2869EF
:101ED000401C2861BDE8704000F0DEB970BD000014
:101EE000540000204FF0E02000210161816105498C
:101EF0004FF47A720968B1FBF2F1491E4161072182
:101F0000016170471400002010B5020014D00F4882
:101F1000006B38B1502080F31188BFF34F8FBFF3AF
:101F20006F8FFEE700F04CF800211046FFF7FEFC33
:101F300000F0B2F9002807D105494FF08050086041
:101F4000BFF34F8FBFF36F8F10BD0000180000204C
:101F500004ED00E010B586B00024039405AA04A99E
:101F600003A80494FFF71CFFDDE903010094CDE909
:101F7000011000230EA11048059A00F0EEF80F4959
:101F80000028C86211D0502080F31188BFF34F8F12
:101F9000BFF36F8F4FF0FF30886201204861CC6043
:101FA00006B0BDE8104000F041B806B010BD00001A
:101FB00049444C4500000000ED1A000818000020BC
:101FC0000248016B491C01637047000018000020A3
:101FD0001448016B11B10121C16170470021C16139
:101FE0000169B1FA81F1C1F11F0101EB81020E49D2
:101FF00051F822306BB101EB820101F108034A680C
:1020000052684A609A4201D152684A60D1680160C0
:102010007047502080F31188BFF34F8FBFF36F8F4D
:10202000FEE7000018000020280300201CB5264908
:1020300008780190FF20087008788DF800009DF85E
:1020400000009DF8002000F0F000904207D05020E2
:1020500080F31188BFF34F8FBFF36F8FFEE79DF8BA
:1020600000001A4C00F0500020700720A06005E02E
:102070009DF8002052008DF80020401E9DF80020A1
:102080001206F5D4A060032807D0502080F31188F1
:10209000BFF34F8FBFF36F8FFEE74FF44070A06028
:1020A000019808700A48016841F4700101600168F4
:1020B00041F070410160FFF715FF00206060FEF7FE
:1020C0007DF800201CBD000000E400E0740000204A
:1020D00020ED00E010B5502080F31188BFF34F8F42
:1020E000BFF36F8F00F072F818B104494FF08050C1
:1020F0000860002080F3118810BD000004ED00E0AE
:102100002DE9FF5F8346DDE90E87994616468A462C
:102110009000FFF7B1FD05001CD05420FFF7ACFD87
:10212000040014D00020256384F85100CDE902405A
:10213000CDE900874B46324651465846FFF706FD2B
:102140002046FFF72BFC012004B0BDE8F09F284695
:10215000FFF796FE4FF0FF30F6E7F0B585B0DDE90A
:102160000B640A9DA6B1DCB15427009726630226B2
:1021700084F85160002604AFCDE90246CDE900574E
:10218000FFF7E4FC2046FFF709FC049805B0F0BD1A
:10219000502080F31188BFF34F8FBFF36F8FFEE79E
:1021A000502080F31188BFF34F8FBFF36F8FFEE78E
:1021B0000548416919B1006B18B100207047012032
:1021C0007047022070470000180000202DE9F04100
:1021D0002F4C0026206B28B1A069401CA06130461E
:1021E000BDE8F081E5686D1CE56013D1606B0068A7
:1021F00038B1502080F31188BFF34F8FBFF36F8F3A
:10220000FEE7606BA16B6163A063206A401C2062E3
:10221000FFF70EFDA06ADFF87C80854209D3606B72
:102220000068A0B1606BC068C7687868854211D249
:10223000A0622068C06A00EB800158F821000128E4
:1022400000D90126E0690028C9D00126C7E74FF070
:10225000FF30EDE7381DFFF78FFDB86A18B107F1C1
:102260001800FFF789FDF96A0120226988401043B0
:10227000206101EB810108EB8100391DFFF7C0FDF2
:10228000F86A2168C96A8842C9D30126C7E70000F5
:1022900018000020280300202DE9F0472C4D0024D1
:1022A0002746286B38B1FFF7B7FD286B401E28631F
:1022B000286B40B146E0502080F31188BFF34F8F68
:1022C000BFF36F8FFEE7A968224E0120D1B3A6F1BC
:1022D000B40980463068E8B1F068C46804F11800B9
:1022E000FFF74AFD201DFFF747FDE06A2A6908FA5B
:1022F00000F11143296100EB800109EB8100211DF0
:10230000FFF77EFDE06A2968C96A8842E2D3C5F812
:102310001C80DFE70CB1FFF78BFCAC6944B146468B
:10232000FFF754FF00B1EE61641EF9D10020A861EF
:10233000E86938B10849012738070860BFF34F8FB3
:10234000BFF36F8FFFF788FD3846BDE8F0870000C8
:1023500018000020DC03002004ED00E0CC2300087E
:1023600029160008FEFF00000000000080000000A9
:102370000000000000000000D82300083316000809
:10238000000000000000000000010000000000004C
:1023900000000000010202030405060708090A0BF9
:1023A0000C0D0E0F101000000000000000000102D4
:1023B00003040607080900000000010203043A7440
:1023C00074003A7474003A74740000004C45445F21
:1023D0005461736B00000000554152545F546173A7
:1023E0006B00000004240008000000208C000000A6
:1023F00028010008902400088C000020EC34000024
:10240000440100080000000000000000010000007E
:10241000100000000000000000127A000000000020
:1024200000000000000000000000000000000000AC
:10243000000000000000000000000000000000009C
:10244000000000000000000000000000000000008C
:10245000000000000000000000000000000000007C
:10246000000000000000000000000000000000006C
:10247000000000000000000000000000AAAAAAAAB4
:10248000000000000000000000000000000000004C
:04000005080000ED02
:00000001FF
