:020000040800F2
:10000000B8390020350200089D240008E1210008CD
:100010001D220008C50D0008E52F000800000000A3
:100020000000000000000000000000009D0100082A
:10003000410E000800000000E10100085D250008F5
:100040004F0200084F0200084F0200084F0200084C
:100050004F0200084F0200084F0200084F0200083C
:100060004F0200084F0200084F0200084F0200082C
:100070004F0200084F0200084F0200084F0200081C
:100080004F0200084F0200084F0200084F0200080C
:100090004F0200084F0200084F0200084F020008FC
:1000A0004F0200084F0200084F0200084F020008EC
:1000B0004F0200084F0200084F0200084F020008DC
:1000C0004F0200084F0200084F0200084F020008CC
:1000D0004F020008DD2F00084F0200084F02000801
:1000E0004F0200084F0200084F02000800F002F81B
:1000F00000F045F80AA090E8000C82448344AAF17D
:100100000107DA4501D100F03AF8AFF2090EBAE87A
:100110000F0013F0010F18BFFB1A43F0010318473B
:10012000B04E0000D04E0000103A24BF78C878C10D
:10013000FAD8520724BF30C830C144BF04680C60ED
:10014000704700000023002400250026103A28BF35
:1001500078C1FBD8520728BF30C148BF0B60704739
:10016000642900F00181752900F0FE80732900F0F8
:10017000D082002070471FB51FBD10B510BD00F024
:10018000EEFA1146FFF7F7FF02F068FF00F00CFBF4
:1001900003B4FFF7F2FF03BC00F010FB224B196819
:1001A0000868B0E8F00F80F30988BFF36F8F4FF055
:1001B000000080F311884EF00D0E70470000000023
:1001C00006480068006880F3088862B661B6BFF32D
:1001D0004F8FBFF36F8F00DF00BF00BF08ED00E05F
:1001E000EFF30980BFF36F8F0F4B1A6820E9F00F10
:1001F000106008B54FF0500080F31188BFF34F8FA7
:10020000BFF36F8F03F016FF4FF0000080F31188EB
:10021000BDE8084019680868B0E8F00F80F3098865
:10022000BFF36F8F704700BF10000020EFF3058011
:10023000704700000948804709480047FEE7FEE78D
:10024000FEE7FEE7FEE7FEE7FEE7FEE7FEE7FEE786
:1002500004480549054A064B70470000D7250008A9
:10026000ED000008B8310020B8390020B835002072
:10027000B83500200FB47CB50C0009AA009001D05D
:100280002044401E084B7B4469460190089800F0CA
:100290000EFA05461CB10020694600F01BFA2846FC
:1002A0007CBC5DF814FB0000550400002DE9F04112
:1002B0000E460446002020622046E168884730B39D
:1002C000252805D0D4E901219047206A401CF2E797
:1002D000E168204600278847050018D0A5F14100B5
:1002E000192802D820354FF40067324629462046A7
:1002F0002760FFF735FF40B1012804D0F61D26F036
:1003000007060836D8E7361DD6E72846DAE7206A1A
:10031000BDE8F08170B50C460546012A05D0287865
:10032000800600D5EA69002302E0012305E05B1C9A
:10033000934202D2E05C0028F9D1A869E618C01AFD
:10034000A861286A184428622846AFF3008004E0B8
:10035000D5E9012114F8010B9047B442F8D328469F
:10036000AFF3008070BD00002DE9F0410646002487
:1003700010687529314616A510D0AFF3008000280B
:1003800002DA404213A507E031688A0701D512A5B9
:1003900002E0490704D511A5012401E0AFF3008074
:1003A00000210A2206F1240709E0B0FBF2FCB0FBB1
:1003B000F2F302FB1C00303078541846491C002828
:1003C000F3D123462A463046BDE8F04100F011B98A
:1003D000000000002D0000002B00000020000000A5
:1003E00010B5431C02E010F8011B71B18107FAD16E
:1003F0004FF0013202C88C1A8C4314EAC211F9D0B2
:10040000C01A0A0603D0C01E10BDC01A10BD0A04CF
:1004100001D0801E10BD0902FCD0401E10BD032A71
:1004200040F2308010F0030C00F0158011F8013B11
:10043000BCF1020F624498BF11F801CB00F8013BF8
:1004400038BF11F8013BA2F1040298BF00F801CBBC
:1004500038BF00F8013B11F0030300F02580083A93
:10046000C0F0088051F8043B083A51F804CBA0E8EA
:100470000810F5E7121D5CBF51F8043B40F8043B3F
:10048000AFF30080D20724BF11F8013B11F801CB74
:1004900048BF11F8012B24BF00F8013B00F801CB45
:1004A00048BF00F8012B704710B5203AC0F00B8010
:1004B000B1E81850203AA0E81850B1E81850A0E868
:1004C0001850BFF4F5AF5FEA027C24BFB1E81850C2
:1004D000A0E8185044BF18C918C0BDE810405FEA32
:1004E000827C24BF51F8043B40F8043B08BF7047AE
:1004F000D20728BF31F8023B48BF11F8012B28BFB3
:1005000020F8023B48BF00F8012B704702F0FF03C0
:1005100043EA032242EA024200F001B94FF000022E
:1005200000B5134694469646203922BFA0E80C50E9
:10053000A0E80C50B1F12001BFF4F7AF090728BFC4
:10054000A0E80C5048BF0CC05DF804EB890028BF40
:1005500040F8042B08BF704748BF20F8022B11F069
:10056000804F18BF00F8012B704700004FF0013C8E
:1005700050F8042B51F8043B9A4221D1A2EB0C0312
:10058000934313EACC1317D150F8042B51F8043BD2
:100590009A4215D1A2EB0C03934313EACC130BD16F
:1005A00050F8042B51F8043B9A4209D1A2EB0C03FA
:1005B000934313EACC13DBD04FF00000704700BF29
:1005C000D01A01BAB1FA81F101F0180122FA01F052
:1005D000CB40C1F12001DBB2C0B2C01A2CFA01F34A
:1005E000D11A914311EAC311E6D1704770477047A1
:1005F00070472DE9F0470D4699469246044600F1B2
:1006000024080168880604D5E06921F01001216002
:1006100000E00120A84201DD471B00E00027A1699E
:100620007A1902EB0900081AA0612078C00602D4EA
:100630002046AFF30080002608E0D4E901211AF833
:1006400006009047206A401C761C20624E45F4DB71
:100650002078C0060AD52046AFF3008006E0D4E932
:10066000012130209047206A401C2062381EA7F1EB
:100670000107F4DC07E0D4E9012118F805009047F0
:10068000206A401C2062281EA5F10105F3DC2046EB
:10069000AFF300802078000602D50220BDE8F08785
:1006A0000120FBE701694A1C02610878704700B528
:1006B0008FB0CDE901310021059105497944CDE99B
:1006C000031011466846FFF7F1FD0FB000BD0000B2
:1006D000E5FFFFFF0A6802F8010B0A607047D1E9E5
:1006E00000239A4202D2531C0B601070704710B561
:1006F000436913B1AFF3008001E0FFF70BFE012067
:1007000010BD127800F124010A7000224A70012203
:10071000EDE711684FF0FF32E9E74FF000020429DE
:10072000C0F0128010F0030C3FF4FAAECCF1040CD0
:10073000BCF1020F18BF00F8012BA8BF20F8022B54
:10074000A1EB0C01FFF7ECBE5FEAC17C24BF00F80F
:10075000012B00F8012B48BF00F8012B70477546AC
:1007600000F028F8AE4605006946534620F0070021
:10077000854618B020B5FFF76BFDBDE820404FF06F
:1007800000064FF000074FF000084FF0000B21F07B
:100790000701AC46ACE8C009ACE8C009ACE8C00948
:1007A000ACE8C0098D4670470446AFF30080204690
:1007B000FFF7EEFC00487047543100200149182033
:1007C000ABBEFEE7260002007047000000B585B012
:1007D0000020019002900390049000BF10488069AF
:1007E00040F010000E4988610846806900F0100052
:1007F000009000BF00BF4FF4005001900120029014
:10080000002003900220049001A9064800F004FC97
:1008100001225103034800F099FD05B000BD00001E
:10082000001002400010014010B50122510302489F
:1008300000F08CFD10BD00000010014010B500223A
:100840004FF40051014800F081FD10BD001001403F
:1008500010B54FF40051024800F06EFD10BD0000CD
:1008600000100140F8B50446002500262068006805
:10087000C0F3C00030B129480068401C2749086017
:100880000125012620680068C0F3400028B12448F3
:100890000068401C22490860012520680068C0F3F8
:1008A000800028B11F480068401C1E4908600125CF
:1008B0002068006800F0010028B11B480068401C57
:1008C0001949086001251DB9002018490860F8BDC4
:1008D00017480068401C1649086014480068401C0E
:1008E0001249086000BF0020009020680068009056
:1008F00020684068009000BF00BF1EB9084600682D
:10090000032801D300F0DEF900F01AFA20B96722BB
:1009100008A1022000F096FA00BFD8E78C00002062
:100920009000002094000020980000209C000020EF
:10093000840000202E2E5C4273705C5372635C75E1
:100940006172742E6300000008B5264800680068D4
:10095000C0F3001098B100BF00200090214800684B
:10096000006800901F4800684068009000BF00BF0A
:100970001D480088002802DD01201C4908701C4821
:10098000007800B31B480068401C1A4908600846FC
:100990000068082816D318480068401C16490860EB
:1009A00000BF002000900F480068006800900D48CC
:1009B00000684068009000BF00BF00F083F900208D
:1009C0000C49086008BD012009490870054801F07C
:1009D00077F90020064908700248FFF743FF00BF7F
:1009E000F0E700001C2C0020800000208200002086
:1009F000A4000020A00000208400002000B585B0E5
:100A000000BF3A48806940F4804038498861084610
:100A1000806900F48040009000BF00BF00BF08461E
:100A2000806940F0040088610846806900F0040095
:100A3000009000BF00BF002001900290039004903E
:100A4000481501900220029000200390032004909A
:100A500001A9274800F0E0FA4FF4806001900020DF
:100A60000290012003900320049001A9204800F087
:100A7000D3FA2048204908604FF4E1304860002153
:100A80001D488160C16001610C21416100218161CB
:100A9000C16101F087FA08B100F01AFA00220521BD
:100AA000252000F0D9FC252000F0C6FC1248006883
:100AB000C06840F0100010490968C86000200F4964
:100AC00008800F4908700F49087000F04BF958B9B9
:100AD0000D480068401C0C490860BE220BA1022092
:100AE00000F0B0F900F0F4F905B000BD00100240CC
:100AF00000080140003801401C2C0020800000202C
:100B00008200002083000020840000202E2E5C4202
:100B100073705C5372635C756172742E63000000C5
:100B200010B500F073F80148007810BD8200002075
:100B30002DE9F05F05460C4600260027B046B14679
:100B4000B24600F063F805B114B90020BDE8F09F8B
:100B500072B623480078A0B1224806882248D0F80F
:100B600000802248D0F800901F48C0F800901F482D
:100B7000C0F8008000201B490880194908704FF018
:100B8000010A62B65EB1A64201DA304600E02046B4
:100B900007463A46154801682846FFF740FCBAF177
:100BA000000F1BD000F094F88346BBF1000F14D166
:100BB00001200F49087000F0CFFB0E490968401A68
:100BC000B0F57A7F09D300F0C7FB0A4908604FF4FB
:100BD000B47209A1022000F035F900BF3846B5E72C
:100BE0008200002080000020780000207C0000208F
:100BF00083000020B40000202E2E5C4273705C53F2
:100C000072635C756172742E6300000010B5204839
:100C1000007800B910BD00F09FFB1E490968401A1A
:100C2000052800D2F6E700F097FB1A49086072B673
:100C3000002017490870184908801849087062B6E2
:100C400017480068144A128881180122154801F0DB
:100C5000E5F90446D4B101200D490870022C15D0E5
:100C600011480068401C1049086000F075FB0F49EE
:100C70000968401AB0F57A7F08D300F06DFB0B4984
:100C8000086085220AA1022000F0DCF800BFC1E75D
:100C900083000020AC0000208000002082000020A3
:100CA000780000201C2C002084000020B0000020D0
:100CB0002E2E5C4273705C5372635C756172742E8D
:100CC0006300000001200149087070478300002084
:100CD00010B5084800F083FF04461CB1022C01D077
:100CE000002010BD0020044908800449087000F06D
:100CF00039F8F6E71C2C002080000020820000203C
:100D00002DE9F04104460D46164600278CB185B109
:100D100001200949087033462A462146074801F058
:100D2000FFF908B9012000E0002007460020024931
:100D300008703846BDE8F081A50000201C2C00207A
:100D400010B500F009FB044605480068201AB0F50C
:100D50007A7F03D302480460002010BD0120FCE725
:100D6000A800002010B507480068074A12888118BB
:100D70000122064801F052F908B9012010BD0020F7
:100D8000FCE7000078000020800000201C2C0020E0
:100D900070B5044600250AE0FFF750FD074800F053
:100DA00029F8FFF741FD054800F024F86D1CA54225
:100DB000F2D3034800F01EF870BD0000605B030032
:100DC00010EB09007B2204A1082000F03BF808206A
:100DD00001F0B2FC00BFFEE72E2E2F436F72652F8D
:100DE0005372632F73746D3332663178785F697430
:100DF0002E63000001B500E000BF0098411E009185
:100E00000028F9D108BD30B502460B464FF6FF70F9
:100E1000002112E0545C604000240AE000F001056B
:100E200025B140104AF20105684000E04010651C01
:100E3000ECB2082CF2D34C1CA1B29942EADB30BDD3
:100E4000704700002DE9F0419AB004460E4617465F
:100E50000A2C02D31AB0BDE8F08115480470154879
:100E600050F8240000F10100124941F8240000BFAD
:100E7000EFF3058000B1EDE70EB1304600E00EA0C3
:100E800023460FA26021CDE9000702A8FFF7F2F97F
:100E90000546002D09DD02A8FFF7A2FA1FFA80F827
:100EA0001422414602A801F08FFE00BFD2E70000E5
:100EB000B8000020DC300020756E6B6E6F776E001E
:100EC0004552525B25755D2025733A25640D0A0055
:100ED000182204A10120FFF7B5FF012001F0E8FC72
:100EE00001F0FFFB2E2E5C4170705C5379737465CA
:100EF0006D5C5372635C6572726F725F68616E6481
:100F00006C65722E630000000146002291F82100FA
:100F1000022808D00420886300BF002081F8200048
:100F200000BF012070470868006820F00E000B68C1
:100F300018600868006820F001000B68186091F8DC
:100F4000403001209840CB6B5860012081F821008F
:100F500000BF002081F8200000BF1046E2E700003B
:100F600070B50446002594F82100022803D004201F
:100F7000A063012548E02068006820F00E00216889
:100F800008602068006820F00100216808601F499F
:100F90002068884201D1012026E01C4914312068D4
:100FA000884201D110201FE018492831206888426A
:100FB00001D1801518E015493C312068884201D1E3
:100FC000801411E0114950312068884202D14FF459
:100FD000803009E00D4964312068884202D14FF425
:100FE000801001E04FF08070084908394860012006
:100FF00084F8210000BF002084F8200000BF606B4F
:1010000010B12046616B8847284670BD0800024039
:101010000146886B704700002DE9F847034600221F
:1010200094466EE14FF0010808FA02F4D1F800800E
:1010300008EA0400A0427DD1DFF8DCA2D1F80480E8
:10104000A8EB0A09D0453AD014DCB8F1030F50D010
:1010500009DCB8F1000F31D0B8F1010F1CD0B8F1A4
:10106000020F49D120E0B8F1110F18D0B8F1120FDA
:1010700042D11EE0B9F5881F25D006DCB9F5803FC6
:1010800020D0B9F5801F37D11AE0B9F5001F18D06C
:10109000B9F5041F30D117E0D1F80CC02DE0D1F81C
:1010A0000C8008F1040C28E0D1F80C8008F1080C41
:1010B00023E0D1F80C8008F10C0C1EE000BF00BF4B
:1010C00000BF00BF00BF00BFD1F80880B8F1000F1B
:1010D00002D14FF0040C0BE0D1F80880B8F1010FF9
:1010E00003D14FF0080C1C6102E04FF0080C5C616A
:1010F00003E04FF0000C00E000BF00BFFF2801D864
:10110000984601E003F104084646FF2802D84FEA5A
:10111000820803E0A2F108084FEA88084746D6F89B
:1011200000804FF00F0909FA07F928EA09080CFABC
:1011300007F900E088E048EA0908C6F80080D1F81D
:10114000048008F08058B8F1805F7DD100BFDFF8DF
:10115000CC81D8F8188048F00108DFF8C091C9F8B0
:101160001880C846D8F8188008F00108CDF800802B
:1011700000BF00BF4FEAB9384FEA920958F829502A
:101180004FEA82784FEA18794FF00F0808FA09F809
:1011900025EA0805DFF88881434502D14FF00008B1
:1011A00016E0DFF88081434502D14FF001080FE0DF
:1011B000DFF87481434502D14FF0020808E0DFF800
:1011C0006C81434502D14FF0030801E04FF0040861
:1011D0004FEA82794FEA197908FA09F848EA0505D1
:1011E000DFF84C814FEA920948F82950D1F8048081
:1011F00008F48018B8F5801F0AD1DFF83881D8F8D4
:10120000008048EA0008DFF82C91C9F8008009E066
:10121000DFF82081D8F8008028EA0008DFF8149170
:10122000C9F80080D1F8048008F40018B8F5001F50
:1012300010D1DFF8008108F10408D8F8008048EAEE
:101240000008DFF8F09000E05AE009F10409C9F85D
:1012500000800DE0DFF8DC8008F10408D8F8008099
:1012600028EA0008DFF8CC9009F10409C9F80080E9
:10127000D1F8048008F40038B8F5003F0ED1DFF84B
:10128000B480A8F10408D8F8008048EA0008DFF824
:10129000A490A9F10409C9F800800DE0DFF894805A
:1012A000A8F10408D8F8008028EA0008DFF8849044
:1012B000A9F10409C9F80080D1F8048008F4803845
:1012C000B8F5803F0ED1DFF86C80A8F10808D8F897
:1012D000008048EA0008DFF85C90A9F10809C9F825
:1012E00000800DE0DFF84C80A8F10808D8F80080F5
:1012F00028EA0008DFF83C90A9F10809C9F8008045
:10130000521CD1F8008028FA02F8B8F1000F7FF4DF
:1013100089AEBDE8F88700000000111000100240FF
:1013200000080140000C0140001001400014014081
:10133000080001400804014010B5C26821EA020318
:1013400002EA010443EA0443036110BD0AB10161EA
:1013500001E00B040361704701480068704700001A
:101360000000002003480068034909780844014947
:1013700008607047000000200800002010B50848F1
:10138000006840F0100006490860032000F0A2F851
:101390000F2000F007F800F02BF8002010BD00002F
:1013A0000020024070B504460E4800784FF47A7170
:1013B000B1FBF0F00C490968B1FBF0F5284600F0EC
:1013C000F3FB08B1012070BD102C07D2002221468A
:1013D000501E00F041F80548046001E00120F2E7EA
:1013E0000020F0E7080000200C000020040000208E
:1013F00008B500BF0F48806940F001000D498861C1
:101400000846806900F00100009000BF00BF00BFE7
:101410000846C06940F08050C8610846C06900F0C5
:101420008050009000BF00BF00220F21901E00F0EE
:1014300013F808BD0010024001460846002809DBE9
:1014400000F01F0301229A4043099B0003F1E023AF
:10145000C3F8002100BF70472DE9F05F80460D46BC
:101460001646002701F0D6FD074639462A46334680
:1014700001F00700C0F1070ABAF1040F02D94FF0DA
:10148000040A01E0C0F1070AD14600F1040ABAF1EA
:10149000070F02D24FF0000A01E0A0F1030AD44680
:1014A0004FF0010A0AFA09FAAAF1010A0AEA020A45
:1014B0000AFA0CFA4FF0010B0BFA0CFBABF1010B23
:1014C0000BEA030B4AEA0B042146404601F0AAFD51
:1014D000BDE8F09F00BF00F00702064B19684FF609
:1014E000FF031940044B0B4343EA0221014B1960EF
:1014F00000BF70470CED00E00000FA0570B504462F
:101500000D460CB9012070BD5A48006800F0070074
:10151000A8420ED25748006820F0070028435549DA
:1015200008600846006800F00700A84201D00120CA
:10153000E9E7207800F0020002281DD1207800F0B1
:101540000400042805D14C48406840F4E0604A4952
:101550004860207800F00800082805D14648406817
:1015600040F46050444948604348406820F0F0002F
:10157000A168084340494860207800F0010078B332
:101580006068012806D13C48006800F4003090B93A
:101590000120B8E76068022806D13748006800F0EB
:1015A000007040B90120AEE73348006800F0020047
:1015B00008B90120A7E73048406820F003006168BF
:1015C00008432D494860FFF7C7FE064609E0FFF7CC
:1015D000C3FE801B41F28831884202D9032092E782
:1015E00007E02548406800F00C006168B0EB810F0F
:1015F000EDD12048006800F00700A8420ED91D4830
:10160000006820F0070028431A490860084600686F
:1016100000F00700A84201D0012074E7207800F014
:101620000400042807D11448406820F4E060E16811
:10163000084311494860207800F00800082808D1C4
:101640000D48406820F46050216940EAC1000A4911
:10165000486000F03FF808494968C1F30311074AA0
:10166000515CC8400649086006480068FFF79AFECA
:10167000002048E70020024000100240924F00087E
:101680000C000020040000200148006870470000A2
:101690000C00002000B5FFF7F7FF04494968C1F3CB
:1016A0000221034A515CC84000BD00000010024006
:1016B000A24F000800B5FFF7E7FF04494968C1F3EE
:1016C000C221034A515CC84000BD00000010024026
:1016D000A24F000870B50021002200240023002042
:1016E000134D696801F00C05F5B1042D02D0082DE9
:1016F00019D101E00F4819E00F4DC1F38346AB5DEE
:1017000001F4803555B10A4D6D68C5F340450B4E67
:10171000725D084D5D43B5FBF2F402E0084D03FB3A
:1017200005F4204602E000BF024800BF00BF70BDC4
:101730000010024000127A00804F0008904F00080D
:1017400000093D00F8B504460CB90120F8BD207829
:1017500000F00100002878D0F848406800F00C0044
:1017600004280CD0F548406800F00C00082811D17E
:10177000F248406800F48030B0F5803F0AD1EF486D
:10178000006800F4003000285FD0606800285CD159
:101790000120DBE700BF6068B0F5803F06D1E74875
:1017A000006840F48030E549086028E0606858B976
:1017B000E248006820F48030E0490860084600688C
:1017C00020F4802008601AE06068B0F5A02F0BD1EB
:1017D000DA48006840F48020D8490860084600686C
:1017E00040F4803008600AE0D448006820F480307B
:1017F000D24908600846006820F48020086000BFD5
:10180000606888B1FFF7A8FD054606E0FFF7A4FD74
:10181000401B642801D9032098E7C848006800F4F9
:1018200000300028F2D010E0FFF796FD054606E0F4
:10183000FFF792FD401B642801D9032086E7BF48CB
:10184000006800F400300028F2D1207800F0020097
:10185000022857D1B948406800F00C0050B1B74891
:10186000406800F00C00082818D1B448406800F423
:10187000803098B9B148006800F0020020B12069BA
:10188000012801D0012061E7AC48006820F0F80091
:10189000616940EAC100A949086033E02069E8B104
:1018A0000120A7490860FFF757FD054606E0FFF74E
:1018B00053FD401B022801D9032047E79F480068D9
:1018C00000F002000028F2D09C48006820F0F800E8
:1018D000616940EAC1009949086013E00020984915
:1018E0000860FFF739FD054606E0FFF735FD401BB0
:1018F000022801D9032029E79048006800F002007F
:101900000028F2D1207800F0080008282DD1A06925
:10191000B8B101208B490860FFF71EFD054606E0BF
:10192000FFF71AFD401B022801D903200EE7834868
:10193000406A00F002000028F2D0012000F0B0FD63
:1019400013E000207F490860FFF706FD054606E02A
:10195000FFF702FD401B022801D90320F6E6774875
:10196000406A00F002000028F2D1207800F0040064
:10197000042873D100277148C06900F0805070B905
:1019800000BF6E48C06940F080506C49C86108468D
:10199000C06900F08050009000BF00BF01276A4876
:1019A000006800F48070B0B96748006840F4807047
:1019B00065490860FFF7D0FC054606E0FFF7CCFC60
:1019C000401B642801D90320C0E65F48006800F48A
:1019D00080700028F2D000BFE068012806D1574887
:1019E000006A40F001005549086227E0E06858B9F4
:1019F0005248006A20F00100504908620846006A17
:101A000020F00400086219E0E06805280BD14B487B
:101A1000006A40F00400494908620846006A40F044
:101A2000010008620AE04548006A20F001004349CD
:101A300008620846006A20F00400086200BFE068FF
:101A4000A0B1FFF789FC054609E0FFF785FC401BC4
:101A500041F28831884202D9032077E622E03748F4
:101A6000006A00F002000028EFD012E0FFF774FCDB
:101A7000054608E0FFF770FC401B41F288318842C0
:101A800001D9032062E62D48006A00F00200002818
:101A9000F0D1012F05D12948C06920F08050274995
:101AA000C86100BFE069C8B32448406800F00C007A
:101AB000082860D0E069022848D100202049086643
:101AC000FFF74AFC054606E0FFF746FC401B0228EC
:101AD00001D903203AE61948006800F00070002898
:101AE000F2D1206AB0F5803F07D11448406820F455
:101AF0000030A168084311494860D4E9080108434F
:101B00000E49496821F4741108430C4948600120CA
:101B10000B490866FFF720FC054607E03DE0FFF7AC
:101B20001BFC401B022801D903200FE60348006874
:101B300000F000700028F2D02FE0000000100240FA
:101B400000004242800442420070004000201449DC
:101B50000866FFF701FC054606E0FFF7FDFB401BAA
:101B6000022801D90320F1E50E48006800F000705A
:101B70000028F2D111E0E069012800D1E6E509482A
:101B8000466806F48031206A814204D106F470115F
:101B9000606A814201D00120D8E50020D6E500002E
:101BA000000042420010024070B504462546681EFF
:101BB000B0F1807F01D301200FE0681E4FF0E021DB
:101BC00048610F214FF0FF3001F02CFA00204FF058
:101BD000E021886107200861002070BD704710B5C2
:101BE000044600BF00BF21680C3151E8001F21F4FA
:101BF000907021680C3141E80002002AF3D100BF47
:101C000000BF00BF2168143151E8001F21F001001E
:101C10002168143141E80002002AF3D100BF206B93
:101C200001280ED100BF00BF21680C3151E8001F10
:101C300021F0100021680C3141E80002002AF3D1A4
:101C400000BF2068406900F0400000B300BF00BF43
:101C50002168143151E8001F21F04000216814313F
:101C600041E80002002AF3D100BFE06B78B1002008
:101C7000E16B4863E06BFFF747F940B1E06BFFF7BA
:101C8000C7F9202803D110206064032010BD002074
:101C9000E085202084F842000020206300BFF5E7A3
:101CA00010B504461CB105492068884200D010BD1B
:101CB0002046FEF7D7FD00BFF9E7000000380140DD
:101CC0002DE9F84F0446206805682068C66820683A
:101CD00047694FF00009CA4605F00F09B9F1000F36
:101CE0000AD105F0200038B106F0200020B12046CE
:101CF00000F0DCFFBDE8F88FB9F1000F7BD007F0F2
:101D0000010018B906F49070002874D005F00100A5
:101D100030B106F4807018B1606C40F0010060646E
:101D200005F0040030B107F0010018B1606C40F01C
:101D30000200606405F0020030B107F0010018B144
:101D4000606C40F00400606405F0080048B106F0E3
:101D5000200010B907F0010018B1606C40F00800D5
:101D60006064606C002845D005F0200028B106F0C2
:101D7000200010B1204600F099FF20684069C0F3B0
:101D8000801A606C00F0080010B9BAF1000F2CD076
:101D9000204600F045FF2068406900F0400000B395
:101DA00000BF00BF2168143151E8001F21F040003E
:101DB0002168143141E80002002AF3D100BFE06B32
:101DC00050B17748E16B4863E06BFFF7C9F888B121
:101DD000E06B416B88470DE02046FFF761FF09E0AB
:101DE00009E02046FFF75CFF04E02046FFF758FFBC
:101DF000002060647EE7206B012877D105F0100099
:101E0000002873D006F010000028FAD000BF002090
:101E1000009020680068009020684068009000BF33
:101E200000BF2068406900F0400000285FD0E06BF0
:101E3000006840681FFA80F8B8F1000F55D0A08DF7
:101E4000404552DDA4F82E80E06B8069202843D005
:101E500000BF00BF21680C3151E8001F21F48070E1
:101E600021680C3141E80002002AF3D100BF00BF15
:101E700000BF2168143151E8001F21F001002168E2
:101E8000143141E80002002AF3D100BF00BF00BFB7
:101E90002168143151E8001F21F0400021681431FD
:101EA00041E80002002AF3D100BF202084F842005C
:101EB0000020206300BF00BF21680C3151E8001FE3
:101EC00021F0100021680C3141E80002002AF3D112
:101ED00000BFE06BFFF718F802206063A08DE28D71
:101EE000801A81B22046FFF779FE03E742E0A08D19
:101EF000E18D401A1FFA80F8E08DD0B3B8F1000FE1
:101F000037D000BF00BF21680C3151E8001F21F419
:101F1000907021680C3141E80002002AF3D100BF23
:101F200000BF00BF2168143151E8001F21F00100FB
:101F30002168143141E80002002AF3D100BF2020BB
:101F400084F842000020206300BF00BF21680C31EC
:101F500051E8001F21F0100021680C3141E8000217
:101F6000002AF3D100BF0220606341462046FFF7FC
:101F700035FEBFE605F0800030B106F0800018B1F4
:101F8000204600F0B5FFB5E605F0400030B106F0A0
:101F9000400018B1204600F079FEABE600BFA9E68C
:101FA000292B000810B504460CB9012010BDA0690A
:101FB00000B100E000BF94F8410028B9002084F887
:101FC0004000204600F029F8242084F841002068D1
:101FD000C06820F400502168C860204600F0E4FE8C
:101FE0002068006920F490402168086120684069F9
:101FF00020F02A00216848612068C06840F4005041
:102000002168C86000206064202084F8410084F8C2
:1020100042000020606300BFC8E7704770B5044607
:102020000D46164694F8420020280BD105B10EB992
:10203000012070BD0020206332462946204600F072
:1020400031FFF6E70220F4E710B504462D49206879
:10205000884254D12C48007860B12C4800682C4A42
:102060001288811801222046FFF7D8FF08B1FEF739
:1020700029FE10BD2748007860B124480068244A32
:102080001288811801222046FFF7C8FF08B1FEF729
:1020900019FEEEE71E480088FF2829D81C48008852
:1020A000401C1B49088008460088FF2818D817489C
:1020B00000680A461288811801222046FFF7AEFF09
:1020C000E8B194F84200222802D1FEF7FBFD16E0A9
:1020D00011480068401C10490860FEF7F3FD0EE04F
:1020E0000E480068401C0D490860FEF7EBFD06E055
:1020F0000A480068401C09490860FEF7E3FD00BF7C
:10210000B7E700000038014082000020780000207E
:1021100080000020A500002084000020880000200E
:102120002DE9F84F04460E46174699464FF0000A2F
:1021300094F84100202850D106B117B90120BDE81C
:10214000F88F00206064212084F84100FFF704F933
:102150008246A784E784A068B0F5805F04D1206937
:1021600010B90025B04602E035464FF000081EE0E9
:102170005346002280212046CDF8009000F0E8FE72
:1021800020B1202084F841000320D8E745B9B8F8F1
:102190000000C0F308002168486008F1020803E06D
:1021A0002878216848606D1CE08C401EE084E08C3B
:1021B0000028DDD15346002240212046CDF8009072
:1021C00000F0C6FE20B1202084F841000320B6E7CD
:1021D000202084F841000020B1E70220AFE77047DB
:1021E0005B2204A10620FEF72DFE062000F0A4FAD3
:1021F00000BFFEE72E2E2F436F72652F5372632FA1
:1022000073746D3332663178785F69742E630000C1
:102210000120014908707047C90000206B2204A109
:102220000720FEF70FFE072000F086FA00BFFEE74A
:102230002E2E2F436F72652F5372632F73746D337D
:1022400032663178785F69742E6300002DE9F843B7
:1022500080460D4601201D4908700320487068061D
:10226000000E8870002417E00020009008EB0401A5
:1022700088B2694600F0B8F8BDF80000000A0321F2
:1022800001EB4401114A5054BDF80000042101EB58
:1022900044015054601C84B2AC42E5DB032000EBE7
:1022A000450086B231460948FEF7ADFD07460749AD
:1022B0008F55390A054A701C1154B01C81B2052291
:1022C000024800F081FCBDE8F8830000642F002084
:1022D0002DE9F04104460F46082F01D0BDE8F081FA
:1022E000E078A17840EA01266079217940EA012569
:1022F0000DB17D2D04DD0321084600F085F8EDE7E2
:1023000070190A2804D90221032000F07DF8E5E7BE
:1023100029463046FFF79AFF00BFDFE7002017E0AD
:10232000002100EB4002184B23F8221000EB400282
:1023300003EB8202518000EB400203EB8202117139
:10234000124900EB400203EB82029160411C88B20B
:102350000A28E5DB002011E00D4931F8101000EBF0
:102360004002094B23F82210094931F8101000EB04
:10237000400203EB82025180411C88B2052801DA39
:102380000A28E9DB7047000064300020952300082C
:10239000AA4F00087047000038B500224FF4807142
:1023A000104800F0E6FB04460020009004B938BD58
:1023B0006A4621460B4800F044F800B9F7E79DF85B
:1023C0000000032804D121460648FFF781FF05E0FD
:1023D00001219DF8000000F017F800BF00BF00BF0A
:1023E000E5E70000642E0020024609B10A2A01DB5D
:1023F0000020704702EB4200024B33F820000880B7
:102400000120F6E7643000207CB504460D4601202B
:102410008DF8000044F080008DF801008DF8025026
:1024200003216846FEF7EFFC0646F0B28DF8030084
:10243000300A8DF8040005221146684600F0C4FBFE
:102440007CBD2DE9F04104460D46164604B116B98F
:102450000020BDE8F081082D01D20020F9E72078A6
:10246000012801D00020F4E7A81E215C681E205C32
:1024700041EA0028A81E81B22046FEF7C4FC0746A8
:10248000B84501D00020E4E7607830700120E0E733
:102490000120014908707047CA00002000BFFEE714
:1024A00008B508490968C9084FF47A72B1FBF2F11E
:1024B0004143009100BF00BF00994A1E00920029CD
:1024C000F9D108BD0C00002010B5044600200949D0
:1024D000087005E0FEF7BCF94FF4FA7000F0E9FD72
:1024E000044800780028F5D0FEF79EF9002000F09F
:1024F0008AFE10BDC900002070B5054600240020EA
:102500000A49087009E0641CB4F5967F02D300F014
:1025100085F80024642000F0CCFD044800780028F1
:10252000F1D0002000F06FFE70BD0000CA00002056
:1025300010B5044600200849087004E0FFF72CFF9E
:10254000012000F0B6FD044800780028F6D00020F5
:1025500000F059FE10BD0000CB00002010B5FEF7C2
:1025600001FF02F0CBFA012801D001F041FE10BDBD
:1025700000B58FB0282105A8FDF7D0FF14216846CB
:10258000FDF7CCFF01200590000406900020079085
:102590000120099002200C90C1030D914FF4E0112D
:1025A0000E9105A8FFF7CEF808B1FEF791FC0F20B9
:1025B000009002200190002002904FF48060039070
:1025C0000020049002216846FEF798FF08B1FEF74C
:1025D0007FFC0FB000BD704710B50848016808A027
:1025E00000F0E6F80848016808A000F0E1F80848A3
:1025F000016808A000F0DCF810BD0000C000002059
:102600005541525400000000BC0000204C454400DD
:10261000C40000204D6F6E69746F720010B5FFF733
:10262000DBFF10BDF0B587B004460D4616461F46C9
:102630001CB115B10FB1842E02D1002007B0F0BD3E
:102640001C2207496846FDF72FFF00940195ADF85D
:10265000086004970021684600F0A6FDEEE7000040
:10266000B44F000810B500F055FA68B902200849C7
:10267000087008A000F00CF931220EA10520FEF729
:10268000E1FBFEF725FC10BD00F08EF800BFFAE775
:10269000C80000204552523A20696E76616C696428
:1026A0002073797374656D20636F6E6669670D0AB8
:1026B000000000002E2E5C4170705C5379737465CD
:1026C0006D5C5372635C73797374656D5F63747270
:1026D0006C2E630010B5044614B1204600F093FD43
:1026E00010BD72B6FEF7AAF800BFFEE710B50446AB
:1026F0000CB9002010BD0BA12046FDF737FF08B92B
:102700001820F7E708A12046FDF730FF08B9302070
:10271000F0E707A12046FDF729FF08B96020E9E7A7
:102720000020E7E74C4544005541525400000000AA
:102730004D6F6E69746F7200044672B6174804706C
:102740000A2C06D2164850F82400401C144941F8BF
:10275000240022E0201F06281AD2DFE800F0031927
:10276000090D1115FEF76AF80E48FEF743FB13E05A
:102770000120FEF70DFB0FE00220FEF709FB0BE046
:102780000320FEF705FB07E00420FEF701FB03E052
:102790000520FEF7FDFA00BF00BFDBE7B800002010
:1027A000DC300020A0BB0D0010B500F0DDF910BD3D
:1027B000F8B504460D460027002604B9F8BD4DB90A
:1027C000234615A250211E48FDF754FD1C4800F079
:1027D0005FF8F3E7284601F02BF907462046FFF79C
:1027E00085FF0646234617A2502115480097FDF79E
:1027F00041FD134800F04CF85EB1B74209D82346BA
:1028000018A250210E480096FDF734FD0C4800F048
:102810003FF800BFD2E70000257320537461636B5B
:102820002057617465726D61726B3A20696E7661D2
:102830006C69642068616E646C650D0A00000000BC
:1028400004310020257320537461636B2057617439
:1028500065726D61726B3A20257520776F726473B3
:102860000D0A00005741524E3A20257320737461BF
:10287000636B206C6F772077617465726D61726B2A
:10288000203C3D20257520776F7264730D0A00008F
:1028900070B5044604B970BD2046FDF7A1FD85B2B0
:1028A00014222946204600F08FF900BFF3E700000C
:1028B00070B588B0044623460AA220216846FDF779
:1028C000D9FC0546002D08DD6846FDF789FD86B276
:1028D00014223146684600F077F9FDF7AFFF08B0E3
:1028E00070BD000053414645204D4F44453A2025D8
:1028F000750D0A0010B528480068A0B940236FF094
:102900000102264926A0FFF78DFE234908600846EC
:10291000006840B903202549087025A0FFF7B8FFDB
:102920002248007810BD2A480068A8B980230022F8
:10293000284929A0FFF776FE254908600846006867
:1029400050B904201949087026A0FFF7A1FF00F034
:10295000CFF816480078E5E72D480068B0B9F023B5
:102960004FF0FF322B492CA0FFF75CFE284908608E
:102970000846006850B905200C4908702AA0FFF7E6
:1029800087FF00F0B5F809480078CBE70020074939
:10299000087008460078C5E7BC000020C92400087C
:1029A0004C45445F5461736B00000000C800002078
:1029B0004552523A20637265617465204C45445F0C
:1029C0005461736B206661696C65640D0A000000D8
:1029D000C000002031250008554152545F546173F6
:1029E0006B0000004552523A2063726561746520A5
:1029F000554152545F5461736B206661696C656424
:102A00002C20726F6C6C6261636B0D0A0000000019
:102A1000C4000020F92400084D6F6E69746F725F66
:102A20005461736B000000004552523A2063726596
:102A3000617465204D6F6E69746F725F5461736B62
:102A4000206661696C65642C20726F6C6C626163D6
:102A50006B0D0A0010B504460CB1206800B910BD1A
:102A600002F04CF802281DD11248844202D1FFF72F
:102A7000CFFB0AE01048844202D100F033FA04E0B0
:102A80000E48844201D1FFF703FD4FF49671206890
:102A900000F042F848B90AA0FFF7FAFE2068FFF7F5
:102AA00019FE02E02068FFF715FE0020206000BF3D
:102AB000D5E70000BC000020C0000020C4000020BA
:102AC0005741524E3A20677261636566756C207398
:102AD000746F702074696D656F75742C20666F72E9
:102AE0006365207465726D696E6174650D0A00001E
:102AF00010B50548FFF7AEFF0448FFF7ABFF0448E9
:102B0000FFF7A8FF10BD0000C4000020C000002097
:102B1000BC0000200120704770B505460C462046D9
:102B200000F0C7FA002070BD70B505466C6A002041
:102B3000E085E0842046FFF7B3F870BD1CB5094876
:102B4000006800B11CBD01F0D9FF022808D10020A7
:102B500000900190684600F0BDFA0249086000BF8D
:102B600000BFEFE7CC00002010B5FFF7E7FF012022
:102B700010BD2DE9F04106460F46144606B117B9BF
:102B80000020BDE8F081FEF7E7FB05464CB9FDF7F4
:102B9000C7FF20B139463046FDF7CAFFF1E70020F4
:102BA000EFE70AE0FDF7BCFF20B139463046FDF7FC
:102BB000BFFFE6E7012000F07CFAFEF7CDFB401BEB
:102BC000A042EFD90020DCE72DE9F04104460D4694
:102BD000164604B115B90020BDE8F081FFF7AEFF3D
:102BE0000E48006828B9324629462046FEF788F884
:102BF000F2E731460948006800F0A2FA08B1002067
:102C0000EAE7324629462046FEF77AF807460348A7
:102C1000006800F06DFA3846DEE70000CC000020C6
:102C200000BF00BF02680C3252E8002F22F49071FE
:102C300002680C3242E80013002BF3D100BF00BF42
:102C400000BF0268143252E8002F22F0010102682E
:102C5000143242E80013002BF3D100BF016B0129AD
:102C60000ED100BF00BF02680C3252E8002F22F0E4
:102C7000100102680C3242E80013002BF3D100BFB0
:102C8000202180F8421000210163704710B50446EE
:102C90002068C06820F040002168C860202084F8C7
:102CA00041002046FFF79BFA002010BDF8B504460E
:102CB00094F84200222875D1A068B0F5805F0CD14D
:102CC000206950B90025A66A20684068C0F3080052
:102CD0003080A06A801CA06215E0A56A0026A0686A
:102CE000B0F5805F03D0A06828B9206918B92068C2
:102CF0004068287004E02068406800F07F00287079
:102D0000A06A401CA062E08D401E80B2E0850028D1
:102D100046D12068C06820F020002168C860206883
:102D2000C06820F480702168C8602068406920F085
:102D3000010021684861202084F84200002060637F
:102D4000206B012826D10020206300BF00BF21682E
:102D50000C3151E8001F21F0100021680C3141E8CE
:102D60000002002AF3D100BF2068006800F01000C4
:102D700010280AD100BF0020009020680068009051
:102D800020684068009000BF00BFA18D2046FEF77C
:102D900025FF02E02046FFF757F90020F8BD01E0CB
:102DA0000020FBE70220F9E770B5044621680969B5
:102DB00021F44051E2681143226811612269A1683F
:102DC0001143626941EA02052168C96841F20C6257
:102DD000914329432268D1602168496921F44071F7
:102DE000A2691143226851612D4A2168914202D1A2
:102DF000FEF760FC01E0FEF74DFC00EBC00101EBCB
:102E0000001162689200B1FBF2F100EBC00202EB2C
:102E1000001263689B00B2FBF3F26423B2FBF3F28F
:102E200002EBC20303EB0212A1EB8201322202EB9E
:102E300001116422B1FBF2F101F0F00100EBC002DC
:102E400002EB001263689B00B2FBF3F26423B2FB57
:102E5000F3F201EB021200EBC00101EB0011636819
:102E60009B00B1FBF3F100EBC00303EB00136668BA
:102E7000B600B3FBF6F36426B3FBF6F303EBC3062D
:102E800006EB0313A1EB8301322303EB011164234F
:102E9000B1FBF3F101F00F0111442268916070BDA4
:102EA0000038014010B5034699629A85DA85002002
:102EB0005864222083F84200186928B11868C06855
:102EC00040F480701C68E0601868406940F00100C0
:102ED0001C6860611868C06840F020001C68E060F1
:102EE000002010BD0120014908707047CB00002070
:102EF000014691F84100212828D18868B0F5805F0B
:102F00000BD1086948B90A6A1088C0F308000B6839
:102F10005860086A801C086205E00B6A581C086249
:102F200018780B685860C88C401E80B2C88458B9A5
:102F30000868C06820F080000B68D8600868C06826
:102F400040F040000B68D860002070470220FCE78A
:102F50002DE9F84304460D4617469846089E31E091
:102F6000701C70B3FEF7F8F9A0EB0800B04200D86F
:102F700016B90320BDE8F8832068C06800F004009B
:102F8000F8B1802D1ED0402D1CD020680068C0F301
:102F9000C000B0B100BF0020009020680068009021
:102FA00020684068009000BF00BF2046FFF738FE51
:102FB0000820606400BF002084F8400000BF0120AA
:102FC000D8E7FFE7206800682840A84201D1012027
:102FD00000E00020B842C3D00020CBE710B5FDF7D9
:102FE000B3FC10BD8B2204A10920FDF72BFF0920A3
:102FF000FFF7A2FB00BFFEE72E2E2F436F72652F57
:103000005372632F73746D3332663178785F6974ED
:103010002E63000002480068C0F3022070470000E1
:103020000CED00E010B5002804DB0A07130E054A7A
:10303000135406E00A07140E034A00F00F031B1F87
:10304000D45410BD00E400E018ED00E000BFEFF341
:10305000058008B1012070470020FCE7FEF78EF9DB
:10306000FFF786FAFDF7B2FBFDF7C8FCFFF756F94C
:10307000FFF7F8FAFFF73EFC30B1392204A1052032
:10308000FDF7E0FEFDF724FF00F01FF800BFFEE7AC
:103090002E2E2F436F72652F5372632F6D61696EF1
:1030A0002E63000001460020842901D0CA1C104470
:1030B000704770B5044625460DB1294600E0012150
:1030C000084600F00FFE002070BD10B500F052FF62
:1030D000002010BD10B50446606820B10120616871
:1030E00001F0B1F810BD012001F09CF8FAE70000F2
:1030F00038B50446002500200090FFF7A7FF90B1E7
:103100006946204601F072FA012801D0FF2038BD3F
:10311000009888B14FF0805008490860BFF34F8F86
:10312000BFF36F8F08E000231A461946204601F0CE
:1031300089F9012800D0FF252846E8E704ED00E0E2
:10314000F8B506460C46002000900EB98020F8BD68
:103150000025601C08B96D1E03E014B1254605B9B1
:103160000125FFF773FF98B16A460021304601F050
:10317000ADFA012801D0FF20E9E7009880B14FF0B7
:10318000805008490860BFF34F8FBFF36F8F07E08F
:103190002946304601F000FB012801D0FF20D6E788
:1031A0000020D4E704ED00E07FB504460D466069D9
:1031B00098B1A06988B1B4F90800FFF773FF06461B
:1031C000D4E90510CDE9006102902B462269D4E9CB
:1031D000001001F035FC039013E0B4F90800FFF78C
:1031E00061FF064603A8CDE90060238A9AB22B4608
:1031F000D4E9001001F0F2FB012802D0002004B055
:1032000070BD0398FBE710B50446204600F098FD1A
:10321000002010BD2DE9F04105460E461C48076808
:103220001C480068001D00F0EFFB50B91948006809
:1032300090F82C10012088401749096881431648EE
:103240000160681C38B936B112480168091D13487D
:1032500000F052FC1AE07C190E4800684460BC4241
:1032600007D20C480168091D0D48006800F02AFCCF
:103270000CE008480168091D0A48006800F022FCBB
:1032800009480068844201D207480460BDE8F08123
:103290002400002010000020280000200804002046
:1032A00018000020140000204000002010B5044643
:1032B00000F02EFC24480068401C23490860234885
:1032C000006840B9214804600846006801280DD113
:1032D00000F0C8F90AE01E48006838B91B480068C9
:1032E000C06AE16A884201D8184804601948006839
:1032F000401C1849086008460068606494F82C1067
:103300000120884014490968084313490860E16AAC
:1033100001EB8101114A02EB8100211D00F0ECFB61
:1033200000F020FC0A48006868B108480068C06ADC
:10333000E16A884207D24FF0805009490860BFF324
:103340004F8FBFF36F8F10BD2000002010000020B2
:103350002C0000203C000020280000202C0300202E
:1033600004ED00E010B516E000F0D2FB0C48C06898
:10337000C468201D00F048FB0A480068401E094947
:10338000086009480068401E0749086000F0EAFB31
:10339000204600F05FF8044800680028E4D110BD22
:1033A000F4030020200000201C00002070B504461B
:1033B0000D46206C70B1216CE0680144E160D4E9F5
:1033C0000210884201D32168E1602846226CE1683E
:1033D000FDF725F870BD2DE9F04104460F4615466E
:1033E0004FF00008A66B206C48B9206800282CD14B
:1033F000A06801F037FC80460020A06025E07DB980
:103400003946226C6068FDF70AF8216C6068084450
:103410006060D4E90101884217D32068606014E03D
:103420003946226CE068FCF7FAFF216CE068411A2B
:10343000E1602168E068884203D2216CA068411AEB
:10344000E160022D01D106B1761E701CA0634046DA
:10345000BDE8F08110B5044694F8590030B9206BEE
:1034600000F09EFB204600F09BFB1AE094F8590008
:10347000012803D1204600F093FB12E094F8590094
:10348000022801D1012000E0002050B900BF5020E7
:1034900080F31188BFF34F8FBFF36F8F00BF00BF62
:1034A000FEE710BD01464A6A22B10A6B1268C2F1FA
:1034B000070000E00020704730B54FF42053174854
:1034C00000F007042CB1C01D20F00700134C041BB2
:1034D0001B1B0246124C22600024114D6C60D01858
:1034E000083820F007000F4C206000240D4D2D6897
:1034F0006C600C4D2D682C601146441A4C60094CD0
:1035000024680C60084D4C682C60084D4C682C6099
:103510004FF00044064D2C6030BD00001C0400201C
:103520004C000020540000205C00002058000020C7
:103530006800002000BFFFF715FF0648006801285B
:10354000F9D94FF0805004490860BFF34F8FBFF3A3
:103550006F8FF0E72C03002004ED00E010B5044667
:1035600054B10020A06020600021E16000231A46D1
:103570001946204600F066FF10BD2DE9F0410646D1
:103580000D4617469846069C0DB9246000E027605A
:10359000E66325640121204600F008FF84F84C8092
:1035A000BDE8F0812DE9F05F82460E4690469B46CD
:1035B0000A9F0C9C4FEA8801A522206BFCF7A6FF0E
:1035C000A8F10100216B01EB800929F0070909F03E
:1035D000070008B9012000E0002050B900BF5020CA
:1035E00080F31188BFF34F8FBFF36F8F00BF00BF11
:1035F000FEE786B1002507E0715D04F13400415516
:10360000705D00B902E06D1C102DF5D300BF0021E4
:103610004320015502E0002084F83400072F00D336
:103620000627E762E76400202065201D00F047FAC6
:1036300004F1180000F043FA2461C7F10700A0610B
:1036400064620020606584F858005A465146484636
:1036500000F0C8F920600B9808B10B980460BDE831
:10366000F09F000010B5002407E004EB84010F4A2E
:1036700002EB810000F016FA641C072CF5D30C480D
:1036800000F010FA0B4800F00DFA0B4800F00AFAAF
:103690000A4800F007FA0A4800F004FA0448094909
:1036A000086004480849086010BD00002C03002091
:1036B000B8030020CC030020E0030020F403002026
:1036C00008040020140000201800002010B5014656
:1036D000164800E0006803688B42FBD3024643684B
:1036E00013448B4204D143684C6823444360014631
:1036F0000A464B6813440468A34211D10C4C03687A
:103700002468A34208D04B680468646823444B6073
:1037100003681B680B6005E0054B1B680B6001E04C
:1037200003680B60884200D0016010BD4C0000208F
:103730005400002070B5054600F0EAF9A86B08B9FE
:10374000012400E0002400F00DFA204670BD70B5A1
:10375000054600F0DDF9A86BE96B884201D1012430
:1037600000E0002400F0FEF9204670BD0A49096817
:10377000096809B9012100E0002121B14FF0FF31B2
:10378000064A116006E004490968C968C868034A26
:1037900041681160704700001400002040000020C4
:1037A0000246002101E0521C491C1078A528FAD0DD
:1037B000890888B2704700000E480068401C08B9AC
:1037C000012000E0002050B900BF502080F3118894
:1037D000BFF34F8FBFF36F8F00BF00BFFEE700BF87
:1037E000502080F31188BFF34F8FBFF36F8F00BF5E
:1037F00000BFFEE76C00002070B5044600F088F9B9
:1038000094F9455010E0606A08B9012000E00020FA
:1038100038B904F1240001F0E5FA18B100F016FB04
:1038200000E003E0681E45B2002DECDC00BFFF2085
:1038300084F8450000F096F900F06AF994F94450D4
:1038400010E0206908B9012000E0002048B904F127
:10385000100001F0C7FA08B100F0F8FA681E45B28E
:1038600000E001E0002DECDC00BFFF2084F8440004
:1038700000F078F970BD00002DE9F04104464FF0EA
:10388000000800F0CFFB4948006808B9FFF714FEB4
:10389000474800682040002870D1D4B1083404F0B3
:1038A0000700B0B104F00700C0F10800044404F0C0
:1038B000070008B9012000E0002050B900BF5020E7
:1038C00080F31188BFF34F8FBFF36F8F00BF00BF2E
:1038D000FEE7002C52D03748006884424ED8364E5E
:1038E0003046056801E02E462D686868A04202D285
:1038F00028680028F7D12D48006885423ED03068FE
:1039000000F10808286830606868001B102819D981
:103910002F1907F0070008B9012000E0002050B976
:1039200000BF502080F31188BFF34F8FBFF36F8F1C
:1039300000BF00BFFEE76868001B78606C60384617
:10394000FFF7C4FE1B4968680968081A194908602E
:103950000846006819490968884203D2154800687A
:1039600016490860124968680968084368600020C1
:10397000286013480068401C1149086001F07EFA75
:1039800008F0070008B9012000E0002050B900BF8E
:10399000502080F31188BFF34F8FBFF36F8F00BFAC
:1039A00000BFFEE74046BDE8F08100005400002063
:1039B00068000020580000204C0000205C0000201F
:1039C000600000200648006830B10549096801F12F
:1039D0005000096D491C01600148006870470000F3
:1039E00010000020001F4FF080730360001F21F0C3
:1039F00001030360001F034B03601438026020388A
:103A000070470000B937000801460A69D1E9013062
:103A10009860D1E9010358605068884201D18868F4
:103A20005060002008611068401E106010687047E8
:103A30002DE9F041044614B90648006800E020462C
:103A400007463D6B2846FFF7ABFE06463046BDE80D
:103A5000F081000010000020034B0360034B0B605B
:103A60008023136070470000D00000202C0100204C
:103A7000212203A10420FDF7E5F90420FEF75CFEF6
:103A80002E2E5C4170705C53797374656D5C53725B
:103A9000635C6572726F725F68616E646C65722ED2
:103AA0006300000000F1080141604FF0FF318160C8
:103AB00000F10801C160016100210160704700212F
:103AC0000161704710B502460B685C1C0CB91069A7
:103AD00007E002F1080000E04068446824689C4266
:103AE000FAD944684C604C68A160886041600A6102
:103AF0001468641C146010BD42684A6093688B604F
:103B0000936859609160086103685B1C03607047AB
:103B100000BF502080F31188BFF34F8FBFF36F8F2A
:103B200000BF0E480068401C0C4908600846006849
:103B3000012812D10A480068C0B208B9012000E08B
:103B4000002050B900BF502080F31188BFF34F8F81
:103B5000BFF36F8F00BF00BFFEE770476C0000200F
:103B600004ED00E00D48006850B900BF502080F31C
:103B70001188BFF34F8FBFF36F8F00BF00BFFEE709
:103B800006480068401E054908600846006820B9DC
:103B9000002080F3118800BF00BF70476C00002038
:103BA00070B506463546002E44D0083D2C462249C5
:103BB00060680968084008B1012000E0002050B9A1
:103BC00000BF502080F31188BFF34F8FBFF36F8F7A
:103BD00000BF00BFFEE7206808B9012000E0002018
:103BE00050B900BF502080F31188BFF34F8FBFF34F
:103BF0006F8F00BF00BFFEE70F496068096808408B
:103C0000C0B12068B0B90C49606809688843606039
:103C100000F008FA09496068096808440749086023
:103C20002046FFF753FD06480068401C0449086021
:103C300001F024F970BD0000680000205800002049
:103C40006400002000204FF0E021086188610648F0
:103C500000684FF47A71B0FBF1F0401E4FF0E021A4
:103C600048610720086170470C00002070B5FCF720
:103C7000DDFA0446102C16D304F1E02090F8F0533E
:103C800015480078854201DB012000E0002050B992
:103C900000BF502080F31188BFF34F8FBFF36F8FA9
:103CA00000BF00BFFEE70D48006800F4E0600C496B
:103CB0000968884201D8012000E0002050B900BF07
:103CC000502080F31188BFF34F8FBFF36F8F00BF79
:103CD00000BFFEE770BD0000700000200CED00E0AA
:103CE0007400002070B504460025D4B11248006865
:103CF00008B9012000E0002050B900BF502080F337
:103D00001188BFF34F8FBFF36F8F00BF00BFFEE777
:103D100000F088F900212046FFF77CFA01F0AEF8A8
:103D200005463DB94FF0805004490860BFF34F8FFE
:103D3000BFF36F8F70BD00004800002004ED00E06D
:103D400070B50546FFF7E4FE15B93048006800E09D
:103D500028460446201DFFF757FE78B9E06A00EBBD
:103D600080002B4951F8200040B994F82C10012014
:103D7000884028490968814326480160A06A18B133
:103D800004F11800FFF740FE23480068401C224958
:103D900008601E480068844209D1211D1F48FFF7B2
:103DA000ABFE1F480068401C1D49086009E01D4823
:103DB0000068401E1B4908602046FFF74BFBFFF7D9
:103DC000D5FCFFF7CFFE18480068E8B10F4800683F
:103DD000844219D11548006808B9012000E000208C
:103DE00050B900BF502080F31188BFF34F8FBFF34D
:103DF0006F8F00BF00BFFEE74FF080500C49086096
:103E0000BFF34F8FBFF36F8F70BD00001000002015
:103E10002C030020280000203C000020F403002098
:103E20001C000020200000202C0000204800002062
:103E300004ED00E003490968016003490968416035
:103E400070470000380000202400002001200149B4
:103E5000086070473400002070B504460D4654B920
:103E600000BF502080F31188BFF34F8FBFF36F8FD7
:103E700000BF00BFFEE70548016818312046FFF784
:103E800021FE01212846FFF7C5F970BD1000002072
:103E90002DE9F04706460F4634464FF00109002E43
:103EA00060D0206D50B900BF502080F31188BFF35F
:103EB0004F8FBFF36F8F00BF00BFFEE7E06CB842CB
:103EC00001D23D4600E0E56CE06AA8424AD0206D90
:103ED000012847D124480068844201D0012000E035
:103EE000002050B900BF502080F31188BFF34F8FDE
:103EF000BFF36F8F00BF00BFFEE7D4F82C80E562F0
:103F0000A06900F0004010B9C5F10700A06108EBFE
:103F10008801164A02EB81016069884201D10120C3
:103F200000E00020F0B1201DFFF76EFD40B994F8CD
:103F30002C10012088400E49096881430C4801601B
:103F400094F82C1001208840094909680843084961
:103F50000860E16A01EB8101044A02EB8100211D46
:103F6000FFF7CAFDBDE8F087100000202C030020F9
:103F70002800002010B586B000200590049003AA08
:103F800004A905A8FFF768FD0022DDE90410134627
:103F9000CDE9002102901CA11D48039A00F050FDBC
:103FA0001C4908600846006808B1012400E00024AC
:103FB000012C15D100BF502080F31188BFF34F8F23
:103FC000BFF36F8F00BF4FF0FF301349086001202F
:103FD0001249086000201249086000F08DF810E0D6
:103FE000601C08B1012000E0002050B900BF502043
:103FF00080F31188BFF34F8FBFF36F8F00BF00BFF7
:10400000FEE706B010BD000049444C45000000002A
:104010003535000844000020400000202C0000201E
:104020002400002002480068401C014908607047D5
:104030004800002070B52B48006818B101202A49BB
:1040400008604DE000202849086028480068046B9B
:104050004FF0A5352068B0F1A53F0BD16068B0F1F5
:10406000A53F07D1A068B0F1A53F03D1E068B0F14A
:10407000A53F05D01D48016834310068FFF7F8FC02
:104080001B480068B0FA80F0C0F11F0101EB81000D
:10409000184A52F8200008B1012000E0002050B971
:1040A00000BF502080F31188BFF34F8FBFF36F8F95
:1040B00000BF00BFFEE701EB81020E4B03EB820065
:1040C00042685268426000F108024368934202D19C
:1040D0004268526842604268D268044B1A6000BF6E
:1040E00070BD0000480000203400002010000020B7
:1040F000280000202C0300201CB538490846007811
:104100000190FF200A4610700846007800909DF844
:10411000000000F0F0009DF80020904201D1012045
:1041200000E0002050B900BF502080F31188BFF399
:104130004F8FBFF36F8F00BF00BFFEE79DF80000F9
:1041400000F05000264A10700720264A106009E04F
:1041500024480068401E234A10609DF80000400675
:10416000000E00909DF8000000F080008028EFD045
:104170001C480068C0F10700042801D1012000E0BC
:10418000002050B900BF502080F31188BFF34F8F3B
:10419000BFF36F8F00BF00BFFEE712480068000248
:1041A000104A10601046008800F4E06010600B4A6E
:1041B000019810700C48006840F470000A490860CB
:1041C0000846006840F070400860FFF73BFD0020A3
:1041D00006490860FBF7F4FF00201CBD00E400E086
:1041E000700000207400002020ED00E06C00002032
:1041F00010B500BF502080F31188BFF34F8FBFF37D
:104200006F8F00BF00F08AFC18B14FF08050044956
:10421000086000BF002080F3118800BF10BD0000BF
:1042200004ED00E02DE9F041044601260027224676
:104230000021012000F01CF805462846FFF78EF902
:104240002846BDE8F0812DE9F84304460D460127D4
:104250004FF000082B46002211460120009400F088
:1042600034F806463046FFF779F93046BDE8F88362
:104270002DE9F84305460E4617460DB1012000E032
:10428000002050B900BF502080F31188BFF34F8F3A
:10429000BFF36F8F00BF00BFFEE705FB06F808F114
:1042A0005000FFF7E9FA044664B1A14609F150094C
:1042B000002084F846003B464A4631462846009492
:1042C000FFF75BF92046BDE8F8832DE9F843804607
:1042D0000E4617461D46DDF82090B8F1000F01D0BC
:1042E000012000E0002050B900BF502080F3118869
:1042F000BFF34F8FBFF36F8F00BF00BFFEE70DB15D
:10430000012000E0002050B900BF502080F3118848
:10431000BFF34F8FBFF36F8F00BF00BFFEE707B142
:104320000EB1012000E0002050B900BF502080F302
:104330001188BFF34F8FBFF36F8F00BF00BFFEE741
:1043400007B90EB9012000E0002050B900BF50208D
:1043500080F31188BFF34F8FBFF36F8F00BF00BF93
:10436000FEE7502000900098502801D1012000E085
:10437000002050B900BF502080F31188BFF34F8F49
:10438000BFF36F8F00BF00BFFEE700BF2C464CB1EC
:10439000012084F846004B463A4631464046009498
:1043A000FFF7EBF82046BDE8F883000070B505463E
:1043B0000E462C4654B900BF502080F31188BFF33D
:1043C0004F8FBFF36F8F00BF00BFFEE7FFF7A0FB6B
:1043D000D4E90F12206801FB0200A0600020A06356
:1043E00020686060E06B401E226C216800FB0211B7
:1043F000E160FF2084F8440084F845009EB92069FC
:1044000008B9012000E00020A8B904F1100000F074
:10441000E9FC80B14FF0805009490860BFF34F8F2D
:10442000BFF36F8F07E004F11000FFF73BFB04F1CF
:104430002400FFF737FBFFF795FB012070BD00005C
:1044400004ED00E02DE9FF4383B0064688461D4693
:104450004FF00009344654B900BF502080F3118852
:10446000BFF34F8FBFF36F8F00BF00BFFEE7B8F100
:10447000000F01D1206C08B9012000E0002050B9E4
:1044800000BF502080F31188BFF34F8FBFF36F8FB1
:1044900000BF00BFFEE7022D02D1E06B012801D171
:1044A000012000E0002050B900BF502080F31188A7
:1044B000BFF34F8FBFF36F8F00BF00BFFEE700F069
:1044C0001DFB08B9059808B9012000E0002050B98B
:1044D00000BF502080F31188BFF34F8FBFF36F8F61
:1044E00000BF00BFFEE700BFFFF712FBA06BE16B50
:1044F000884201D3022D28D12A4641462046FEF7A4
:104500006AFF0746606A08B9012000E0002068B928
:1045100004F1240000F066FC88B14FF0805032496D
:104520000860BFF34F8FBFF36F8F08E03FB14FF0CC
:1045300080502D490860BFF34F8FBFF36F8FFFF797
:1045400011FB012007B0BDE8F083059818B9FFF70B
:1045500009FB0020F6E7B9F1000F04D101A8FFF72D
:1045600069FC4FF00109FFF7FDFAFFF75BFDFFF76C
:10457000CFFA94F94400401C10B9002084F844009C
:1045800094F94500401C10B9002084F84500FFF75D
:10459000E9FA05A901A800F0DBF9F0B92046FFF718
:1045A000D6F8A0B104F110000599FFF755FC20469C
:1045B000FFF722F900F062FC002895D14FF08050FF
:1045C00009490860BFF34F8FBFF36F8F8CE7204618
:1045D000FFF712F900F052FC86E72046FFF70CF9CE
:1045E00000F04CFC0020ADE704ED00E02DE9F047C1
:1045F00006460F46344654B900BF502080F3118858
:10460000BFF34F8FBFF36F8F00BF00BFFEE7206C7B
:1046100008B9012000E0002050B900BF502080F30D
:104620001188BFF34F8FBFF36F8F00BF00BFFEE74E
:10463000206808B9A06808B9012000E0002050B93E
:1046400000BF502080F31188BFF34F8FBFF36F8FEF
:1046500000BF00BFFEE7FFF709FB00BF5021EFF3EB
:10466000118081F31188BFF34F8FBFF36F8F00BFAD
:104670000546D4F83890E06B48451ED994F945A01A
:1046800009F10100A0630AF1010070B9606A08B97C
:10469000012000E0002068B904F1240000F0A2FB32
:1046A00040B13FB10120386004E00AF1010040B29E
:1046B00084F845004FF0010801E04FF0000800BF0A
:1046C00085F3118800BF4046BDE8F0872DE9F05F13
:1046D000064689461746344654B900BF502080F339
:1046E0001188BFF34F8FBFF36F8F00BF00BFFEE78E
:1046F000B9F1000F01D1206C08B9012000E00020C1
:1047000050B900BF502080F31188BFF34F8FBFF323
:104710006F8F00BF00BFFEE7FFF7A8FA00BF502170
:10472000EFF3118081F31188BFF34F8FBFF36F8FC9
:1047300000BF0546D4F838A0BAF1000F22D094F992
:1047400044B049462046FEF731FEAAF10100A063BD
:104750000BF1010070B9206908B9012000E00020C8
:1047600068B904F1100000F03DFB40B13FB10120F9
:10477000386004E00BF1010040B284F844004FF0CF
:10478000010801E04FF0000800BF85F3118800BF69
:104790004046BDE8F09F00002DE9F34182B0054698
:1047A0004FF000082C46002654B900BF502080F37B
:1047B0001188BFF34F8FBFF36F8F00BF00BFFEE7BD
:1047C000206C08B9012000E0002050B900BF502043
:1047D00080F31188BFF34F8FBFF36F8F00BF00BF0F
:1047E000FEE700F08BF908B9039808B9012000E052
:1047F000002050B900BF502080F31188BFF34F8FC5
:10480000BFF36F8F00BF00BFFEE700BFFFF780F967
:10481000A76BFFB1781EA063206810B9FFF7D2F82C
:10482000A060206908B9012000E0002060B904F10F
:10483000100000F0D7FA38B14FF0805043490860BB
:10484000BFF34F8FBFF36F8FFFF78CF9012004B0D8
:10485000BDE8F081039898B90EB9012000E000206E
:1048600050B900BF502080F31188BFF34F8FBFF3C2
:104870006F8F00BF00BFFEE7FFF774F90020E6E787
:10488000B8F1000F04D16846FFF7D4FA4FF00108E1
:10489000FFF768F9FFF7C6FBFFF73AF994F9440010
:1048A000401C10B9002084F8440094F94500401CD5
:1048B00010B9002084F84500FFF754F903A96846B1
:1048C00000F046F840BB2046FEF734FFF0B1206808
:1048D00038B9FFF71DF9A06800F028FA0646FFF77F
:1048E00041F904F124000399FFF7B6FA2046FEF7D8
:1048F00083FF00F0C3FA002888D14FF0805013499D
:104900000860BFF34F8FBFF36F8F7FE72046FEF73E
:1049100073FF00F0B3FA79E72046FEF76DFF00F071
:10492000ADFA2046FEF706FF0028EED05EB1FFF795
:10493000EFF82046FEF7B6FD07463946A068FFF7B8
:10494000A7FAFFF70FF9002081E7000004ED00E06F
:1049500070B505460C4655B900BF502080F311884C
:10496000BFF34F8FBFF36F8F00BF00BFFEE754B997
:1049700000BF502080F31188BFF34F8FBFF36F8FBC
:1049800000BF00BFFEE7FFF7C3F81248026868687F
:10499000131A2068401C08B9002617E00E49286841
:1049A0000968884204D06868904201D801260DE069
:1049B0002068984207D92068C01A20602846FFF76F
:1049C00039FA002602E0002020600126FFF7CAF82D
:1049D000304670BD24000020380000202DE9FF4F34
:1049E00085B0804689461746DDE912ABB800FEF770
:1049F00043FF064656B15C20FEF73EFF04460CB16D
:104A0000266304E03046FFF7CBF800E000248CB1C9
:104A1000002084F85900CDE900ABCDE902403A46C8
:104A200049464046089BFEF7BDFD2046FEF73EFC8A
:104A3000012501E04FF0FF35284609B0BDE8F08FB1
:104A40002DE9F04F85B00746884691469A46DDE944
:104A50000EB6109C0EB1012000E0002050B900BF3E
:104A6000502080F31188BFF34F8FBFF36F8F00BFCB
:104A700000BFFEE70CB1012000E0002050B900BFEC
:104A8000502080F31188BFF34F8FBFF36F8F00BFAB
:104A900000BFFEE75C20039003985C2801D1012051
:104AA00000E0002050B900BF502080F31188BFF310
:104AB0004F8FBFF36F8F00BF00BFFEE700BFB4B1E1
:104AC000AEB125462C462E63022085F85900002001
:104AD00004A953464A46CDE900B1CDE9025041460A
:104AE0003846FEF75FFD2846FEF7E0FB01E00020B8
:104AF0000490049805B0BDE8F08F000005490968EE
:104B000009B9012005E00449096809B9022000E05B
:104B1000002070472C000020480000202DE9F041C3
:104B20004FF000084448006800287CD143480068E2
:104B3000451C4248056015BB41480068006808B93B
:104B4000012000E0002050B900BF502080F3118800
:104B5000BFF34F8FBFF36F8F00BF00BFFEE7384832
:104B600007683848006836490860364807603648A4
:104B70000068401C34490860FEF7F8FD00BF334868
:104B8000006885423CD300BF2D480068006808B922
:104B9000012000E0002020B14FF0FF302B490860D9
:104BA0002DE027480068C068C4686668B54202D234
:104BB0002648066023E0201DFEF726FFA06A18B1F4
:104BC00004F11800FEF720FF94F82C100120884013
:104BD0001F49096808431E490860E16A01EB810129
:104BE0001C4A02EB8100211DFEF786FF1A49E06A8C
:104BF0000968C96A8842C7D34FF00108C4E700BFFB
:104C000015480068C06A00EB8000124951F8200086
:104C1000012801D94FF001081048006808B14FF091
:104C2000010805E0FFE70E480068401C0C490860D9
:104C30004046BDE8F081000048000020240000202C
:104C40001400002018000020380000204000002040
:104C5000280000202C030020100000203400002039
:104C60003000002070B505462C460026002D55D09A
:104C70002B480068844201D1012000E0002050B997
:104C800000BF502080F31188BFF34F8FBFF36F8FA9
:104C900000BF00BFFEE7206D50B900BF502080F379
:104CA0001188BFF34F8FBFF36F8F00BF00BFFEE7C8
:104CB000206D401E2065E16CE06A88422ED0206D98
:104CC00060BB201DFEF7A0FE78B9E06A00EB800013
:104CD000144951F8200040B994F82C100120884064
:104CE00011490968814310480160E06CE062E06AA4
:104CF000C0F10700A06194F82C10012088400A49F7
:104D00000968084308490860E16A01EB8101054A26
:104D100002EB8100211DFEF7EFFE0126304670BD3B
:104D2000100000202C0300202800002070B505464C
:104D30002C460026002D4DD02749E06A0968C96A33
:104D4000884240D2A06900F0004028B9224800689B
:104D5000C06AC0F10700A061E16A01EB81011F4A4E
:104D600002EB81016069884201D1012000E000204E
:104D700018B3201DFEF748FE40B994F82C1001200E
:104D80008840174909688143154801601248006846
:104D9000C06AE06294F82C1001208840104909682C
:104DA00008430F490860E16A01EB81010B4A02EBFD
:104DB0008100211DFEF7A0FE03E007480068C06ADD
:104DC000E062012606E00449E06C0968C96A88428D
:104DD00000D20126304670BD100000202C030020B8
:104DE0002800002070B50646F068C46854B900BFBA
:104DF000502080F31188BFF34F8FBFF36F8F00BF38
:104E000000BFFEE704F11800FEF7FEFD154800683C
:104E1000A8B9201DFEF7F8FD94F82C100120884059
:104E200011490968084310490860E16A01EB8101F2
:104E30000E4A02EB8100211DFEF75EFE04E004F144
:104E400018010B48FEF758FE0A49E06A0968C96A6A
:104E5000884204D9012501200749086000E00025A7
:104E6000284670BD48000020280000202C030020A8
:104E7000E0030020100000203400002070B5002462
:104E800000263648006850B900BF502080F31188D2
:104E9000BFF34F8FBFF36F8F00BF00BFFEE7FEF77A
:104EA00037FE2E480068401E2C49086008460068FE
:104EB00000284FD12A48006800284BD024E0294818
:104EC000C068C46804F11800FEF79EFD201DFEF7BF
:104ED0009BFD94F82C100120884023490968084361
:104EE00021490860E16A01EB8101204A02EB81005F
:104EF000211DFEF701FE1E49E06A0968C96A884261
:104F000002D301201B4908601648006808B9012037
:104F100000E000200028D2D00CB1FEF727FC164894
:104F2000056865B100BFFFF7F9FD10B10120114917
:104F300008606D1E002DF6D100200F4908600D4855
:104F4000006838B1012630070C490860BFF34F8F65
:104F5000BFF36F8FFEF706FE304670BD480000209D
:104F600020000020E0030020280000202C03002067
:104F700010000020340000203000002004ED00E08C
:104F800002030405060708090A0B0C0D0E0F10108A
:104F900001020000000000000000010203040607F7
:104FA0000809000000000102030434127856CDAB5A
:104FB000341200500000000000000000000000005B
:104FC00001000000000000000000000000000000E0
:104FD000F04F000800000020D00000002801000869
:104FE000C0500008D0000020E8380000440100084C
:104FF00000000000100000000100000000127A0014
:1050000000000000000000000000000000000000A0
:105010000000000000000000000000000000000090
:105020000000000000000000000000000000000080
:105030000000000000000000000000000000000070
:105040000000000000000000000000000000000060
:10505000000000000000000000000000AAAAAAAAA8
:105060000000000000000000642C0020642D0020DF
:105070000000000000000000000000000000000030
:105080000000000000000000000000000000000020
:105090000000000000000000000000000000000010
:1050A0000000000000000000000000000000000000
:1050B00000000000000000000000000000000000F0
:04000005080000ED02
:00000001FF
