:020000040800F2
:10000000502A002035020008813100080D2C00081C
:10001000A52C00082D15000811480008000000005C
:100020000000000000000000000000009D0100082A
:10003000A915000800000000E1010008B13800081F
:100040004F0200084F0200084F0200084F0200084C
:100050004F0200084F0200084F0200084F0200083C
:100060004F0200084F0200084F0200084F0200082C
:100070004F0200084F0200084F0200084F0200081C
:100080004F0200084F0200084F0200084F0200080C
:100090004F0200084F0200084F0200084F020008FC
:1000A0004F0200084F0200084F0200084F020008EC
:1000B0004F0200084F0200084F0200084F020008DC
:1000C0004F0200084F0200084F0200084F020008CC
:1000D0004F020008ED4700084F0200084F020008D9
:1000E0004F0200084F0200084F02000800F002F81B
:1000F00000F045F80AA090E8000C82448344AAF17D
:100100000107DA4501D100F03AF8AFF2090EBAE87A
:100110000F0013F0010F18BFFB1A43F0010318473B
:100120002867000048670000103A24BF78C878C1EB
:10013000FAD8520724BF30C830C144BF04680C60ED
:10014000704700000023002400250026103A28BF35
:1001500078C1FBD8520728BF30C148BF0B60704739
:10016000642900F00181752900F0FE80732900F0F8
:10017000D082002070471FB51FBD10B510BD00F024
:10018000EEFA1146FFF7F7FF04F07EFB00F00CFBE0
:1001900003B4FFF7F2FF03BC00F010FB224B196819
:1001A0000868B0E8F00F80F30988BFF36F8F4FF055
:1001B000000080F311884EF00D0E70470000000023
:1001C00006480068006880F3088862B661B6BFF32D
:1001D0004F8FBFF36F8F00DF00BF00BF08ED00E05F
:1001E000EFF30980BFF36F8F0F4B1A6820E9F00F10
:1001F000106008B54FF0500080F31188BFF34F8FA7
:10020000BFF36F8F05F040FB4FF0000080F31188C3
:10021000BDE8084019680868B0E8F00F80F3098865
:10022000BFF36F8F704700BF10000020EFF3058011
:10023000704700000948804709480047FEE7FEE78D
:10024000FEE7FEE7FEE7FEE7FEE7FEE7FEE7FEE786
:1002500004480549054A064B704700002B39000841
:10026000ED00000850220020502A002050260020D7
:10027000502600200FB47CB50C0009AA009001D0D4
:100280002044401E084B7B4469460190089800F0CA
:100290000EFA05461CB10020694600F01BFA2846FC
:1002A0007CBC5DF814FB0000550400002DE9F04112
:1002B0000E460446002020622046E168884730B39D
:1002C000252805D0D4E901219047206A401CF2E797
:1002D000E168204600278847050018D0A5F14100B5
:1002E000192802D820354FF40067324629462046A7
:1002F0002760FFF735FF40B1012804D0F61D26F036
:1003000007060836D8E7361DD6E72846DAE7206A1A
:10031000BDE8F08170B50C460546012A05D0287865
:10032000800600D5EA69002302E0012305E05B1C9A
:10033000934202D2E05C0028F9D1A869E618C01AFD
:10034000A861286A184428622846AFF3008004E0B8
:10035000D5E9012114F8010B9047B442F8D328469F
:10036000AFF3008070BD00002DE9F0410646002487
:1003700010687529314616A510D0AFF3008000280B
:1003800002DA404213A507E031688A0701D512A5B9
:1003900002E0490704D511A5012401E0AFF3008074
:1003A00000210A2206F1240709E0B0FBF2FCB0FBB1
:1003B000F2F302FB1C00303078541846491C002828
:1003C000F3D123462A463046BDE8F04100F011B98A
:1003D000000000002D0000002B00000020000000A5
:1003E00010B5431C02E010F8011B71B18107FAD16E
:1003F0004FF0013202C88C1A8C4314EAC211F9D0B2
:10040000C01A0A0603D0C01E10BDC01A10BD0A04CF
:1004100001D0801E10BD0902FCD0401E10BD032A71
:1004200040F2308010F0030C00F0158011F8013B11
:10043000BCF1020F624498BF11F801CB00F8013BF8
:1004400038BF11F8013BA2F1040298BF00F801CBBC
:1004500038BF00F8013B11F0030300F02580083A93
:10046000C0F0088051F8043B083A51F804CBA0E8EA
:100470000810F5E7121D5CBF51F8043B40F8043B3F
:10048000AFF30080D20724BF11F8013B11F801CB74
:1004900048BF11F8012B24BF00F8013B00F801CB45
:1004A00048BF00F8012B704710B5203AC0F00B8010
:1004B000B1E81850203AA0E81850B1E81850A0E868
:1004C0001850BFF4F5AF5FEA027C24BFB1E81850C2
:1004D000A0E8185044BF18C918C0BDE810405FEA32
:1004E000827C24BF51F8043B40F8043B08BF7047AE
:1004F000D20728BF31F8023B48BF11F8012B28BFB3
:1005000020F8023B48BF00F8012B704702F0FF03C0
:1005100043EA032242EA024200F001B94FF000022E
:1005200000B5134694469646203922BFA0E80C50E9
:10053000A0E80C50B1F12001BFF4F7AF090728BFC4
:10054000A0E80C5048BF0CC05DF804EB890028BF40
:1005500040F8042B08BF704748BF20F8022B11F069
:10056000804F18BF00F8012B704700004FF0013C8E
:1005700050F8042B51F8043B9A4221D1A2EB0C0312
:10058000934313EACC1317D150F8042B51F8043BD2
:100590009A4215D1A2EB0C03934313EACC130BD16F
:1005A00050F8042B51F8043B9A4209D1A2EB0C03FA
:1005B000934313EACC13DBD04FF00000704700BF29
:1005C000D01A01BAB1FA81F101F0180122FA01F052
:1005D000CB40C1F12001DBB2C0B2C01A2CFA01F34A
:1005E000D11A914311EAC311E6D1704770477047A1
:1005F00070472DE9F0470D4699469246044600F1B2
:1006000024080168880604D5E06921F01001216002
:1006100000E00120A84201DD471B00E00027A1699E
:100620007A1902EB0900081AA0612078C00602D4EA
:100630002046AFF30080002608E0D4E901211AF833
:1006400006009047206A401C761C20624E45F4DB71
:100650002078C0060AD52046AFF3008006E0D4E932
:10066000012130209047206A401C2062381EA7F1EB
:100670000107F4DC07E0D4E9012118F805009047F0
:10068000206A401C2062281EA5F10105F3DC2046EB
:10069000AFF300802078000602D50220BDE8F08785
:1006A0000120FBE701694A1C02610878704700B528
:1006B0008FB0CDE901310021059105497944CDE99B
:1006C000031011466846FFF7F1FD0FB000BD0000B2
:1006D000E5FFFFFF0A6802F8010B0A607047D1E9E5
:1006E00000239A4202D2531C0B601070704710B561
:1006F000436913B1AFF3008001E0FFF70BFE012067
:1007000010BD127800F124010A7000224A70012203
:10071000EDE711684FF0FF32E9E74FF000020429DE
:10072000C0F0128010F0030C3FF4FAAECCF1040CD0
:10073000BCF1020F18BF00F8012BA8BF20F8022B54
:10074000A1EB0C01FFF7ECBE5FEAC17C24BF00F80F
:10075000012B00F8012B48BF00F8012B70477546AC
:1007600000F028F8AE4605006946534620F0070021
:10077000854618B020B5FFF76BFDBDE820404FF06F
:1007800000064FF000074FF000084FF0000B21F07B
:100790000701AC46ACE8C009ACE8C009ACE8C00948
:1007A000ACE8C0098D4670470446AFF30080204690
:1007B000FFF7EEFC00487047EC21002001491820AB
:1007C000ABBEFEE7260002007047000038B50020EF
:1007D0000090052000F0D4FF684600F0B2F820B980
:1007E00023A000F03FFD002038BD002413E09DF859
:1007F000000000F0A1F800B10FE00A2000F0C0FFF7
:10080000684600F09EF820B922A000F02BFD0020E1
:10081000EAE7601CC4B20A2CE9DB00BF9DF80000C7
:1008200000F086F8002820D100221146BA2000F0FE
:1008300094F820B921A000F015FD0020D4E7142081
:1008400000F09EFF684600F07CF820B923A000F07D
:1008500009FD0020C8E79DF8000000F069F820B904
:1008600028A000F0FFFC0020BEE70120BCE700004C
:10087000414854323020696E6974206661696C6544
:10088000643A2072656164207374617475730D0A33
:1008900000000000414854323020696E69742066BF
:1008A00061696C65643A2072656164207374617477
:1008B00075732072657472790D0A000041485432D4
:1008C0003020696E6974206661696C65643A2073D2
:1008D0006F66742072657365740D0A004148543266
:1008E0003020696E6974206661696C65643A2073B2
:1008F00074617475732061667465722072657365C6
:10090000740D0A00414854323020696E69742066C3
:1009100061696C65643A2063616C696272617469D3
:100920006F6E206D697373696E670D0A00000000B9
:100930000146C1F3C00070470146012020EAD110F2
:10094000704710B504460CB9002010BD01232246A3
:100950007121382002F02AFCF7E7F8B505460E466B
:100960001446601CC7B2022C01DD0020F8BD8DF8D2
:100970000050002004E0325C411C0DF80120C8B298
:10098000A042F8DB3A466946382002F04FFCEDE71A
:1009900038B5002000900024002501226946D020AF
:1009A00000F03AF920B923A000F05CFC002038BD2B
:1009B0009DF80000582804D027A000F053FC002028
:1009C000F5E700F0ABF820B92DA000F04BFC0020BB
:1009D000EDE7B621E02000F02AF920B932A000F0BE
:1009E00041FC0020E3E7322000F0CAFE2C25294616
:1009F000F52000F01CF920B934A000F033FC0020F1
:100A0000D5E70A2000F0BCFEB3242146F42000F014
:100A10000EF920B936A000F025FC0020C7E70A2017
:100A200000F0AEFE322000F0ABFE01203A49087023
:100A300000BFBCE7424D5032383020696E697420E7
:100A40006661696C65643A20636869702069642036
:100A5000726561640D0A0000424D503238302069E1
:100A60006E6974206661696C65643A20696E7661AE
:100A70006C696420636869702069640D0A00000075
:100A8000424D5032383020696E6974206661696C5D
:100A900065643A20726561642063616C69627261A9
:100AA00074696F6E0D0A0000424D50323830206973
:100AB0006E6974206661696C65643A20726573655D
:100AC000742077726974650D0A000000424D50323F
:100AD000383020696E6974206661696C65643A20FB
:100AE000636F6E6669672077726974650D0A00002E
:100AF000424D5032383020696E6974206661696CED
:100B000065643A206374726C5F6D656173207772FF
:100B10006974650D0A000000D400002000B587B09C
:100B2000182101A8FFF7FAFC182201A9882000F07B
:100B300073F810B9002007B000BD9DF804009DF8BF
:100B4000051040EA0120334908809DF806009DF811
:100B5000071040EA012000B22E4948809DF80800A5
:100B60009DF8091040EA012000B22A4988809DF8CA
:100B70000A009DF80B1040EA01202649C8809DF824
:100B80000C009DF80D1040EA012000B221490881B7
:100B90009DF80E009DF80F1040EA012000B21D499B
:100BA00048819DF810009DF8111040EA012000B224
:100BB000184988819DF812009DF8131040EA012021
:100BC00000B21449C8819DF814009DF8151040EA40
:100BD000012000B20F4908829DF816009DF81710F9
:100BE00040EA012000B20B4948829DF818009DF8A8
:100BF000191040EA012000B2064988829DF81A00C7
:100C00009DF81B1040EA012000B20249C882012071
:100C100091E70000D41E002070B504460D4616462C
:100C20002B4632462146772002F0E0FA70BD13B51C
:100C3000044601AB01222146772002F019FB1CBDBE
:100C400000B585B00020019002900390049000BF91
:100C50001048806940F010000E498861084680699C
:100C600000F01000009000BF00BF4FF40050019052
:100C700001200290002003900220049001A9064860
:100C800000F092FD01225103034800F02FFF05B050
:100C900000BD0000001002400010014010B501220C
:100CA0005103024800F022FF10BD00000010014077
:100CB00010B500224FF40051014800F017FF10BD9D
:100CC0000010014010B54FF40051024800F004FF3D
:100CD00010BD00000010014000B58DB0002009904B
:100CE0000A900B900C901C2102A8FFF717FC00BF84
:100CF0002B48C06940F002002949C8610846C06914
:100D000000F00200019000BF00BF00BF08468069EC
:100D100040F0040088610846806900F004000190FA
:100D200000BF00BFC020099002200A9000200B9055
:100D300002200C9009A91B4800F036FD1A481B49F7
:100D400008604720486000211848816044F61F6110
:100D5000C1600021016101F0CBFB08B100F062FC31
:100D6000602002900020039004900690002202A9C7
:100D70000E4801F03BFB08B100F054FC042202A92C
:100D80000A4801F033FB08B100F04CFC0021074891
:100D900001F0E2FB0421054801F0DEFB0DB000BDCF
:100DA0000010024000080140000400408C1E00209A
:100DB00030B502460B46B42B00D9B4234FF4FA6485
:100DC0005C43B425B4FBF5F404F5FA74A0B2012A2F
:100DD00001D1002104E0022A01D1042100E030BD4C
:100DE00019B90A4C246860630EE0042903D1074C4A
:100DF0002468A06308E0082903D1044C2468E06358
:100E000002E0024C2468206400BFE8E78C1E00204A
:100E10000246B1F5FA7F01D24FF4FA7140F6C413DD
:100E2000994200D91946012A01D1002004E0022A82
:100E300001D1042000E0704718B90A4B1B685963C0
:100E40000EE0042803D1074B1B68996308E00828CB
:100E500003D1044B1B68D96302E0024B1B68196481
:100E600000BFE8E78C1E0020F8B5054600240026E8
:100E7000002705B9F8BD6C6C3CB900203649086004
:100E80003649086036490860F4E704F0080030B1DC
:100E900034480068401C334908600126012704F0EB
:100EA0000600D0B104F0040020B12F480068401CB7
:100EB0002D49086004F0020020B12C480068401C55
:100EC0002A49086025480068401C2449086001261A
:100ED00008460068032800D3012704F0010078B118
:100EE00023480068401C224908601D480068401CD7
:100EF0001B490860012608460068052800D3012721
:100F00001EB9002014490860B4E71A480068401C64
:100F10001849086010480068401C0F49086000BF6D
:100F200000200090286800680090286840680090C1
:100F300000BF00BF1FB9084600680A2801D300F0AF
:100F400059FA00F0ADFA20B9EC220BA1022000F012
:100F50002DFB00BF8EE70000A0000020AC000020A9
:100F6000B000002090000020940000209800002095
:100F70009C000020880000202E2E5C4273705C5381
:100F800072635C756172742E6300000038B50020D6
:100F90000090002400252B48008800B938BD2A485D
:100FA000007838B129480068401C2849086000F0E2
:100FB00021FAF3E7264804682648056824480560B6
:100FC000244804601F4800882349088000201D49E8
:100FD000088001201C4908702048007880B1204812
:100FE0000068401C1E4908600846006805280AD3AE
:100FF00000201A4908701B4908601949086002E07E
:10100000002017490860684600F010FAB8B90120BE
:10101000154908709DF80000022810D000F06CFD02
:1010200012490968401AB0F57A7F08D300F064FDD0
:101030000E49086097220EA1022000F0B7FA00BF07
:10104000ACE7000080000020840000208C0000201D
:10105000780000207C00002082000020CC000020CE
:10106000D0000020C800002085000020C40000201F
:101070002E2E5C4273705C5372635C756172742EC9
:101080006300000008B572B62248007808B3224811
:101090000068401C2049086062B61F480068642848
:1010A00016D31E480068401C1C49086000BF002081
:1010B00000901B480068006800901948006840686C
:1010C000009000BF00BF00F095F9002012490860B1
:1010D00008BD01200F49087062B6114801F018FBE5
:1010E0000F4800680068C0F3001070B100BF002016
:1010F00000900B480068006800900948006840684C
:10110000009000BF00BFFFF741FF002001490870B9
:1011100000BFDDE7A8000020A40000208800002018
:10112000441C002000B585B000BF3C48806940F4F5
:1011300080403A4988610846806900F48040009008
:1011400000BF00BF00BF0846806940F0040088610E
:101150000846806900F00400009000BF00BF002036
:101160000190029003900490481501900220029093
:10117000002003900320049001A9294800F014FBEB
:101180004FF4806001900020029001200390032022
:10119000049001A9224800F007FB22482249086078
:1011A0004FF4E130486000211F488160C160016157
:1011B0000C21416100218161C16101F01BFC08B17A
:1011C00000F030FA00220521252000F04DFD2520F9
:1011D00000F03AFD14480068C06840F01000124961
:1011E0000968C86000201149088011490880114928
:1011F00008701149087000F065F960B90F4800687F
:10120000401C0E4908604FF4AE720DA1022000F0A0
:10121000CDF900F007FA05B000BD00000010024053
:101220000008014000380140441C002080000020DC
:10123000820000208400002085000020880000201B
:101240002E2E5C4273705C5372635C756172742EF7
:101250006300000010B500F049F80148007810BDA7
:101260008400002070B5044644B12046FFF7B8F86A
:1012700085B205222946204600F0F2F870BD000034
:101280002DE9F04106460C460027002500F02EF817
:101290001EB114B1B4F5807F02D90020BDE8F08101
:1012A00072B60F48007830B10E48078800200D490B
:1012B00008800B49087062B687B1A74201DA384648
:1012C00000E020460546B5F5807F01D94FF48075D2
:1012D0002A46054801683046FFF7A1F82846DDE7B1
:1012E00084000020820000207C00002038B500200F
:1012F00000903448007800B938BD3348007800B118
:10130000FAE73248007800B1F6E700F0F5FB304923
:101310000968401A052800D2EEE700F0EDFB2C49E1
:101320000860002027490870684600F069F8002826
:1013300043D128480068401C264908609DF80000F9
:10134000022816D024480068401C2349086000F099
:10135000D3FB22490968401AB0F57A7F09D300F01F
:10136000CBFB1E4908604FF489721DA1022000F0DA
:101370001DF9184800680A281BD30120134908707A
:101380000020104908704FF48E7215A1052000F05E
:101390000DF900240AE0FFF78BFC642003F02AFA21
:1013A000FFF77CFC642003F025FA641C052CF2D3C3
:1013B00006E001200349087002E0002005490860AA
:1013C00000BF99E78500002084000020CC000020A9
:1013D000BC000020C800002088000020C0000020C1
:1013E0002E2E5C4273705C5372635C756172742E56
:1013F000630000000120014908707047850000204B
:1014000010B5044672B600200549088005490880D9
:101410000549087062B6204600F008F810BD0000CB
:1014200080000020820000208400002070B5044667
:101430000A4801F0FCF805462DB1022D03D004B195
:101440002570002070BD00F045F8054604B12570F8
:101450000DB90120F6E70020F4E70000441C00204D
:101460002DE9F04104460D46164600278CB185B1A2
:1014700001200949087033462A462146074801F0F1
:1014800065FB08B9012000E0002007460020024962
:1014900008703846BDE8F081B4000020441C0020EC
:1014A00010B500F029FB044605480068201AB0F585
:1014B0007A7F03D302480460002010BD0120FCE7BE
:1014C000B800002010B500F005F808B9012010BDE3
:1014D0000020FCE710B505480068054A128881180D
:1014E0000122044801F0C2FA10BD0000780000207B
:1014F00080000020441C002070B5044600250AE04E
:10150000FFF7D6FB074800F029F8FFF7C7FB0548AF
:1015100000F024F86D1CA542F2D3034800F01EF839
:1015200070BD0000605B030010EB09007B2204A18A
:10153000082000F03BF8082002F0E6FB00BFFEE7C1
:101540002E2E2F436F72652F5372632F73746D337A
:1015500032663178785F69742E63000001B500E06F
:1015600000BF0098411E00910028F9D108BD30B598
:1015700002460B464FF6FF70002112E0545C6040BB
:1015800000240AE000F0010525B140104AF20105EF
:10159000684000E04010651CECB2082CF2D34C1CF3
:1015A000A1B29942EADB30BD70470000F0B59BB0B4
:1015B00004460E4617460A2C01D31BB0F0BD114855
:1015C0000470114850F8240000F101000E4941F860
:1015D000240000BFEFF3058000B1EEE70EB1304606
:1015E00000E00AA023460BA26021CDE9000703A872
:1015F000FEF740FE0546002D02DD03A800F02EF8A0
:1016000000BFDAE7DC00002068210020756E6B6EF9
:101610006F776E004552525B25755D2025733A2524
:10162000640D0A001C2204A10120FFF7BFFF012066
:1016300002F098FC02F0E0FA2E2E5C4170705C53D0
:10164000797374656D5C5372635C6572726F725FFF
:1016500068616E646C65722E6300000000B97047AB
:1016600000BFFCE70148008870470000D60000205A
:101670000146002291F82100022808D00420886346
:1016800000BF002081F8200000BF012070470868DB
:10169000006820F00E000B6818600868006820F0F1
:1016A00001000B68186091F8403001209840CB6B26
:1016B0005860012081F8210000BF002081F820003F
:1016C00000BF1046E2E7000070B50446002594F81C
:1016D0002100022803D00420A063012548E02068EF
:1016E000006820F00E00216808602068006820F083
:1016F0000100216808601F492068884201D101204B
:1017000026E01C4914312068884201D110201FE0D6
:10171000184928312068884201D1801518E0154900
:101720003C312068884201D1801411E011495031C8
:101730002068884202D14FF4803009E00D496431BD
:101740002068884202D14FF4801001E04FF0807091
:10175000084908394860012084F8210000BF0020B2
:1017600084F8200000BF606B10B12046616B884791
:10177000284670BD080002400146886B7047000093
:1017800070B5044600F0B8F906462546681C10B14D
:1017900004480078054400BF00F0AEF9801BA84261
:1017A000FAD370BD080000202DE9F8470346002257
:1017B00094466EE14FF0010808FA02F4D1F8008077
:1017C00008EA0400A0427DD1DFF8DCA2D1F8048051
:1017D000A8EB0A09D0453AD014DCB8F1030F50D079
:1017E00009DCB8F1000F31D0B8F1010F1CD0B8F10D
:1017F000020F49D120E0B8F1110F18D0B8F1120F43
:1018000042D11EE0B9F5881F25D006DCB9F5803F2E
:1018100020D0B9F5801F37D11AE0B9F5001F18D0D4
:10182000B9F5041F30D117E0D1F80CC02DE0D1F884
:101830000C8008F1040C28E0D1F80C8008F1080CA9
:1018400023E0D1F80C8008F10C0C1EE000BF00BFB3
:1018500000BF00BF00BF00BFD1F80880B8F1000F83
:1018600002D14FF0040C0BE0D1F80880B8F1010F61
:1018700003D14FF0080C1C6102E04FF0080C5C61D2
:1018800003E04FF0000C00E000BF00BFFF2801D8CC
:10189000984601E003F104084646FF2802D84FEAC3
:1018A000820803E0A2F108084FEA88084746D6F804
:1018B00000804FF00F0909FA07F928EA09080CFA25
:1018C00007F900E088E048EA0908C6F80080D1F886
:1018D000048008F08058B8F1805F7DD100BFDFF848
:1018E000CC81D8F8188048F00108DFF8C091C9F819
:1018F0001880C846D8F8188008F00108CDF8008094
:1019000000BF00BF4FEAB9384FEA920958F8295092
:101910004FEA82784FEA18794FF00F0808FA09F871
:1019200025EA0805DFF88881434502D14FF0000819
:1019300016E0DFF88081434502D14FF001080FE047
:10194000DFF87481434502D14FF0020808E0DFF868
:101950006C81434502D14FF0030801E04FF00408C9
:101960004FEA82794FEA197908FA09F848EA050539
:10197000DFF84C814FEA920948F82950D1F80480E9
:1019800008F48018B8F5801F0AD1DFF83881D8F83C
:10199000008048EA0008DFF82C91C9F8008009E0CF
:1019A000DFF82081D8F8008028EA0008DFF81491D9
:1019B000C9F80080D1F8048008F40018B8F5001FB9
:1019C00010D1DFF8008108F10408D8F8008048EA57
:1019D0000008DFF8F09000E05AE009F10409C9F8C6
:1019E00000800DE0DFF8DC8008F10408D8F8008002
:1019F00028EA0008DFF8CC9009F10409C9F8008052
:101A0000D1F8048008F40038B8F5003F0ED1DFF8B3
:101A1000B480A8F10408D8F8008048EA0008DFF88C
:101A2000A490A9F10409C9F800800DE0DFF89480C2
:101A3000A8F10408D8F8008028EA0008DFF88490AC
:101A4000A9F10409C9F80080D1F8048008F48038AD
:101A5000B8F5803F0ED1DFF86C80A8F10808D8F8FF
:101A6000008048EA0008DFF85C90A9F10809C9F88D
:101A700000800DE0DFF84C80A8F10808D8F800805D
:101A800028EA0008DFF83C90A9F10809C9F80080AD
:101A9000521CD1F8008028FA02F8B8F1000F7FF448
:101AA00089AEBDE8F8870000000011100010024068
:101AB00000080140000C01400010014000140140EA
:101AC0000800014008040140024693680B400BB136
:101AD000012000E00020704710B5C26821EA02032F
:101AE00002EA010443EA0443036110BD0AB1016143
:101AF00001E00B0403617047014800687047000073
:101B00000000002070B504460CB9012070BD4CF6F1
:101B1000CC402168086045F2555021680860D4E93E
:101B2000001048602168A0688860FFF7E5FF05465F
:101B30000DE0FFF7E1FF401B41F23C31884206D93E
:101B40002068C06800F0030008B10320DEE72068C9
:101B5000C06800F003000028EBD14AF6AA202168F3
:101B600008600020D2E701464AF6AA200A68106001
:101B70000020704703480068034909780844014978
:101B800008607047000000200800002010B50848D9
:101B9000006840F0100006490860032000F0A2F839
:101BA0000F2000F007F800F02BF8002010BD000017
:101BB0000020024070B504460E4800784FF47A7158
:101BC000B1FBF0F00C490968B1FBF0F5284600F0D4
:101BD000F3FB08B1012070BD102C07D20022214672
:101BE000501E00F041F80548046001E00120F2E7D2
:101BF0000020F0E7080000200C0000200400002076
:101C000008B500BF0F48806940F001000D498861A8
:101C10000846806900F00100009000BF00BF00BFCF
:101C20000846C06940F08050C8610846C06900F0AD
:101C30008050009000BF00BF00220F21901E00F0D6
:101C400013F808BD0010024001460846002809DBD1
:101C500000F01F0301229A4043099B0003F1E02397
:101C6000C3F8002100BF70472DE9F05F80460D46A4
:101C70001646002702F0E4FD074639462A46334659
:101C800001F00700C0F1070ABAF1040F02D94FF0C2
:101C9000040A01E0C0F1070AD14600F1040ABAF1D2
:101CA000070F02D24FF0000A01E0A0F1030AD44668
:101CB0004FF0010A0AFA09FAAAF1010A0AEA020A2D
:101CC0000AFA0CFA4FF0010B0BFA0CFBABF1010B0B
:101CD0000BEA030B4AEA0B042146404602F0B8FD2A
:101CE000BDE8F09F00BF00F00702064B19684FF6F1
:101CF000FF031940044B0B4343EA0221014B1960D7
:101D000000BF70470CED00E00000FA0570B5044616
:101D10000D460CB9012070BD5A48006800F007005C
:101D2000A8420ED25748006820F0070028435549C2
:101D300008600846006800F00700A84201D00120B2
:101D4000E9E7207800F0020002281DD1207800F099
:101D50000400042805D14C48406840F4E0604A493A
:101D60004860207800F00800082805D146484068FF
:101D700040F46050444948604348406820F0F00017
:101D8000A168084340494860207800F0010078B31A
:101D90006068012806D13C48006800F4003090B922
:101DA0000120B8E76068022806D13748006800F0D3
:101DB000007040B90120AEE73348006800F002002F
:101DC00008B90120A7E73048406820F003006168A7
:101DD00008432D494860FFF78FFE064609E0FFF7EC
:101DE0008BFE801B41F28831884202D9032092E7A2
:101DF00007E02548406800F00C006168B0EB810FF7
:101E0000EDD12048006800F00700A8420ED91D4817
:101E1000006820F0070028431A4908600846006857
:101E200000F00700A84201D0012074E7207800F0FC
:101E30000400042807D11448406820F4E060E168F9
:101E4000084311494860207800F00800082808D1AC
:101E50000D48406820F46050216940EAC1000A49F9
:101E6000486000F03FF808494968C1F30311074A88
:101E7000515CC8400649086006480068FFF79AFEB2
:101E8000002048E7002002400010024006680008D9
:101E90000C0000200400002001480068704700008A
:101EA0000C00002000B5FFF7F7FF04494968C1F3B3
:101EB0000221034A515CC84000BD000000100240EE
:101EC0001668000800B5FFF7E7FF04494968C1F349
:101ED000C221034A515CC84000BD0000001002400E
:101EE0001668000870B5002100220024002300209D
:101EF000134D696801F00C05F5B1042D02D0082DD1
:101F000019D101E00F4819E00F4DC1F38346AB5DD5
:101F100001F4803555B10A4D6D68C5F340450B4E4F
:101F2000725D084D5D43B5FBF2F402E0084D03FB22
:101F300005F4204602E000BF024800BF00BF70BDAC
:101F40000010024000127A00F467000804680008DC
:101F500000093D00F8B504460CB90120F8BD207811
:101F600000F00100002878D0F848406800F00C002C
:101F700004280CD0F548406800F00C00082811D166
:101F8000F248406800F48030B0F5803F0AD1EF4855
:101F9000006800F4003000285FD0606800285CD141
:101FA0000120DBE700BF6068B0F5803F06D1E7485D
:101FB000006840F48030E549086028E0606858B95E
:101FC000E248006820F48030E04908600846006874
:101FD00020F4802008601AE06068B0F5A02F0BD1D3
:101FE000DA48006840F48020D84908600846006854
:101FF00040F4803008600AE0D448006820F4803063
:10200000D24908600846006820F48020086000BFBC
:10201000606888B1FFF770FD054606E0FFF76CFDCC
:10202000401B642801D9032098E7C848006800F4E1
:1020300000300028F2D010E0FFF75EFD054606E014
:10204000FFF75AFD401B642801D9032086E7BF48EB
:10205000006800F400300028F2D1207800F002007F
:10206000022857D1B948406800F00C0050B1B74879
:10207000406800F00C00082818D1B448406800F40B
:10208000803098B9B148006800F0020020B12069A2
:10209000012801D0012061E7AC48006820F0F80079
:1020A000616940EAC100A949086033E02069E8B1EC
:1020B0000120A7490860FFF71FFD054606E0FFF76E
:1020C0001BFD401B022801D9032047E79F480068F9
:1020D00000F002000028F2D09C48006820F0F800D0
:1020E000616940EAC1009949086013E000209849FD
:1020F0000860FFF701FD054606E0FFF7FDFC401B09
:10210000022801D9032029E79048006800F0020066
:102110000028F2D1207800F0080008282DD1A0690D
:10212000B8B101208B490860FFF7E6FC054606E0E0
:10213000FFF7E2FC401B022801D903200EE7834889
:10214000406A00F002000028F2D0012001F01AF8E5
:1021500013E000207F490860FFF7CEFC054606E04B
:10216000FFF7CAFC401B022801D90320F6E6774896
:10217000406A00F002000028F2D1207800F004004C
:10218000042873D100277148C06900F0805070B9ED
:1021900000BF6E48C06940F080506C49C861084675
:1021A000C06900F08050009000BF00BF01276A485E
:1021B000006800F48070B0B96748006840F480702F
:1021C00065490860FFF798FC054606E0FFF794FCB8
:1021D000401B642801D90320C0E65F48006800F472
:1021E00080700028F2D000BFE068012806D157486F
:1021F000006A40F001005549086227E0E06858B9DC
:102200005248006A20F00100504908620846006AFE
:1022100020F00400086219E0E06805280BD14B4863
:10222000006A40F00400494908620846006A40F02C
:10223000010008620AE04548006A20F001004349B5
:1022400008620846006A20F00400086200BFE068E7
:10225000A0B1FFF751FC054609E0FFF74DFC401B1C
:1022600041F28831884202D9032077E622E03748DC
:10227000006A00F002000028EFD012E0FFF73CFCFB
:10228000054608E0FFF738FC401B41F288318842E0
:1022900001D9032062E62D48006A00F00200002800
:1022A000F0D1012F05D12948C06920F0805027497D
:1022B000C86100BFE069C8B32448406800F00C0062
:1022C000082860D0E069022848D10020204908662B
:1022D000FFF712FC054606E0FFF70EFC401B022844
:1022E00001D903203AE61948006800F00070002880
:1022F000F2D1206AB0F5803F07D11448406820F43D
:102300000030A168084311494860D4E90801084336
:102310000E49496821F4741108430C4948600120B2
:102320000B490866FFF7E8FB054607E03DE0FFF7CD
:10233000E3FB401B022801D903200FE60348006895
:1023400000F000700028F2D02FE0000000100240E2
:1023500000004242800442420070004000201449C4
:102360000866FFF7C9FB054606E0FFF7C5FB401B03
:10237000022801D90320F1E50E48006800F0007042
:102380000028F2D111E0E069012800D1E6E5094812
:10239000466806F48031206A814204D106F4701147
:1023A000606A814201D00120D8E50020D6E5000016
:1023B000000042420010024070B504462546681EE7
:1023C000B0F1807F01D301200FE0681E4FF0E021C3
:1023D00048610F214FF0FF3002F03AFA00204FF031
:1023E000E021886107200861002070BD2DE9F041DF
:1023F00004460D461646002700BF94F83C0001280D
:1024000002D10220BDE8F081012084F83C0000BF29
:1024100036B1042E1BD0082E31D00C2E5ED145E0F3
:102420002946206801F0D2FE2068806940F008004B
:10243000216888612068806920F004002168886133
:1024400020688069296908432168886148E0294635
:10245000206801F0EBFE2068806940F4006021688C
:1024600088612068806920F4806021688861206824
:102470008069296940EA01202168886130E02946A5
:10248000206801F007FF2068C06940F0080021685B
:10249000C8612068C06920F004002168C861206814
:1024A000C069296908432168C86119E02946206884
:1024B00001F024FF2068C06940F400602168C86111
:1024C0002068C06920F480602168C8612068C06904
:1024D000296940EA01202168C86101E0012700BFA5
:1024E00000BF00BF002084F83C0000BF384689E7E9
:1024F00010B504460CB9012010BD94F83D0028B970
:10250000002084F83C00204600F025F8022084F8E2
:102510003D00211D206801F005FE012084F84600E1
:1025200000BF84F83E0001213F20015540200155A5
:102530004120015500BF00BF012084F84200432024
:102540000155442001554520015500BF012084F864
:102550003D000020D0E7704770B504460D4615B920
:1025600094F83E000BE0042D02D13F20005D06E010
:10257000082D02D14020005D01E04120005D0128CE
:1025800001D0012070BD1DB9022084F83E000EE08C
:10259000042D03D102213F20015508E0082D03D16D
:1025A00002214020015502E0022141200155012273
:1025B0002946206801F0F8FD19492068884201D1B8
:1025C000012000E0002028B12068406C40F4004069
:1025D000216848641249206888420BD02068B0F115
:1025E000804F07D00F492068884203D00E492068E9
:1025F00088420CD12068806800F00706062E0CD0B7
:102600002068006840F001002168086005E020684B
:10261000006840F00100216808600020B2E7000077
:10262000002C01400004004000080040704710B535
:10263000044600BF00BF21680C3151E8001F21F49F
:10264000907021680C3141E80002002AF3D100BFEC
:1026500000BF00BF2168143151E8001F21F00100C4
:102660002168143141E80002002AF3D100BF206B39
:1026700001280ED100BF00BF21680C3151E8001FB6
:1026800021F0100021680C3141E80002002AF3D14A
:1026900000BF2068406900F0400000B300BF00BFE9
:1026A0002168143151E8001F21F0400021681431E5
:1026B00041E80002002AF3D100BFE06B78B10020AE
:1026C000E16B4863E06BFEF7D3FF40B1E06BFFF7CF
:1026D00053F8202803D110206064032010BD00208F
:1026E000E085202084F842000020206300BFF5E749
:1026F00010B504461CB105492068884200D010BDC1
:102700002046FEF7B1FB00BFF9E7000000380140AA
:102710002DE9F84F0446206805682068C6682068DF
:1027200047694FF00009CA4605F00F09B9F1000FDB
:102730000AD105F0200038B106F0200020B1204673
:1027400001F0C2FEBDE8F88FB9F1000F7BD007F0B1
:10275000010018B906F49070002874D005F001004B
:1027600030B106F4807018B1606C40F00100606414
:1027700005F0040030B107F0010018B1606C40F0C2
:102780000200606405F0020030B107F0010018B1EA
:10279000606C40F00400606405F0080048B106F089
:1027A000200010B907F0010018B1606C40F008007B
:1027B0006064606C002845D005F0200028B106F068
:1027C000200010B1204601F07FFE20684069C0F370
:1027D000801A606C00F0080010B9BAF1000F2CD01C
:1027E000204601F02BFE2068406900F0400000B355
:1027F00000BF00BF2168143151E8001F21F04000E4
:102800002168143141E80002002AF3D100BFE06BD7
:1028100050B17748E16B4863E06BFEF755FF88B134
:10282000E06B416B88470DE02046FFF761FF09E050
:1028300009E02046FFF75CFF04E02046FFF758FF61
:10284000002060647EE7206B012877D105F010003E
:10285000002873D006F010000028FAD000BF002036
:10286000009020680068009020684068009000BFD9
:1028700000BF2068406900F0400000285FD0E06B96
:10288000006840681FFA80F8B8F1000F55D0A08D9D
:10289000404552DDA4F82E80E06B8069202843D0AB
:1028A00000BF00BF21680C3151E8001F21F4807087
:1028B00021680C3141E80002002AF3D100BF00BFBB
:1028C00000BF2168143151E8001F21F00100216888
:1028D000143141E80002002AF3D100BF00BF00BF5D
:1028E0002168143151E8001F21F0400021681431A3
:1028F00041E80002002AF3D100BF202084F8420002
:102900000020206300BF00BF21680C3151E8001F88
:1029100021F0100021680C3141E80002002AF3D1B7
:1029200000BFE06BFEF7A4FE02206063A08DE28D85
:10293000801A81B22046FFF779FE03E742E0A08DBE
:10294000E18D401A1FFA80F8E08DD0B3B8F1000F86
:1029500037D000BF00BF21680C3151E8001F21F4BF
:10296000907021680C3141E80002002AF3D100BFC9
:1029700000BF00BF2168143151E8001F21F00100A1
:102980002168143141E80002002AF3D100BF202061
:1029900084F842000020206300BF00BF21680C3192
:1029A00051E8001F21F0100021680C3141E80002BD
:1029B000002AF3D100BF0220606341462046FFF7A2
:1029C00035FEBFE605F0800030B106F0800018B19A
:1029D000204601F095FEB5E605F0400030B106F066
:1029E000400018B1204601F05FFDABE600BFA9E64C
:1029F0004543000810B504460CB9012010BDA0697C
:102A000000B100E000BF94F8410028B9002084F82C
:102A10004000204600F029F8242084F84100206876
:102A2000C06820F400502168C860204601F0CAFD4B
:102A30002068006920F4904021680861206840699E
:102A400020F02A00216848612068C06840F40050E6
:102A50002168C86000206064202084F8410084F868
:102A600042000020606300BFC8E7704770B50446AD
:102A70000D46164694F8420020280BD105B10EB938
:102A8000012070BD0020206332462946204601F017
:102A900017FEF6E70220F4E710B504462549206842
:102AA000884244D12448007860B124480068244A10
:102AB0001288811801222046FFF7D8FF08B1FEF7DF
:102AC00099FC10BD1E480088FF2829D81C480088A2
:102AD000401C1B49088008460088FF2818D8174862
:102AE00000680A461288811801222046FFF7BEFFBF
:102AF000E8B194F84200222802D1FEF77BFC16E0F0
:102B000010480068401C0F490860FEF773FC0EE097
:102B10000D480068401C0C490860FEF76BFC06E09D
:102B200009480068401C08490860FEF763FC00BFC4
:102B3000C7E7000000380140B40000207800002002
:102B400080000020880000208C0000202DE9F84F34
:102B500004460E46174699464FF0000A94F8410085
:102B6000202850D106B117B90120BDE8F88F002008
:102B70006064212084F84100FEF7BEFF8246A784EE
:102B8000E784A068B0F5805F04D1206910B9002502
:102B9000B04602E035464FF000081EE053460022E2
:102BA00080212046CDF8009001F0DAFD20B12020F0
:102BB00084F841000320D8E745B9B8F80000C0F315
:102BC00008002168486008F1020803E028782168BD
:102BD00048606D1CE08C401EE084E08C0028DDD154
:102BE0005346002240212046CDF8009001F0B8FD68
:102BF00020B1202084F841000320B6E7202084F88B
:102C000041000020B1E70220AFE770475B2204A13A
:102C10000620FEF7CBFC062001F076F800BFFEE7A9
:102C20002E2E2F436F72652F5372632F73746D3383
:102C300032663178785F69742E63000000B585B024
:102C40000020019002900390049000BF1348806917
:102C500040F00800114988610846806900F00800CA
:102C6000009000BF00BFC020019011200290012001
:102C700003900320049001A90948FEF795FD012265
:102C800040210748FEF732FF012280210448FEF769
:102C90002DFF00F045FB05B000BD00000010024014
:102CA000000C01406B2204A10720FEF77FFC0720E7
:102CB00001F02AF800BFFEE72E2E2F436F72652F1A
:102CC0005372632F73746D3332663178785F697431
:102CD0002E6300002DE9F04107460C4600F032F962
:102CE00028B90321084600F0B7F9BDE8F0810120BA
:102CF0001C490870032048706006000E8870002090
:102D000014E03A1802EB4202174B33F822100A0A79
:102D1000032303EB4003DFF84CC00CF8032004232B
:102D200003EB40030CF80310411C88B2A042E8DB1F
:102D300000F0B0F9032000EB440085B229460948B1
:102D4000FEF715FC064607494E55310A054A681C30
:102D50001154A81C81B20522024801F043FB00BFB8
:102D6000C3E70000F01F0020F02000201CB507483A
:102D7000006800B11CBD002000900190684601F081
:102D8000D3FD0249086000BFF4E70000D80000202E
:102D90002DE9F04104460F460CB1082F01D0BDE8E3
:102DA000F081E078A17840EA01266079217940EA53
:102DB00001250DB17D2D04D90321084600F04CF901
:102DC000EDE70A2E04D20A2D02D870190A2804D978
:102DD0000221032000F040F9E1E729463046FFF7E1
:102DE00079FF00BFDBE700002DE9F041044688468B
:102DF00014B1B8F1080F01D0BDE8F081E078A178F6
:102E000040EA01256079217940EA01260A2D04D3A0
:102E10000221062000F020F9EEE73146284600F0B6
:102E20006DF920B90321062000F016F9E4E701202E
:102E30000C49087006204870280A8870CD70300A46
:102E400008714E7106210748FEF791FB07460549B8
:102E50008F71380AC87105220821024801F0C2FAB0
:102E600000BFC9E7F01F002010B5FFF77FFF00206B
:102E700017E0002100EB4002214B23F8221000EB69
:102E8000400203EB8202518000EB400203EB82021E
:102E900011711C4900EB400203EB82029160411C5E
:102EA00088B20A28E5D3002011E0174931F8101044
:102EB00000EB4002124B23F82210134931F8101096
:102EC00000EB400203EB82025180411C88B20628CD
:102ED00001DA0A28E9D301200949087101210848CB
:102EE0000174017780F828100849042000F09CF84C
:102EF0000749052000F098F800F0DAF910BD00004D
:102F0000F0200020712F00081E680008832F0008A1
:102F1000732F000870B504460D460A2C01D300201B
:102F200070BD00F00FF808B90020F9E704EB440089
:102F3000034921F8205000F0ADF80120F0E700002F
:102F4000F020002010B5FFF711FF0848006808B90D
:102F5000002010BD4FF0FF310448006801F01AFD59
:102F600008B90120F5E70020F3E70000D8000020B1
:102F7000704770B505460C46E1B2022000F0A5F995
:102F800070BD70B505460C462146012000F095F94C
:102F900070BD000038B500224FF48071144801F074
:102FA000F6F904460020009004B938BD6A4621466F
:102FB0000F4800F07BF800B9F7E79DF80000032800
:102FC00002D006280AD104E021460948FFF7E0FEB6
:102FD0000AE021460648FFF707FF05E001219DF8BA
:102FE000000000F039F800BF00BF00BFDDE70000BF
:102FF000F01E002070B504460D460DB10A2C01D319
:10300000002070BDFFF79EFF08B90020F9E704EB30
:103010004400044931F82000288000F03BF80120EA
:10302000EFE70000F020002070B504460D460A2CA2
:1030300001D3002070BDFFF785FF08B90020F9E734
:1030400004EB4400034901EB8000856000F022F8A6
:103050000120EFE7F02000207CB504460D4601205A
:103060008DF8000044F080008DF801008DF80250CA
:1030700003216846FEF77BFA0646F0B28DF803009E
:10308000300A8DF8040005221146684601F0AAF9BD
:103090007CBD000010B50448006818B10248006803
:1030A00001F050FC10BD0000D80000202DE9F041D7
:1030B00004460D46164604B116B90020BDE8F0815D
:1030C000082D01D20020F9E72078012801D0002046
:1030D000F4E7A81E215C681E205C41EA0028A81EB7
:1030E00081B22046FEF743FA0746B84501D00020DA
:1030F000E4E7607830700120E0E700002DE9F0415E
:1031000004460D46002600270A2C02D30020BDE805
:10311000F081042C03D1B42D01D90020F7E7052C50
:1031200003D1FF2D01D90020F1E7FFF70BFF08B90C
:103130000020ECE704EB4400104901EB800000792B
:1031400018B1FFF7A7FF0020E1E704EB44000B49AB
:1031500031F8206004EB440021F8205004EB4400D7
:1031600001EB80008768FFF795FF27B1AE4202D0E0
:1031700029463046B8470120C9E70000F02000206A
:1031800000BFFEE708B508490968C9084FF47A721C
:10319000B1FBF2F14143009100BF00BF00994A1E0C
:1031A00000920029F9D108BD0C0000202DE9F0475C
:1031B0008046894614461D46FEF754FA074600BF6E
:1031C00023462A464946404600F0B6F808B9012091
:1031D00000E00020064606B104E03846FEF7D0FACB
:1031E000002FEDD100BF3046BDE8F0872DE9F04754
:1031F00006460F4690469946FEF734FA054600BF4C
:103200004B4642463946304600F0ADF808B9012039
:1032100000E00020044604B104E02846FEF7B0FABE
:10322000002DEDD100BF2046BDE8F0872DE9F0412B
:1032300080460C461546FEF715FA074604B115B947
:103240000020BDE8F08100BF22462946404600F03C
:1032500053FA08B9012000E00020064606B104E058
:103260003846FEF78DFA002FEED100BF3046E8E772
:103270002DE9F04706460F4690469946FEF7F2F9CB
:10328000054600BF4B4642463946304600F060FADC
:1032900008B9012000E00020044604B104E02846FB
:1032A000FEF76EFA002DEDD100BF2046BDE8F08795
:1032B00010B5FDF711FD012010BD70B504460D4697
:1032C00029462046FDF774FD70BD70B506460C46D4
:1032D000752C02D9892C00D27F247F2C0AD24FF47E
:1032E0007A7060437F21B0FBF1F040F6C411081AF8
:1032F00085B210E07F2C0CD9A4F180004FF47A71D4
:1033000048437F21B0FBF1F040F2DC51081A85B24E
:1033100001E040F2DC5529463046FDF779FD70BDED
:1033200008B50020009003E000BF0098401C00900A
:1033300000980828F8D308BD2DE9F04107468846D3
:1033400014461D464146384600F0B6F9064616B109
:103350003046BDE8F0812A462146384600F0ACF8F8
:1033600006463046F5E72DE9F04107468846154602
:103370001E4600F035F9044614B12046BDE8F08140
:10338000002141EA4701C8B200F0DEF804461CB152
:1033900000F04EF92046F1E7404600F0D5F804462B
:1033A0001CB100F045F92046E8E700F019F90446A1
:1033B0001CB100F03DF92046E0E7012101EB470197
:1033C000C8B200F0C1F804461CB100F031F9204643
:1033D000D4E70BE0012D03D100F00EF8307002E0CD
:1033E00000F03AF83070761C681E85B2002DF1D1DD
:1033F00000F01EF90020C1E770B5002401228021F1
:103400001448FEF773FB002240211248FEF76EFBC2
:10341000002518E0012240210E48FEF767FBFFF768
:103420007FFF6006040E80210A48FEF74DFB08B1BD
:1034300044F00104002240210648FEF757FBFFF745
:103440006FFF681CC5B2082DE4DB00F0AFF8204622
:1034500070BD0000000C014070B5002401228021E5
:103460001448FEF743FB002240211248FEF73EFBC2
:10347000002518E0012240210E48FEF737FBFFF738
:103480004FFF6006040E80210A48FEF71DFB08B1BD
:1034900044F00104002240210648FEF727FBFFF715
:1034A0003FFF681CC5B2082DE4DB00F033F820466E
:1034B00070BD0000000C01402DE9F04107460C46AC
:1034C000154600F08DF8064626B100F0B1F83046FA
:1034D000BDE8F081012101EB4701C8B200F034F8EA
:1034E00006461EB100F0A4F83046F1E70BE0012CCF
:1034F00003D1FFF781FF287002E0FFF7ADFF2870CE
:103500006D1C601E84B2002CF1D100F091F80020F7
:10351000DEE7000010B5002280210A48FEF7E6FA37
:10352000FFF7FEFE012240210648FEF7DFFAFFF713
:10353000F7FE002240210348FEF7D8FAFFF7F0FE1D
:1035400010BD0000000C014070B50446002240216F
:103550001548FEF7CBFA002521E004F0800028B1E1
:10356000012280211048FEF7C1FA04E000228021E8
:103570000D48FEF7BBFA6006040EFFF7D1FE0122EC
:1035800040210948FEF7B2FAFFF7CAFE00224021A7
:103590000548FEF7ABFAFFF7C3FE681CC5B2082D5D
:1035A000DBDB00F05FF870BD000C014010B50122BC
:1035B00080210A48FEF79AFAFFF7B2FE0122402165
:1035C0000648FEF793FAFFF7ABFE002240210348BE
:1035D000FEF78CFAFFF7A4FE10BD0000000C0140BE
:1035E00010B5012280211148FEF780FAFFF798FEFE
:1035F000012240210D48FEF779FAFFF791FE802164
:103600000A48FEF761FA08B9012010BD00228021A6
:103610000648FEF76BFAFFF783FE002240210348BD
:10362000FEF764FAFFF77CFE0020EEE7000C014095
:1036300010B5002280210A48FEF758FAFFF770FE05
:10364000012240210648FEF751FAFFF769FE0122E8
:1036500080210348FEF74AFAFFF762FE10BD000022
:10366000000C014010B50024012280211148FEF712
:103670003DFAFFF755FE012240210E48FEF736FACB
:10368000FFF74EFE07E0601CC4B2FA2C03D9FFF727
:10369000CFFF022010BD80210648FEF715FA002852
:1036A000F1D1002240210348FEF720FAFFF738FE4F
:1036B0000020EFE7000C014070B505460E46FFF70D
:1036C0008FFF04460CB1204670BD002141EA450140
:1036D000C8B2FFF739FF04461CB1FFF7A9FF204627
:1036E000F2E73046FFF730FF04461CB1FFF7A0FFBA
:1036F0002046E9E70020E7E72DE9F04106460F46BE
:103700009046FFF76DFF054615B12846BDE8F081EC
:10371000002141EA4601C8B2FFF716FF05461DB178
:10372000FFF786FF2846F1E700240BE018F80400B5
:10373000FFF70AFF05461DB1FFF77AFF2846E5E7C8
:10374000601CC4B2BC42F1DBFFF772FF0020DDE772
:103750002DE9F04706460F4690469946FFF740FF91
:10376000044614B12046BDE8F087002141EA460135
:10377000C8B2FFF7E9FE04461CB1FFF759FF204627
:10378000F1E73846FFF7E0FE04461CB1FFF750FFB3
:103790002046E8E700250BE019F80500FFF7D4FE06
:1037A00004461CB1FFF744FF2046DCE7681CC5B2A5
:1037B0004545F1DBFFF73CFF0020D4E710B5044698
:1037C00000200949087005E0FDF77CFA4FF4FA7013
:1037D00001F08FF8044800780028F5D0FDF75EFA74
:1037E000002001F03AF910BDF00000202DE9F84367
:1037F000814600250026002701F08CF8054601F0DF
:1038000089F8064601F086F8074600201B49087033
:1038100000BF1A48007800B12CE001F07BF80446A4
:10382000601BB0F57A7F11D3002000906946032019
:10383000FFF7E0FB40B1BDF8000080F00F08414603
:103840000320FFF767FB00BF254600BFA01B40F623
:10385000B831884202D300F08FFA2646E01B42F2CC
:103860001071884202D300F05FF927460A2001F068
:1038700040F8CEE700BFBDE8F8830000F10000206B
:1038800010B5044600200949087007E0FFF782FBE5
:10389000FDF7E0FC10B9012001F02BF80348007897
:1038A0000028F3D0002001F0D8F810BDF20000206D
:1038B00010B5FEF75FF902F04BFD012801D002F0D0
:1038C000C1F810BD00B58FB0282105A8FCF726FE71
:1038D00014216846FCF722FE0120059000040690A2
:1038E000002007900120099002200C90C1030D9147
:1038F0004FF4E0110E9105A8FEF72CFB08B1FDF77F
:1039000091FE0F20009002200190002002904FF4C1
:10391000806003900020049002216846FEF7F6F9CB
:1039200008B1FDF77FFE0FB000BD704710B5084825
:10393000016808A000F060FA0848016808A000F0DB
:103940005BFA0848016808A000F056FA10BD0000B4
:10395000E40000205541525400000000E000002027
:103960004C454400E80000204D6F6E69746F720092
:1039700030B5A1B02B48446A002504F0005040B196
:1039800029A2802101A8FCF775FC01A800F05AF9D2
:10399000012504F0804040B12DA2802101A8FCF750
:1039A00069FC01A800F04EF9012504F0006040B167
:1039B00030A2802101A8FCF75DFC01A800F042F9CB
:1039C000012504F0806040B133A2802101A8FCF7FA
:1039D00051FC01A800F036F9012504F0805040B1F7
:1039E00036A2802101A8FCF745FC01A800F02AF9C5
:1039F000012504F0004040B138A2802101A8FCF765
:103A000039FC01A800F01EF9012515B93BA000F012
:103A100019F90448406A40F080700249486221B0B8
:103A200030BD0000001002405B52455345545D20FC
:103A3000496E646570656E64656E74205761746369
:103A400068646F672074696D656F75740D0A000096
:103A50005B52455345545D2057696E646F7720571C
:103A600061746368646F672074696D656F75740D48
:103A70000A0000005B52455345545D20506F776546
:103A8000722D6F6E2F506F7765722D646F776E2079
:103A900072657365740D0A005B52455345545D2091
:103AA00045787465726E616C204E52535420706973
:103AB0006E2072657365740D0A0000005B524553F9
:103AC00045545D20536F667477617265207265732B
:103AD000657420284E564943290D0A005B52455310
:103AE00045545D204C6F772D706F776572206D6F38
:103AF00064652072657365740D0A00005B5245535E
:103B000045545D20466972737420706F7765722D1D
:103B10006F6E20286E6F20726573657420666C610D
:103B20006773290D0A00000010B5FFF7FFFE10BDF6
:103B3000F0B587B004460D4616461F461CB115B1B8
:103B40000FB1842E02D1002007B0F0BD1C2207491E
:103B50006846FCF7A9FC00940195ADF8086004974D
:103B60000021684600F04AFFEEE700002C680008DC
:103B700010B500F007FC00F0D3FA68B9022009493B
:103B8000087009A000F05EF838220FA10520FDF7AB
:103B90000DFDFDF747FD10BDFFF7EAFE00F0F4F85C
:103BA00000BFF8E7EC0000204552523A20696E76DB
:103BB000616C69642073797374656D20636F6E66E0
:103BC00069670D0A000000002E2E5C4170705C5386
:103BD000797374656D5C5372635C73797374656D2E
:103BE0005F6374726C2E630010B5044614B12046F6
:103BF00000F033FF10BD000088B00948037809A227
:103C000020216846FCF736FB0446002C02DD68469E
:103C1000FDF724FD72B6FDF74BF800BFFEE700008C
:103C2000DC000020534146455F4D4F44455F454E03
:103C30005445523A204552525F545950453D2575DE
:103C40000D0A000070B5044604B970BD2046FCF7AB
:103C5000C7FB85B214222946204600F0C3FB00BFF3
:103C6000F3E7000010B504460CB9002010BD0BA10D
:103C70002046FCF77BFC08B90948F7E709A1204674
:103C8000FCF774FC08B90948F0E709A12046FCF7E5
:103C90006DFC08B90848E9E70020E7E74C45440017
:103CA000ED0000205541525400000000EE000020BD
:103CB0004D6F6E69746F7200EF00002010B50446FE
:103CC0000CB9002010BD0BA12046FCF74FFC08B931
:103CD0002220F7E708A12046FCF748FC08B962203B
:103CE000F0E707A12046FCF741FC08B93020E9E7DE
:103CF0000020E7E74C4544005541525400000000C5
:103D00004D6F6E69746F7200044672B61748047086
:103D10000A2C06D2164850F82400401C144941F8D9
:103D2000240022E0201F06281AD2DFE800F0031941
:103D3000090D1115FCF7BCFF0E48FDF70FFC13E051
:103D40000120FDF7D9FB0FE00220FDF7D5FB0BE0CA
:103D50000320FDF7D1FB07E00420FDF7CDFB03E0D6
:103D60000520FDF7C9FB00BF00BFDBE7DC0000203A
:103D700068210020A0BB0D0010B50248FDF7F3FE3E
:103D800010BD00009021002010B50B480B490860C1
:103D90000620486040F20D3108488160FDF7B2FE10
:103DA00040B140F2C51206A10520FDF7FFFB0CA0B3
:103DB000FFF748FF10BD00000030004090210020B8
:103DC0002E2E5C4170705C53797374656D5C537218
:103DD000635C73797374656D5F6374726C2E6300DA
:103DE0004552523A204957444720696E697420660B
:103DF00061696C65640D0A002DE9F84306460F46BB
:103E00004FF00008002500240EB9BDE8F8833046C5
:103E1000FFF728FF044667B90CB100202070334635
:103E200020A250212948FCF725FA284800F096F8EE
:103E3000EBE7384601F026FA80463046FFF73EFFB2
:103E40000546334622A250212048CDF80080FCF7D9
:103E500011FA1E4800F082F89DB1A84511D814B19E
:103E6000207800B1D1E70CB101202070334620A2A8
:103E7000502116480095FCF7FDF9144800F06EF843
:103E80000EE06CB1207858B100202070334626A295
:103E900050210E480095FCF7EDF90C4800F05EF853
:103EA00000BFB2E7257320537461636B20576174C0
:103EB00065726D61726B3A20696E76616C6964201F
:103EC00068616E646C650D0A000000009C21002092
:103ED000257320537461636B2057617465726D6143
:103EE000726B3A20257520776F7264730D0A00009B
:103EF0003D3D3D3D3D5741524E3D3D3D3D3D3A20CE
:103F0000257320737461636B206C6F772077617405
:103F100065726D61726B203C3D20257520776F7254
:103F200064730D0A0A000000494E464F3A2025737B
:103F300020737461636B2077617465726D61726B5D
:103F4000207265636F76657265642061626F766565
:103F500020257520776F7264730D0A0000B97047D1
:103F600000BFFCE730B589B00446234607A22021F4
:103F700001A8FCF77FF90546002D02DD01A8FDF739
:103F80006DFBFCF795FE09B030BD0000534146457E
:103F9000204D4F44453A2025750D0A0010B5314893
:103FA0000068A0B940236FF001022F492FA0FFF74E
:103FB000BFFD2C4908600846006840B903202E491F
:103FC00008702EA0FFF73EFE2B48007810BD334846
:103FD0000068D0B9A0230022314932A0FFF7A8FD24
:103FE0002E4908600846006878B904202249087004
:103FF0002FA0FFF727FE1B480068FFF7F5FD002004
:10400000184908601C480078E0E734480068002838
:1040100021D16023421E324932A0FFF789FD2F498A
:10402000086008460068B0B905201349087031A03F
:10403000FFF708FE0B480068FFF7D6FD002009498E
:10404000086016480068FFF7CFFD0020134908609C
:1040500009480078BAE70020074908700846007848
:10406000B4E70000E0000020BD3700084C45445F85
:104070005461736B00000000EC0000204552523A7E
:1040800020637265617465204C45445F5461736BB5
:10409000206661696C65640D0A000000E400002080
:1040A00081380008554152545F5461736B00000021
:1040B0004552523A206372656174652055415254ED
:1040C0005F5461736B206661696C65642C20726F4C
:1040D0006C6C6261636B0D0A00000000E800002058
:1040E000ED3700084D6F6E69746F725F5461736BCA
:1040F000000000004552523A2063726561746520E9
:104100004D6F6E69746F725F5461736B2066616985
:104110006C65642C20726F6C6C6261636B0D0A00BD
:104120000120704710B502681C4B984208D0B0F1CE
:10413000804F05D01A4B984202D01A4B984203D1B7
:1041400022F070024B681A43144B984208D0B0F129
:10415000804F05D0124B984202D0124B984203D1A7
:1041600022F44072CB681A4322F080034C6943EA80
:10417000040202608B68C3620B688362074B98423B
:1041800001D10B69036301234361036903F0010358
:104190001BB1036923F00103036110BD002C014032
:1041A000000400400008004030B501F01F05012464
:1041B00004FA05F3046A9C430462046A01F01F05D3
:1041C00002FA05F52C43046230BD000030B5026AE6
:1041D000056A25F0010505624368846924F07004CE
:1041E00024F003040D682C4322F002028D682A4358
:1041F0000D4DA84206D100BF22F00802CD682A4327
:1042000022F00402084DA84207D123F4807323F45E
:1042100000734D692B438D692B43436084614D6866
:104220004563026230BD0000002C014030B5026AD7
:10423000056A25F0100505624368846924F4E044AA
:1042400024F440740D6844EA052422F020028D68AD
:1042500042EA05120E4DA84207D100BF22F08002AB
:10426000CD6842EA051222F04002094DA84209D168
:1042700023F4806323F400634D6943EA85038D6969
:1042800043EA8503436084614D688563026230BD03
:10429000002C014030B5026A056A25F4807505627C
:1042A0004368C46924F0700424F003040D682C43AF
:1042B00022F400728D6842EA05220F4DA84207D110
:1042C00000BF22F40062CD6842EA052222F4806237
:1042D000094DA84209D123F4805323F400534D69BA
:1042E00043EA05138D6943EA05134360C4614D68D1
:1042F000C563026230BD0000002C014030B5036A86
:10430000056A25F4805505624468C26922F4E042DA
:1043100022F440720D6842EA052223F400538D68AE
:1043200043EA0533064DA84204D124F480444D6984
:1043300044EA85144460C2614D680564036230BD7F
:10434000002C014070B505466C6A0020E085E084D1
:104350002046FEF7CDF970BD1CB50948006800B1D4
:104360001CBD01F0F5FF022808D10020009001904B
:10437000684600F0D9FA0249086000BF00BFEFE7C5
:10438000F400002010B5FFF7E7FF012010BD2DE974
:10439000F04106460F46144606B117B90020BDE8A5
:1043A000F081FDF7A9FB05464CB9FCF753FF20B19E
:1043B00039463046FCF764FFF1E70020EFE70AE0FA
:1043C000FCF748FF20B139463046FCF759FFE6E7D5
:1043D000012000F08EFAFDF78FFB401BA042EFD9C1
:1043E0000020DCE72DE9F04104460D46164604B1F5
:1043F00015B90020BDE8F081FFF7AEFF0E48006858
:1044000028B9324629462046FDF72AF8F2E7314618
:104410000948006800F0BEFA08B10020EAE7324619
:1044200029462046FDF71CF807460348006800F0BF
:1044300089FA3846DEE70000F400002000BF00BF24
:1044400002680C3252E8002F22F4907102680C329C
:1044500042E80013002BF3D100BF00BF00BF026889
:10446000143252E8002F22F001010268143242E8AF
:104470000013002BF3D100BF016B01290ED100BF47
:1044800000BF02680C3252E8002F22F010010268CF
:104490000C3242E80013002BF3D100BF202180F83A
:1044A000421000210163704710B504462068C068BF
:1044B00020F040002168C860202084F84100204698
:1044C000FEF7A3FB002010BDF8B5044694F84200A7
:1044D000222875D1A068B0F5805F0CD1206950B951
:1044E0000025A66A20684068C0F308003080A06AF2
:1044F000801CA06215E0A56A0026A068B0F5805F68
:1045000003D0A06828B9206918B9206840682870CD
:1045100004E02068406800F07F002870A06A401C1A
:10452000A062E08D401E80B2E085002846D1206860
:10453000C06820F020002168C8602068C06820F4AE
:1045400080702168C8602068406920F001002168FF
:104550004861202084F8420000206063206B01281D
:1045600026D10020206300BF00BF21680C3151E834
:10457000001F21F0100021680C3141E80002002AE0
:10458000F3D100BF2068006800F0100010280AD1A5
:1045900000BF0020009020680068009020684068FC
:1045A000009000BF00BFA18D2046FEF73FF802E05B
:1045B0002046FEF771FA0020F8BD01E00020FBE77D
:1045C0000220F9E770B504462168096921F44051D9
:1045D000E2681143226811612269A168114362698E
:1045E00041EA02052168C96841F20C6291432943FE
:1045F0002268D1602168496921F44071A2691143A0
:10460000226851612D4A2168914202D1FDF75AFC7E
:1046100001E0FDF747FC00EBC00101EB001162680F
:104620009200B1FBF2F100EBC00202EB00126368F2
:104630009B00B2FBF3F26423B2FBF3F202EBC20382
:1046400003EB0212A1EB8201322202EB0111642280
:10465000B1FBF2F101F0F00100EBC00202EB00123D
:1046600063689B00B2FBF3F26423B2FBF3F201EB4D
:10467000021200EBC00101EB001163689B00B1FB6B
:10468000F3F100EBC00303EB00136668B600B3FB65
:10469000F6F36426B3FBF6F303EBC30606EB031352
:1046A000A1EB8301322303EB01116423B1FBF3F18E
:1046B00001F00F0111442268916070BD0038014083
:1046C00010B5034699629A85DA8500205864222045
:1046D00083F84200186928B11868C06840F48070F7
:1046E0001C68E0601868406940F001001C68606167
:1046F0001868C06840F020001C68E060002010BD11
:10470000014691F84100212828D18868B0F5805FE2
:104710000BD1086948B90A6A1088C0F308000B6811
:104720005860086A801C086205E00B6A581C086221
:1047300018780B685860C88C401E80B2C88458B97D
:104740000868C06820F080000B68D8600868C068FE
:1047500040F040000B68D860002070470220FCE762
:104760002DE9F84304460D4617469846089E31E069
:10477000701C70B3FDF7C0F9A0EB0800B04200D880
:1047800016B90320BDE8F8832068C06800F0040073
:10479000F8B1802D1ED0402D1CD020680068C0F3D9
:1047A000C000B0B100BF00200090206800680090F9
:1047B00020684068009000BF00BF2046FFF73EFE23
:1047C0000820606400BF002084F8400000BF012082
:1047D000D8E7FFE7206800682840A84201D10120FF
:1047E00000E00020B842C3D00020CBE710B5FCF7B2
:1047F00049FC10BD08B505494143009100E000BFE8
:1048000000994A1E00920029F9D108BDA0090100B3
:104810008B2204A10920FCF7C9FE0920FFF774FAD6
:1048200000BFFEE72E2E2F436F72652F5372632F4A
:1048300073746D3332663178785F69742E6300006B
:1048400002480068C0F30220704700000CED00E051
:1048500010B5002804DB0A07130E054A135406E0BE
:104860000A07140E034A00F00F031B1FD45410BD97
:1048700000E400E018ED00E000BFEFF3058008B1B0
:10488000012070470020FCE710B5FDF77FF9FFF726
:1048900019F8FCF7D5F9FCF745FCFCF71DFAFEF713
:1048A000CDF9FBF793FFFCF773F8FEF7DDFAFFF79E
:1048B0005FF9FFF773FB30B1312205A10520FCF74A
:1048C00075FEFCF7AFFE00F020F8002010BD0000E0
:1048D0002E2E2F436F72652F5372632F6D61696E99
:1048E0002E63000001460020842901D0CA1C104418
:1048F000704770B5044625460DB1294600E00121F8
:10490000084600F019FE002070BD10B500F05CFFF5
:10491000002010BD10B5FFF7AFFF10B101F02EFD64
:1049200010BD01F025FDFBE710B50446606820B11D
:104930000120616801F0B1F810BD012001F09CF880
:10494000FAE7000038B50446002500200090FFF784
:1049500093FF90B16946204601F072FA012801D018
:10496000FF2038BD009888B14FF08050084908609A
:10497000BFF34F8FBFF36F8F08E000231A4619462D
:10498000204601F089F9012800D0FF252846E8E7F4
:1049900004ED00E0F8B506460C46002000900EB984
:1049A0008020F8BD0025601C08B96D1E03E014B11D
:1049B000254605B90125FFF75FFF98B16A4600213A
:1049C000304601F0ADFA012801D0FF20E9E7009858
:1049D00080B14FF0805008490860BFF34F8FBFF39C
:1049E0006F8F07E02946304601F000FB012801D017
:1049F000FF20D6E70020D4E704ED00E07FB50446B1
:104A00000D46606998B1A06988B1B4F90800FFF754
:104A100069FF0646D4E90510CDE9006102902B46F6
:104A20002269D4E9001001F035FC039013E0B4F9D9
:104A30000800FFF757FF064603A8CDE90060238A68
:104A40009AB22B46D4E9001001F0F2FB012802D003
:104A5000002004B070BD0398FBE710B50446204663
:104A600000F098FD002010BD2DE9F04105460E46EE
:104A70001C4807681C480068001D00F0EFFB50B997
:104A80001948006890F82C100120884017490968DF
:104A9000814316480160681C38B936B11248016874
:104AA000091D134800F052FC1AE07C190E480068FA
:104AB0004460BC4207D20C480168091D0D480068DB
:104AC00000F02AFC0CE008480168091D0A4800684B
:104AD00000F022FC09480068844201D207480460C3
:104AE000BDE8F081240000201000002028000020F4
:104AF0003004002018000020140000204000002096
:104B000010B5044600F02EFC24480068401C2349E0
:104B100008602348006840B92148046008460068DE
:104B200001280DD100F0C8F90AE01E48006838B924
:104B30001B480068C06AE16A884201D818480460CE
:104B400019480068401C18490860084600686064FD
:104B500094F82C100120884014490968084313492F
:104B60000860E16A01EB8101114A02EB8100211D1D
:104B700000F0ECFB00F020FC0A48006868B108482F
:104B80000068C06AE16A884207D24FF08050094944
:104B90000860BFF34F8FBFF36F8F10BD2000002060
:104BA000100000202C0000203C00002028000020E5
:104BB0005403002004ED00E010B516E000F0D2FB35
:104BC0000C48C068C468201D00F048FB0A48006813
:104BD000401E0949086009480068401E07490860EE
:104BE00000F0EAFB204600F05FF804480068002867
:104BF000E4D110BD1C040020200000201C00002077
:104C000070B504460D46206C70B1216CE06801441B
:104C1000E160D4E90210884201D32168E1602846AE
:104C2000226CE168FBF7FBFB70BD2DE9F041044607
:104C30000F4615464FF00008A66B206C48B9206857
:104C400000282CD1A06801F047FC80460020A0601D
:104C500025E07DB93946226C6068FBF7E0FB216CEA
:104C6000606808446060D4E90101884217D3206875
:104C7000606014E03946226CE068FBF7D0FB216CE1
:104C8000E068411AE1602168E068884203D2216C43
:104C9000A068411AE160022D01D106B1761E701C98
:104CA000A0634046BDE8F08110B5044694F8590071
:104CB00030B9206B00F09EFB204600F09BFB1AE011
:104CC00094F85900012803D1204600F093FB12E02C
:104CD00094F85900022801D1012000E0002050B9C9
:104CE00000BF502080F31188BFF34F8FBFF36F8F49
:104CF00000BF00BFFEE710BD01464A6A22B10A6B41
:104D00001268C2F1070000E00020704730B54FF490
:104D1000C053174800F007042CB1C01D20F0070055
:104D2000134C041B1B1B0246124C22600024114D25
:104D30006C60D018083820F007000F4C2060002469
:104D40000D4D2D686C600C4D2D682C601146441A79
:104D50004C60094C24680C60084D4C682C60084D70
:104D60004C682C604FF00044064D2C6030BD0000B4
:104D7000440400204C000020540000205C0000206F
:104D8000580000206800002000BFFFF715FF06480C
:104D900000680128F9D94FF0805004490860BFF33A
:104DA0004F8FBFF36F8FF0E75403002004ED00E056
:104DB00010B5044654B10020A06020600021E160DD
:104DC00000231A461946204600F066FF10BD2DE963
:104DD000F04106460D4617469846069C0DB92460DC
:104DE00000E02760E66325640121204600F008FF0B
:104DF00084F84C80BDE8F0812DE9F05F82460E46D4
:104E000090469B460A9F0C9C4FEA8801A522206B86
:104E1000FBF77CFBA8F10100216B01EB800929F075
:104E2000070909F0070008B9012000E0002050B987
:104E300000BF502080F31188BFF34F8FBFF36F8FF7
:104E400000BF00BFFEE786B1002507E0715D04F1F9
:104E500034004155705D00B902E06D1C102DF5D392
:104E600000BF00214320015502E0002084F83400F7
:104E7000072F00D30627E762E76400202065201D86
:104E800000F047FA04F1180000F043FA2461C7F17A
:104E90000700A06164620020606584F858005A46EB
:104EA0005146484600F0C8F920600B9808B10B98AD
:104EB0000460BDE8F09F000010B5002407E004EB9B
:104EC00084010F4A02EB810000F016FA641C072CE3
:104ED000F5D30C4800F010FA0B4800F00DFA0B481F
:104EE00000F00AFA0A4800F007FA0A4800F004FA4B
:104EF00004480949086004480849086010BD0000DA
:104F000054030020E0030020F403002008040020E4
:104F10001C04002030040020140000201800002091
:104F200010B50146164800E0006803688B42FBD3C9
:104F30000246436813448B4204D143684C682344BF
:104F4000436001460A464B6813440468A34211D1EA
:104F50000C4C03682468A34208D04B68046864685A
:104F600023444B6003681B680B6005E0054B1B681E
:104F70000B6001E003680B60884200D0016010BD47
:104F80004C0000205400002070B5054600F0EAF9FE
:104F9000A86B08B9012400E0002400F00DFA2046B7
:104FA00070BD70B5054600F0DDF9A86BE96B88426D
:104FB00001D1012400E0002400F0FEF9204670BD7C
:104FC0000A490968096809B9012100E0002121B1F5
:104FD0004FF0FF31064A116006E004490968C968CC
:104FE000C868034A4168116070470000140000203F
:104FF000400000200246002101E0521C491C1078AC
:10500000A528FAD0890888B2704700000E480068C9
:10501000401C08B9012000E0002050B900BF50201A
:1050200080F31188BFF34F8FBFF36F8F00BF00BFB6
:10503000FEE700BF502080F31188BFF34F8FBFF30E
:105040006F8F00BF00BFFEE76C00002070B5044604
:1050500000F088F994F9455010E0606A08B9012021
:1050600000E0002038B904F1240001F0F5FA18B18D
:1050700000F016FB00E003E0681E45B2002DECDCFA
:1050800000BFFF2084F8450000F096F900F06AF9AF
:1050900094F9445010E0206908B9012000E0002094
:1050A00048B904F1100001F0D7FA08B100F0F8FA9D
:1050B000681E45B200E001E0002DECDC00BFFF20DF
:1050C00084F8440000F078F970BD00002DE9F0414B
:1050D00004464FF0000800F0CFFB4948006808B9CB
:1050E000FFF714FE474800682040002870D1D4B173
:1050F000083404F00700B0B104F00700C0F1080064
:10510000044404F0070008B9012000E0002050B971
:1051100000BF502080F31188BFF34F8FBFF36F8F14
:1051200000BF00BFFEE7002C52D037480068844221
:105130004ED8364E3046056801E02E462D68686828
:10514000A04202D228680028F7D12D480068854285
:105150003ED0306800F10808286830606868001B9D
:10516000102819D92F1907F0070008B9012000E00D
:10517000002050B900BF502080F31188BFF34F8F3B
:10518000BFF36F8F00BF00BFFEE76868001B786049
:105190006C603846FFF7C4FE1B4968680968081A46
:1051A000194908600846006819490968884203D20D
:1051B000154800681649086012496868096808437C
:1051C00068600020286013480068401C114908608E
:1051D00001F08EFA08F0070008B9012000E0002075
:1051E00050B900BF502080F31188BFF34F8FBFF339
:1051F0006F8F00BF00BFFEE74046BDE8F0810000B2
:105200005400002068000020580000204C000020BE
:105210005C000020600000200648006830B10549AD
:10522000096801F15000096D491C016001480068DE
:105230007047000010000020001F4FF080730360D3
:10524000001F21F001030360001F034B03601438AB
:1052500002602038704700000D50000801460A69BE
:10526000D1E901309860D1E9010358605068884263
:1052700001D188685060002008611068401E1060ED
:10528000106870472DE9F041044614B906480068DB
:1052900000E0204607463D6B2846FFF7ABFE06467A
:1052A0003046BDE8F081000010000020034B036091
:1052B000034B0B608023136070470000F800002050
:1052C00054010020252203A10420FCF76FF90420DB
:1052D000FEF71AFD2E2E5C4170705C537973746575
:1052E0006D5C5372635C6572726F725F68616E644D
:1052F0006C65722E6300000000F1080141604FF000
:10530000FF31816000F10801C1600161002101608D
:10531000704700210161704710B502460B685C1CA4
:105320000CB9106907E002F1080000E04068446829
:1053300024689C42FAD944684C604C68A16088603B
:1053400041600A611468641C146010BD42684A60C0
:1053500093688B60936859609160086103685B1C77
:105360000360704700BF502080F31188BFF34F8F58
:10537000BFF36F8F00BF0E480068401C0C490860E7
:1053800008460068012812D10A480068C0B208B96E
:10539000012000E0002050B900BF502080F31188A8
:1053A000BFF34F8FBFF36F8F00BF00BFFEE77047A3
:1053B0006C00002004ED00E00D48006850B900BF0B
:1053C000502080F31188BFF34F8FBFF36F8F00BF62
:1053D00000BFFEE706480068401E05490860084611
:1053E000006820B9002080F3118800BF00BF70471B
:1053F0006C00002070B506463546002E44D0083DAE
:105400002C46224960680968084008B1012000E084
:10541000002050B900BF502080F31188BFF34F8F98
:10542000BFF36F8F00BF00BFFEE7206808B90120FF
:1054300000E0002050B900BF502080F31188BFF376
:105440004F8FBFF36F8F00BF00BFFEE70F4960684B
:1054500009680840C0B12068B0B90C4960680968A3
:105460008843606000F008FA0949606809680844E8
:10547000074908602046FFF753FD06480068401CB6
:105480000449086001F034F970BD00006800002094
:10549000580000206400002000204FF0E021086147
:1054A0008861064800684FF47A71B0FBF1F0401E45
:1054B0004FF0E02148610720086170470C00002090
:1054C00070B5FAF7B3FE0446102C16D304F1E020B1
:1054D00090F8F05315480078854201DB012000E088
:1054E000002050B900BF502080F31188BFF34F8FC8
:1054F000BFF36F8F00BF00BFFEE70D48006800F4E8
:10550000E0600C490968884201D8012000E00020D1
:1055100050B900BF502080F31188BFF34F8FBFF305
:105520006F8F00BF00BFFEE770BD0000700000205D
:105530000CED00E07400002070B504460025D4B1E5
:105540001248006808B9012000E0002050B900BFEF
:10555000502080F31188BFF34F8FBFF36F8F00BFD0
:1055600000BFFEE700F088F900212046FFF77CFA33
:1055700001F0BEF805463DB94FF08050044908607F
:10558000BFF34F8FBFF36F8F70BD00004800002046
:1055900004ED00E070B50546FFF7E4FE15B93048AC
:1055A000006800E028460446201DFFF757FE78B942
:1055B000E06A00EB80002B4951F8200040B994F8D4
:1055C0002C10012088402849096881432648016041
:1055D000A06A18B104F11800FFF740FE23480068E4
:1055E000401C224908601E480068844209D1211DE0
:1055F0001F48FFF7ABFE1F480068401C1D490860AC
:1056000009E01D480068401E1B4908602046FFF75E
:105610004BFBFFF7D5FCFFF7CFFE18480068E8B159
:105620000F480068844219D11548006808B9012064
:1056300000E0002050B900BF502080F31188BFF374
:105640004F8FBFF36F8F00BF00BFFEE74FF080505A
:105650000C490860BFF34F8FBFF36F8F70BD000020
:105660001000002054030020280000203C000020EF
:105670001C0400201C000020200000202C00002022
:105680004800002004ED00E0034909680160034977
:1056900009684160704700003800002024000020A5
:1056A00001200149086070473400002070B50446AD
:1056B0000D4654B900BF502080F31188BFF34F8FBF
:1056C000BFF36F8F00BF00BFFEE7054801681831C8
:1056D0002046FFF721FE01212846FFF7C5F970BDDE
:1056E000100000202DE9F04706460F4634464FF0E3
:1056F0000109002E60D0206D50B900BF502080F30A
:105700001188BFF34F8FBFF36F8F00BF00BFFEE75D
:10571000E06CB84201D23D4600E0E56CE06AA84288
:105720004AD0206D012847D124480068844201D026
:10573000012000E0002050B900BF502080F3118804
:10574000BFF34F8FBFF36F8F00BF00BFFEE7D4F8EA
:105750002C80E562A06900F0004010B9C5F1070097
:10576000A06108EB8801164A02EB8101606988425A
:1057700001D1012000E00020F0B1201DFFF76EFDF7
:1057800040B994F82C10012088400E4909688143E3
:105790000C48016094F82C100120884009490968E0
:1057A000084308490860E16A01EB8101044A02EB01
:1057B0008100211DFFF7CAFDBDE8F0871000002021
:1057C000540300202800002010B586B0002005906A
:1057D000049003AA04A905A8FFF768FD0022DDE9EB
:1057E00004101346CDE9002102901CA11D48039A24
:1057F00000F050FD1C4908600846006808B101240B
:1058000000E00024012C15D100BF502080F3118846
:10581000BFF34F8FBFF36F8F00BF4FF0FF301349BF
:10582000086001201249086000201249086000F059
:105830008DF810E0601C08B1012000E0002050B994
:1058400000BF502080F31188BFF34F8FBFF36F8FDD
:1058500000BF00BFFEE706B010BD000049444C4544
:1058600000000000894D0008440000204000002096
:105870002C0000202400002002480068401C014940
:10588000086070474800002070B52B48006818B1C8
:1058900001202A4908604DE0002028490860284876
:1058A0000068046B4FF0A5352068B0F1A53F0BD11F
:1058B0006068B0F1A53F07D1A068B0F1A53F03D162
:1058C000E068B0F1A53F05D01D480168343100689B
:1058D000FFF7F8FC1B480068B0FA80F0C0F11F0128
:1058E00001EB8100184A52F8200008B1012000E0C5
:1058F000002050B900BF502080F31188BFF34F8FB4
:10590000BFF36F8F00BF00BFFEE701EB81020E4BBC
:1059100003EB820042685268426000F1080243686B
:10592000934202D14268526842604268D268044B96
:105930001A6000BF70BD0000480000203400002045
:105940001000002028000020540300201CB5384916
:10595000084600780190FF200A461070084600783B
:1059600000909DF8000000F0F0009DF800209042AB
:1059700001D1012000E0002050B900BF502080F389
:105980001188BFF34F8FBFF36F8F00BF00BFFEE7DB
:105990009DF8000000F05000264A10700720264AAB
:1059A000106009E024480068401E234A10609DF8FA
:1059B00000004006000E00909DF8000000F08000FE
:1059C0008028EFD01C480068C0F10700042801D1EE
:1059D000012000E0002050B900BF502080F3118862
:1059E000BFF34F8FBFF36F8F00BF00BFFEE71248BA
:1059F00000680002104A10601046008800F4E06061
:105A000010600B4A019810700C48006840F4700058
:105A10000A4908600846006840F070400860FFF7D7
:105A20003BFD002006490860FAF7CAFB00201CBDB8
:105A300000E400E0700000207400002020ED00E091
:105A40006C00002010B500BF502080F31188BFF318
:105A50004F8FBFF36F8F00BF00F09AFC18B14FF06B
:105A600080500449086000BF002080F3118800BF07
:105A700010BD000004ED00E02DE9F04104460126D0
:105A8000002722460021012000F01CF80546284688
:105A9000FFF78EF92846BDE8F0812DE9F84304466A
:105AA0000D4601274FF000082B4600221146012029
:105AB000009400F034F806463046FFF779F9304696
:105AC000BDE8F8832DE9F84305460E4617460DB1AB
:105AD000012000E0002050B900BF502080F3118861
