:020000040800F2
:10000000D03200206D020008854B0008254400080E
:10001000A9460008A5280008316300080000000078
:10002000000000000000000000000000D5010008F2
:10003000212900080000000019020008555300089B
:10004000870200088702000887020008870200086C
:10005000870200088702000887020008870200085C
:10006000870200088702000887020008870200084C
:10007000870200088702000887020008870200083C
:10008000870200088702000887020008870200082C
:10009000870200088702000887020008870200081C
:1000A000870200088702000887020008870200080C
:1000B00087020008870200088702000887020008FC
:1000C00087020008870200088702000887020008EC
:1000D000870200080D6300088702000887020008F5
:1000E00087020008870200088702000800F002F873
:1000F00000F060F80AA090E8000C82448344AAF162
:100100000107DA4501D100F055F8AFF2090EBAE85F
:100110000F0013F0010F18BFFB1A43F0010318473B
:10012000588A0000788A00000A4410F8014B14F045
:100130000F0508BF10F8015B240908BF10F8014B38
:100140006D1E05D010F8013B6D1E01F8013BF9D181
:10015000641E03D0641E01F8015BFBD19142E4D31D
:10016000704700000023002400250026103A28BF15
:1001700078C1FBD8520728BF30C148BF0B60704719
:10018000662908F08484642900F0FA80752900F05B
:10019000F780732900F0D385002070471FB500F069
:1001A000F5FD04000020002108F0EAF8E0601FBD22
:1001B00010B510BD00F0E6FE1146FFF7EFFF06F0A8
:1001C0002DF900F004FF03B4FFF7F2FF03BC00F0C9
:1001D00005FF0000224B19680868B0E8F00F80F3B3
:1001E0000988BFF36F8F4FF0000080F311884EF045
:1001F0000D0E70470000000006480068006880F39C
:10020000088862B661B6BFF34F8FBFF36F8F00DF10
:1002100000BF00BF08ED00E0EFF30980BFF36F8F70
:100220000F4B1A6820E9F00F106008B54FF050002E
:1002300080F31188BFF34F8FBFF36F8F07F0EAF899
:100240004FF0000080F31188BDE808401968086885
:10025000B0E8F00F80F30988BFF36F8F704700BFDD
:1002600010000020EFF30580704700000948804728
:1002700009480047FEE7FEE7FEE7FEE7FEE7FEE788
:10028000FEE7FEE7FEE7FEE704480549054A064BA0
:1002900070470000CF530008ED000008D02A00206E
:1002A000D0320020D02E0020D02E002010B54C10CF
:1002B00084EA530404D54042C1F1000138BF491E0D
:1002C0001B4204D55242C3F1000338BF5B1E00F04D
:1002D00022FA14F0804F04D04042C1F1000138BF2F
:1002E000491E14F0004F04D05242C3F1000338BF3E
:1002F0005B1E10BD0FB47CB50C0009AA009001D0A4
:100300002044401E084B7B4469460190089800F049
:10031000E4FC05461CB10020694600F0F1FC2846CB
:100320007CBC5DF814FB0000010A000070B50C46AF
:100330000546012A05D02878800600D5EA69002301
:1003400002E0012305E05B1C934202D2E05C00283E
:10035000F9D1A869E618C01AA861286A1844286269
:100360002846AFF3008004E0D5E9012114F8010B21
:100370009047B442F8D32846AFF3008070BD000028
:100380002DE9F0410646002410687529314616A56E
:1003900010D0AFF30080002802DA404213A507E036
:1003A00031688A0701D512A502E0490704D511A5D5
:1003B000012401E0AFF3008000210A2206F12407A6
:1003C00009E0B0FBF2FCB0FBF2F302FB1C003030A2
:1003D00078541846491C0028F3D123462A46304653
:1003E000BDE8F04100F00EBA000000002D00000052
:1003F0002B000000200000002DE9F0474FF0000A1C
:1004000089460446C0F820A02046E16888470028B5
:1004100076D0252806D0D4E901219047206A401CD7
:100420002062F1E7E168204600258847C4F81CA057
:1004300006460027C4F818A02A2E09D0304605F039
:10044000BFFF38B304EB8708303EC8F8186019E0E6
:1004500059F8041B204604EB87029161E168884744
:10046000012F064618D1E069002820DA25F0200582
:100470001DE0D8F8180000EB800006EB4000303893
:10048000C8F818002046E1688847064605F098FF3E
:100490000028EED1012F0AD02E2E08D12046E16887
:1004A00088477F1C0646022F45F02005C4DBA06963
:1004B000002803DA404245F00105A061E80701D0B9
:1004C00025F01005B6B1A6F14100192802D8203652
:1004D00045F400654A463146204625604D46FFF703
:1004E0004FFE58B1012806D0ED1D25F0070000F1A0
:1004F000080989E704E005F1040985E730468AE741
:10050000206ABDE8F08710B5431C02E010F8011B1B
:1005100071B18107FAD14FF0013202C88C1A8C43B5
:1005200014EAC211F9D0C01A0A0603D0C01E10BDC9
:10053000C01A10BD0A0401D0801E10BD0902FCD0F3
:10054000401E10BD032A40F2308010F0030C00F072
:10055000158011F8013BBCF1020F624498BF11F8FD
:1005600001CB00F8013B38BF11F8013BA2F10402B6
:1005700098BF00F801CB38BF00F8013B11F003032E
:1005800000F02580083AC0F0088051F8043B083A92
:1005900051F804CBA0E80810F5E7121D5CBF51F834
:1005A000043B40F8043BAFF30080D20724BF11F8AE
:1005B000013B11F801CB48BF11F8012B24BF00F813
:1005C000013B00F801CB48BF00F8012B704710B584
:1005D000203AC0F00B80B1E81850203AA0E818503B
:1005E000B1E81850A0E81850BFF4F5AF5FEA027CFC
:1005F00024BFB1E81850A0E8185044BF18C918C06B
:10060000BDE810405FEA827C24BF51F8043B40F80B
:10061000043B08BF7047D20728BF31F8023B48BFF0
:1006200011F8012B28BF20F8023B48BF00F8012B2E
:10063000704702F0FF0343EA032242EA024200F05D
:1006400084BB4FF0000200B513469446964620390D
:1006500022BFA0E80C50A0E80C50B1F12001BFF47B
:10066000F7AF090728BFA0E80C5048BF0CC05DF8E1
:1006700004EB890028BF40F8042B08BF704748BF2F
:1006800020F8022B11F0804F18BF00F8012B7047A3
:100690004FF0013C50F8042B51F8043B9A4221D111
:1006A000A2EB0C03934313EACC1317D150F8042B9D
:1006B00051F8043B9A4215D1A2EB0C03934313EA81
:1006C000CC130BD150F8042B51F8043B9A4209D1BA
:1006D000A2EB0C03934313EACC13DBD04FF00000E2
:1006E000704700BFD01A01BAB1FA81F101F01801C8
:1006F00022FA01F0CB40C1F12001DBB2C0B2C01A36
:100700002CFA01F3D11A914311EAC311E6D17047D3
:1007100070477047704753EA020C00F069802DE97A
:10072000F04B4FF00006002B1FBFB3FA83F503FA1E
:1007300005F424FA05F65E4012BF1643B2FA82F5BC
:1007400002FA05F4C5F120051EBF22FA05FC44EAB1
:100750000C04203556EA044C4FEA144418BF641CBC
:100760004FF000084FF00009904271EB030C39D3B1
:10077000002919BFB1FA81F701FA07F6B0FA80F73C
:1007800000FA07F6C7F120071EBF20FA07FC46EA69
:100790000C062037B6FBF4FCA7EB0507103F07F06B
:1007A0001F0BCBF120060CFA0BFB2CFA06F644BF0C
:1007B000B3460026202FA4BF5E464FF0000B5BEA35
:1007C000060C08BF4FF0010B19EB0B09ABFB027CC9
:1007D00048EB0608C01B06FB02CC0BFB03CC71EBFD
:1007E0000C01C1E70B46024641464846BDE8F08B86
:1007F00013B54FF000004FF00001AFF30080BDE8EB
:100800001C4070472DE9F0470D4699469246044634
:1008100000F124080168880604D5E06921F0100180
:10082000216000E00120A84201DD471B00E0002715
:10083000A1697A1902EB0900081AA0612078C006A4
:1008400002D42046AFF30080002608E0D4E901215D
:100850001AF806009047206A401C761C20624E451C
:10086000F4DB2078C0060AD52046AFF3008006E00E
:10087000D4E9012130209047206A401C2062381EB4
:10088000A7F10107F4DC07E0D4E9012118F805001D
:100890009047206A401C2062281EA5F10105F3DC68
:1008A0002046AFF300802078000602D50220BDE884
:1008B000F0870120FBE770472DE9FF4F0C461E46ED
:1008C0004FF0FF378BB0D2E90001DDF860800A906D
:1008D0008A46C1F30A5505B93D46002108464FF046
:1008E0000000BAF1000F00F4400005DA00EB8000D0
:1008F0004FF4400101EA50004FEA9059B9F1010F5D
:1009000000DDB9460A9850EA4A000ED044F610506D
:10091000A5F2FF3545432F14B8F1000F1ED07542E4
:10092000291E1EDDC9F100021CE0B8F1010F4FF0D5
:10093000000001D0302103E0F24305E02154401CC7
:10094000B042FBDB30460022002121540B99C1F854
:100950000880C1E900200FB0BDE8F08FBD1B6D1C01
:10096000DEE74A4600DA694206A800F099FA06ABCB
:1009700093E8070003AB83E8070050460A9900F0AC
:1009800034FB8DE80700A0F500501F380090039855
:10099000002D09DD42F21F014A46084403A90390D5
:1009A000684600F093FD08E0A0F500504A461F3865
:1009B00003A90390684600F09DFD8DE80700000440
:1009C000000C03D04FF0FF30410800E01046B8F1B2
:1009D000000F03D00022009215461EE0751E05D4BC
:1009E00000F0D8F9303262556D1EF9D5B3460122B8
:1009F000084302D000227F1C04E02078302801D177
:100A000000227F1E002A099786D01DE0112D07DAEB
:100A100000F0C0F9303262556D1C50EA0102F5D188
:100A2000084302D00098C8B10EE00021681E05E01E
:100A3000235C625C63542254401E491C8142F7DBF4
:100A4000AB46A81B401E0990002004F80B000B9831
:100A5000099AC0F80880C0E9002B7CE711264FF006
:100A6000000859E72DE9F04F88460446D21D22F0D0
:100A7000070191B0D1E90001CDE90A0105F070FC50
:100A800002460B98C00F01D02D2007E02068810797
:100A900001D52B2002E0202101EAC000032A0990A1
:100AA00001D0072A05DB03464146204600F0B8F98D
:100AB0000BE12078800601D5E06900E00620B8F15E
:100AC000650F814606D0B8F1660F18D0B8F1670FF0
:100AD00070D131E00020B9F1110F009001DB11233A
:100AE00001E009F101030AAA01A90CA8FFF7E4FE3D
:100AF000DDE90C70002609F10105834647E001207D
:100B00004B4600904FF000470AAA01A90CA8FFF736
:100B1000D3FEDDE90DB00C995D46002610B909F150
:100B200001000D18B9EB050003D4C0F1FF3609F13F
:100B30000105A5EB09002BE0B9F1010F01DA4FF037
:100B400001090020B9F1110F0090484601DD112381
:100B500000E003460AAA01A90CA8FFF7ADFEDDE9F3
:100B60000C704D4600268346207800070AD4AB451A
:100B700000DA5D4601A8012D04DD411911F8011CC0
:100B8000302907D04F4502DA17F1040F04DA0120AB
:100B900082460FE06D1EEEE7002F02DCED1B3E44A7
:100BA00003E0781CA84200DD7D1CB81B00F1010A9F
:100BB0004FF000472078000703D4AA4501DB4FF02F
:100BC000FF3A0021B7F1004F0DF143088DF84310B3
:100BD00024D002202B23002F01DA7F422D230A216B
:100BE000021EA0F1010000DC5FB197FBF1FC97FB56
:100BF000F1F201FB1C7C17460CF1300C08F801CD1A
:100C0000EEE7A8F1010003702188090501D545210F
:100C100000E06521A0F1010800F8011C09980FA966
:100C2000A1EB0807FF1D00B10120411901EBEA709B
:100C3000A1693844081A401EA0612078C00602D479
:100C40002046AFF30080099828B1D4E901219047EC
:100C5000206A401C20622078C00622D52046AFF3CF
:100C600000801EE0002E04DBB34502DD01A8805D9C
:100C700000E03020D4E901219047206A401C206226
:100C8000761CAAF101005FEA000A0AD100F07EF8A2
:100C9000C0680168405CD4E901219047206A401C8B
:100CA0002062281EA5F10105DCDC07E0D4E9012162
:100CB00018F8010B9047206A401C2062381EA7F1EB
:100CC0000107F3DC2046AFF30080032011B043E6B8
:100CD00001694A1C02610878704700B58FB0CDE900
:100CE00001310021059105497944CDE903101146F0
:100CF0006846FFF781FB0FB000BD0000E5FFFFFF76
:100D00000A6802F8010B0A607047D1E900239A4291
:100D100002D2531C0B601070704710B5436913B1B9
:100D2000AFF3008001E0FFF701FB012010BD127856
:100D300000F124010A7000224A700122EDE71168D7
:100D40004FF0FF32E9E74FF000020429C0F01280B3
:100D500010F0030C3FF477ACCCF1040CBCF1020FA3
:100D600018BF00F8012BA8BF20F8022BA1EB0C0143
:100D7000FFF769BC5FEAC17C24BF00F8012B00F8D3
:100D8000012B48BF00F8012B704700000048704756
:100D9000902A002030B5B0F10A024FEA900E71F1AE
:100DA00000034EEA817EB0EB0E0061EB91014FEA49
:100DB000101E4EEA017E10EB0E0041EB11114FEABE
:100DC000102E4EEA016E10EB0E0041EB11214FEA9E
:100DD000104E4EEA014E10EB0E0041EB114140184F
:100DE00041F100014FEAD00040EA41704FEAD101E1
:100DF00010EB80054FEA810444EA907444EB01044F
:100E00006D1944EB0404521BA3414FF0000348BF8B
:100E10000A3200D530BD401C41F1000130BD000058
:100E20002DE9F0411F46044603260168072A01F414
:100E3000006004DB08B116A505E016A503E008B1C3
:100E400015A500E015A521F010002060A069C01EC6
:100E5000A0610FB1401EA0612046AFF300804FB1EA
:100E6000D4E9012138469047206A401C2062C01C0A
:100E7000206206E0206AFAE7D4E9012115F8010BA7
:100E80009047761EF8D22046AFF30080BDE8F0818F
:100E90004E414E006E616E00494E4600696E66001E
:100EA0002DE9F047814616468AB0334878440DC88C
:100EB0008DE80D0030487844801C03AC0DC884E8F0
:100EC0000D0041F69B300844372190FBF1F290FB76
:100ED000F1F5A5F1800501FB12041B3C02D564422B
:100EE000012000E00020DFF890A080460027FA44AF
:100EF000AAF1BE0A0DE0E00709D03246684607EBCA
:100F000047010AEB810100F0F5FA8DE80700641053
:100F10007F1C002CEFD1184F7F44AC3F18E0E8074E
:100F200014D007EB04100DF1180A90E80E008AE8BF
:100F30000E00C068F04201D198190890324606A907
:100F400003A800F0D7FA03AB83E807006D10641C18
:100F5000002DE4D132466946B8F1000F03A802D053
:100F600000F0B4FA01E000F0C5FAC9E90001C9F8DF
:100F700008200AB0BDE8F087B07C00000048704748
:100F8000702A00207546FFF7F9FFAE460500694656
:100F9000534620F00700854618B020B5FFF774F9D6
:100FA000BDE820404FF000064FF000074FF000086A
:100FB0004FF0000B21F00701AC46ACE8C009ACE8EB
:100FC000C009ACE8C009ACE8C0098D4670470446CA
:100FD000AFF300802046FFF7F6F800000149182023
:100FE000ABBEFEE72600020070475FEA400C08BF78
:100FF00091F0000F4FEA8C234FEAC12243EA51518E
:101000004FEA1C5018BF00F5F0404FEA300018BFFF
:1010100041F000415FEA6C5C00F02980BCF1FF3FC9
:1010200008BF40F080407047130C06BF12044FF019
:10103000100C4FF0000C130E04BF12020CF1080C40
:10104000130F04BF12010CF1040C930F04BF9200A4
:101050000CF1020CD30F04BF52000CF1010C11462D
:101060004FF00002A0F11F00A0EB0C00704711F040
:10107000004F08BF704731F000413FF4D5AF0B0C73
:1010800006BF09044FF0100C4FF0000C0B0E04BF0C
:1010900009020CF1080C0B0F04BF09010CF1040C40
:1010A0008B0F04BF89000CF1020CCB0F04BF490069
:1010B0000CF1010CCCF12003A0EB0C0022FA03F39D
:1010C00002FA0CF241EA030100F10100704720F03E
:1010D0007F4C80EA030023F07F47ACEB070303F566
:1010E0007C5300F0004003F1FF032DE980494FEAF3
:1010F000154B09B44FEA144325EA0B4E24EA034882
:101100000FF2042606EB132749083E785FEA320205
:1011100003FB0667C7F5000707FB06F64FEA5437DF
:101120004FEAD64606F1020607FB066CCCF1005CDE
:101130004FEA1C472CEA074C07FB06F40CFB06F5AC
:1011400004EB15464FEA961634BF00204FF00040DE
:101150004FEAD13706FB07FC4FEA1C4C0CFB0BF7A0
:10116000D21B03FB0CF761EB07010CFB0EF7B0EB96
:10117000074072EB17420CFB08F734BFA2EB0742A3
:10118000B2EB074261EB17414FEA0C444FEA91077B
:1011900006FB07FC4FEA1C4C0CFB0BF7B0EBC740FF
:1011A00072EB573203FB0CF734BFA2EBC742B2EB32
:1011B000C74261EB57310CFB0EF7B0EBC70072EB87
:1011C00057720CFB08F734BFA2EBC702B2EBC702A1
:1011D00061EB5771039F4FEA816141EA921104EB81
:1011E000CC044FEAD1374FEA826206FB07FC42EAA1
:1011F00090124FEA80604FEA1C4C0CFB0BF7D21B9D
:1012000003FB0CF761EB07010CFB0EF7B0EB07409B
:1012100072EB17420CFB08F734BFA2EB0742B2EBAC
:10122000074261EB17414FEA8C554FEA910704EBF7
:101230009C2406FB07FC4FEA1C4C0CFB0BF7B0EBA5
:10124000C74072EB573203FB0CF734BFA2EBC74227
:10125000B2EBC74261EB57310CFB0EF7B0EBC700A6
:1012600072EB57720CFB08F734BFA2EBC702B2EB6C
:10127000C70261EB577115EB4C254FEA816141EADA
:1012800092114FEA82624FEAD13742EA901206FB8E
:1012900007FC44F100044FEA80604FEA1C4C0CFB51
:1012A0000BF7D21B03FB0CF761EB07010CFB0EF7EE
:1012B000B0EB074072EB17420CFB08F734BFA2EB10
:1012C0000742B2EB074261EB174115EB1C154FEAE1
:1012D000813141EA92414FEA823242EA90424FEA3A
:1012E00080304FEA0C7644F1000448EA03434EEAAA
:1012F0000B484FF0000EB2EB080C71EB030724BF54
:10130000624639464EEB0E0E4FF0000B001852416C
:1013100049414BEB0B0BB2EB080C71EB03077BF174
:10132000000B24BF624639464EEB0E0E4FF0000B09
:101330000018524149414BEB0B0BB2EB080C71EB1F
:1013400003077BF1000B24BF624639464EEB0E0EBD
:1013500051EA020718BF46F0010616EB0E7655F16A
:10136000000254F1000103D5BDE88901BDE8008801
:10137000BDE88901BDE80048B619524141EB0101C1
:10138000A3F10103704780807F7E7D7C7B7A797832
:10139000777676757473727171706F6E6E6D6C6C3A
:1013A0006B6A6A69686867666665646463636261DC
:1013B0006160605F5F5E5E5D5D5C5C5B5B5A5A595D
:1013C00059585857575656555555545453535252C9
:1013D0005251515050504F4F4F4E4E4D4D4D4C4C21
:1013E0004C4B4B4B4A4A4A4949494848484747476A
:1013F00047464646454545444444444343434342A7
:10140000424242414141002B26D4770021D01CB5F5
:101410004FEA370703B44FF010004FF010014FF0C0
:1014200000000FBCBDE810400BF1010BBBF1010F38
:1014300008BF5FEA170722BF12F1010211F1010193
:101440004FF0004143F1000300F0004043EA000088
:101450007047F9D35708DAE746EA064613F1400F1A
:101460004FEA16461FDD13F1200FDFBF16430A4671
:10147000002120335B42C8D0C3F1200746EA06466C
:1014800002FA07F74FEA164646EA0706C3F12007B5
:1014900022FA03F201FA07F721FA03F14FF00003F1
:1014A00042EA0702B1E746EA020646EA06464FEA82
:1014B000164646EA0106BCBF46EA0646360C4FF021
:1014C00000034FF000024FF000019EE72DE9C048F5
:1014D000934630B491E8380007C831EA400C48BF61
:1014E00034EA430C03D5FFF7F2FDFFF78CFFF0BCA5
:1014F000BDE800882DE9C048934630B491E8380033
:1015000007C810F0804F08BF13F0804F03D100F0E0
:1015100005F8FFF778FFF0BCBDE8008820F07F47B2
:1015200080EA030023F07F4C07EB0C03A3F57C5308
:1015300000F00040A3F1FE0392F0000F00F0B38032
:1015400095F0000F00F077802DE901494FEA114036
:101550004FEA144621EA004800FB06FC24EA06474D
:1015600008FB06F607FB08F800FB07F718EB064830
:101570004CEB164C4FEA124B18EB07484FEA154656
:101580004CEB174022EA0B4E0BFB06FC25EA064704
:101590000EFB06F607FB0EFE0BFB07F71EEB064ED7
:1015A0004CEB164C4FF000061EEB074E4CEB174B66
:1015B00018EB0B0840F1000018EB0E0B58EB00087D
:1015C00040F100008F1A4FF000013CBFC943661B79
:1015D00014BFB5EB040C00213CBFC943F61B4FEA16
:1015E00017444EEA8E0E27EA04454FEA1C4704FBD7
:1015F00007622CEA074C05FB07F70CFB05F604FB1A
:101600000CFC16EB074642EB174216EB0C4642EB7E
:101610001C421BEB060658EB0202414146EA9E06BD
:1016200001D5BDE80189B619524141EB0101A3F191
:101630000103BDE801894FEA14454FEA114724EA46
:10164000054621EA074C05FB07F406FB07F70CFBF0
:1016500006F105FB0CFC11EB074144EB17444FEA84
:10166000124711EB0C4144EB1C4422EA074C05FBEA
:1016700007F206FB07F70CFB06F605FB0CFC16EB66
:10168000074642EB174216EB0C4642EB1C456A1824
:1016900054F1000148BF7047B619524141EB0101B6
:1016A000A3F10103704795F0000F37D04FEA1142C4
:1016B0004FEA144721EA024624EA074C02FB07F1ED
:1016C00006FB07F70CFB06F402FB0CFC14EB0744CB
:1016D00041EB17414FEA154714EB0C4441EB1C4119
:1016E00025EA074C02FB07F506FB07F70CFB06F69D
:1016F00002FB0CFC16EB074645EB174516EB0C46B8
:1017000045EB1C42121951F1000148BF7047B61950
:10171000524141EB0101A3F1010370474FEA144527
:101720004FEA114724EA054621EA074C05FB07F179
:1017300006FB07F70CFB06F24FF0000605FB0CFC5E
:1017400012EB074241EB174112EB0C4251EB1C41EB
:1017500048BF7047921841EB0101A3F101037047A4
:1017600038B500200090052004F031FE684600F0F6
:10177000F1F808B9022038BD002410E09DF80000FF
:1017800000F033F800B10CE00A2004F020FE6846B7
:1017900000F0E0F808B90220EDE7601CC4B20A2CA2
:1017A000ECDB00BF9DF8000000F01BF8B8B9002288
:1017B0001146BA2000F0DAF808B90520DBE714205A
:1017C00004F005FE684600F0C5F808B90220D2E72B
:1017D0009DF8000000F005F808B90420CBE70020D0
:1017E000C9E70146C1F3C00070470146012020EA65
:1017F000D11070472DE9F05F04460D46164660781B
:101800000003A17840EA0110E17840EA1117E0787E
:101810000007000B217940EA0120617940EA0108C4
:10182000384606F079FF82461A4906F0BDFF814628
:101830004FF0934106F05AFE3060404606F06CFFD0
:101840008346154906F0B0FF82464FF0934106F0FB
:101850004DFE8146114907F0A5F828601049286817
:1018600006F06EFF04D30F49286807F069F802D22A
:101870000020BDE8F09F0021306806F061FF04D32E
:101880000449306807F05CF801D20020F1E701203C
:10189000EFE700000000C842000048430000484253
:1018A000000020C20000AA427FB504460D46002079
:1018B0000290039020A0006801900020009004B1E5
:1018C00015B9062004B070BD022201A9AC2000F0B9
:1018D0004DF808B90520F5E7502004F078FD002602
:1018E00010E0684600F036F808B90220EAE79DF8F3
:1018F0000000FFF77AFF00B106E00A2004F067FD60
:10190000701CC6B20A2EECDB00BF9DF80000FFF78A
:101910006CFF08B90320D5E702A800F00FF808B95A
:101920000120CFE72A46214602A8FFF763FF08B946
:101930000620C7E70020C5E73300000010B50446C5
:101940000CB9002010BD062322467121382003F077
:101950002FF9F7E710B504460CB9002010BD01239C
:1019600022467121382003F023F9F7E7F8B5054640
:101970000E461446601CC7B2022C01DD0020F8BDE3
:101980008DF80050002004E0325C411C0DF801206D
:10199000C8B2A042F8DB3A466946382003F050F955
:1019A000EDE700002DE9F14F84B074488069C1175C
:1019B0004FF4FA32841A61F10005A4FB041005FB10
:1019C000040004FB05036D48B0F91000C217A1FB29
:1019D000008A03FB00A001FB02096848B0F90E0071
:1019E000C117A0FB042301FB043100FB05104004D8
:1019F00040EAD230510411EB080840EB09095F4876
:101A0000B0F90C0018F1000849EBC009A4FB041060
:101A100005FB040004FB05025848B0F90A004FEA30
:101A2000E07CA1FB003A02FB00A001FB0C014FEAA5
:101A3000132040EA01604FEA21225049B1F9081011
:101A40004FEAE173A446A1FB0CBE03FB04E301FBD8
:101A500005314FEA013141EA1B514FEA0B3384460D
:101A60001CEB030442EB0105231C45F500404349F0
:101A7000C9880022A3FB01AC00FB01C003FB0201EB
:101A80004C10CD17002184EA01006940084302D1BF
:101A900005B0BDE8F08F0498C0F58016F717F80779
:101AA00040EA5600F107B1EB080160EB0900CDE90F
:101AB0000210334B334ADDE90201181A8A4107DB71
:101AC0005B42304AD243DDE90210C91A904101DA83
:101AD0000020DDE740F635434FF0000CDDE9020160
:101AE000A0FB032A01FB03A100FB0C10CDE90020A1
:101AF00022462B46DDE90001FEF7D8FB06460F46DD
:101B00001E48B0F916104FEAE17C700B40EAC7405E
:101B10007B13A1FB002A0CFB00A001FB0301700B4F
:101B200040EAC74C7B13A2FB0C0A01FB0CA102FB91
:101B30000311400E40EAC1144D161048B0F91400CC
:101B4000C117A0FB062301FB063100FB0710D10CD7
:101B500041EA40384FEAE049311947EB050011EB03
:101B6000080140EB0900020642EA11200349B1F9DD
:101B700012100901461830468AE700005827002055
:101B800078B471C45A7C0A0010B50146C8100F4CD5
:101B90002488A0EB44000D4CB4F902406043C2120B
:101BA0000A480088C0EB211040430013074CB4F9E9
:101BB000044060438313D018044CA0612046806920
:101BC00000EB80008030001210BD0000582700207C
:101BD0007CB500200190002500262C4908700122C8
:101BE00001A9D02000F09CF908B901207CBD9DF826
:101BF0000400582801D00220F8E7002409E000F092
:101C000003F908B1012606E00A2004F0E0FB601C9D
:101C1000C4B2032CF3DB00BF0EB90320E6E7B62104
:101C2000E02000F088F908B90420DFE7322004F052
:101C3000CEFB2C252946F52000F07DF908B90520BA
:101C4000D4E70A2004F0C3FBB3201149087008460A
:101C50000178F42000F06FF908B90520C6E70A20E2
:101C600004F0B5FB0020009001226946F42000F04A
:101C700057F99DF8000006490978884201D00520EF
:101C8000B4E70120014908700020AFE7D40000202C
:101C9000D50000200246B2F5000F01D101207047A7
:101CA0000878802807D1487828B9887800F0F000B3
:101CB00008B90120F3E70020F1E700002DE9FE4F0D
:101CC00004460D460020019002900026002782461F
:101CD0008046009004B115B90720BDE8FE8F424848
:101CE000007808B90720F8E740480178F42000F0B0
:101CF00022F908B90520F0E74FF0000916E00020AE
:101D0000009001226946F32000F00AF908B9062084
:101D1000E3E79DF8000000F0080000B909E00520A5
:101D200004F055FB09F1010000F0FF09B9F1640F5F
:101D3000E5DB00BF062201A9F72000F0F1F808B9A1
:101D40000720CAE79DF8040000039DF8051040EA4B
:101D500001109DF8061040EA21169DF807000003C7
:101D60009DF8081040EA01109DF8091040EA21177B
:101D700001A93046FFF78EFF28B90DF1070138465B
:101D8000FFF788FF08B10920A7E71948874202DB5F
:101D90001848874201DD09209FE71748864202DB89
:101DA0001648864201DD092097E73846FFF7ECFE2A
:101DB0008246504606F098FC8146114906F096FB93
:101DC00028603046FFF7EEFD8046B8F1000F01D1E4
:101DD000082082E7404606F09FFC8146094906F04C
:101DE00085FB2060002078E7D4000020D50000208B
:101DF000801A0600C0270900E0930400E0C8100024
:101E00000000C8420000C84600B58DB0182107A8E0
:101E1000FEF717FC182207A9882000F081F810B9F6
:101E200000200DB000BD9DF81C009DF81D1040EA7B
:101E30000120ADF800009DF81E009DF81F1040EA3B
:101E4000012000B2ADF802009DF820009DF821109D
:101E500040EA012000B2ADF804009DF822009DF890
:101E6000231040EA0120ADF806009DF824009DF8FB
:101E7000251040EA012000B2ADF808009DF82600C8
:101E80009DF8271040EA012000B2ADF80A009DF845
:101E900028009DF8291040EA012000B2ADF80C009E
:101EA0009DF82A009DF82B1040EA012000B2ADF801
:101EB0000E009DF82C009DF82D1040EA012000B284
:101EC000ADF810009DF82E009DF82F1040EA01207B
:101ED00000B2ADF812009DF830009DF8311040EAD4
:101EE000012000B2ADF814009DF832009DF83310C7
:101EF00040EA012000B2ADF8160000200690BDF8BF
:101F0000000010B1BDF8060008B9002089E71C22C6
:101F100069460248FEF75BFB012082E75827002054
:101F200070B504460D4616462B46324621467720AC
:101F300002F062FE70BD13B5044601AB01222146DA
:101F4000772002F0A3FE1CBD00B585B000200190F3
:101F500002900390049000BF1048806940F0100088
:101F60000E4988610846806900F01000009000BFAB
:101F700000BF4FF400500190012002900020039018
:101F80000220049001A9064801F024F8012251031F
:101F9000034801F0B7F905B000BD00000010024091
:101FA0000010014010B501225103024801F0AAF9C6
:101FB00010BD00000010014010B500224FF4005188
:101FC000014801F09FF910BD0010014000B58DB02F
:101FD000002009900A900B900C901C2102A8FEF79B
:101FE00030FB00BF2B48C06940F002002949C8619E
:101FF0000846C06900F00200019000BF00BF00BFAA
:102000000846806940F0040088610846806900F055
:102010000400019000BF00BFC020099002200A9078
:1020200000200B9002200C9009A91B4800F0D2FF61
:102030001A481B4908604720486000211848816001
:1020400044F61F61C1600021016101F05DFE08B12D
:1020500000F012FF60200290002003900490069090
:10206000002202A90E4801F0CDFD08B100F004FFE6
:10207000042202A90A4801F0C5FD08B100F0FCFEE7
:102080000021074801F074FE0421054801F070FEAC
:102090000DB000BD001002400008014000040040E7
:1020A0001027002030B502460B46B42B00D9B423CC
:1020B0004FF4FA645C43B425B4FBF5F404F5FA7408
:1020C000A0B2012A01D1002104E0022A01D1042199
:1020D00000E030BD19B90A4C246860630EE00429A1
:1020E00003D1074C2468A06308E0082903D1044CFD
:1020F0002468E06302E0024C2468206400BFE8E743
:10210000102700200246B1F5FA7F01D24FF4FA7190
:1021100040F6C413994200D91946012A01D1002082
:1021200004E0022A01D1042000E0704718B90A4BEC
:102130001B6859630EE0042803D1074B1B689963A1
:1021400008E0082803D1044B1B68D96302E0024B66
:102150001B68196400BFE8E7102700201FB50020A6
:1021600000900190029003904FF4007000900220C4
:10217000019000200290032003906946264800F059
:1021800029FF4FF480600090002001900120029010
:102190006946214800F01EFF2048214908604FF49D
:1021A000E130486000211E488160C16001610C215E
:1021B000416100218161C16102F028F808B100F09D
:1021C0005BFE00220521252001F05AF9252001F0AF
:1021D00047F913480068C06840F0100010490968CA
:1021E000C86000200F4908800F4908800F49087017
:1021F0000F49087000F020FB60B90E480068401CD1
:102200000C4908604FF4AB720BA1022000F0F8FDFE
:1022100000F032FE1FBD0000000801400038014000
:102220008024002080000020820000208400002004
:1022300085000020880000202E2E5C4273705C53C5
:1022400072635C756172742E630000002DE9F041C9
:1022500004460D46164600278CB185B10120094978
:10226000087033462A462146074802F07BF808B931
:10227000012000E00020074600200249087038468F
:10228000BDE8F081B40000208024002070B5044631
:102290004CB12046FEF737F985B264232A46214621
:1022A000014802F05FF870BDC82400201FB500206F
:1022B0000090019002900390042000900220019071
:1022C000002002900320039069460C4800F082FE33
:1022D0000B480C4908604FF4E13048600021094880
:1022E0008160C16001610C21416100218161C16196
:1022F00001F08CFF08B100F0BFFD1FBD00080140D8
:1023000000440040C8240020F8B5054600240026FB
:10231000002705B9F8BD6C6C3CB90020364908604F
:102320003649086036490860F4E704F0080030B127
:1023300034480068401C334908600126012704F036
:102340000600D0B104F0040020B12F480068401C02
:102350002D49086004F0020020B12C480068401CA0
:102360002A49086025480068401C24490860012665
:1023700008460068032800D3012704F0010078B163
:1023800023480068401C224908601D480068401C22
:102390001B490860012608460068052800D301276C
:1023A0001EB9002014490860B4E71A480068401CB0
:1023B0001849086010480068401C0F49086000BFB9
:1023C000002000902868006800902868406800900D
:1023D00000BF00BF1FB9084600680A2801D300F0FB
:1023E000E3F900F017FA20B9EC220BA1022000F06B
:1023F00007FD00BF8EE70000A0000020AC00002019
:10240000B0000020900000209400002098000020E0
:102410009C000020880000202E2E5C4273705C53CC
:1024200072635C756172742E6300000038B5002021
:102430000090002400252B48008800B938BD2A48A8
:10244000007838B129480068401C2849086000F02D
:10245000ABF9F3E726480468264805682448056078
:10246000244804601F4800882349088000201D4933
:10247000088001201C4908702048007880B120485D
:102480000068401C1E4908600846006805280AD3F9
:1024900000201A4908701B4908601949086002E0C9
:1024A000002017490860684600F09AF9B8B9012081
:1024B000154908709DF80000022810D000F028FF90
:1024C00012490968401AB0F57A7F08D300F020FF5E
:1024D0000E49086097220EA1022000F091FC00BF77
:1024E000ACE7000080000020840000208C00002069
:1024F000780000207C00002082000020CC0000201A
:10250000D0000020C800002085000020C40000206A
:102510002E2E5C4273705C5372635C756172742E14
:102520006300000008B572B62248007808B322485C
:102530000068401C2049086062B61F480068642893
:1025400016D31E480068401C1C49086000BF0020CC
:1025500000901B48006800680090194800684068B7
:10256000009000BF00BF00F01FF900201249086072
:1025700008BD01200F49087062B6114801F0D4FC73
:102580000F4800680068C0F3001070B100BF002061
:1025900000900B4800680068009009480068406897
:1025A000009000BF00BFFFF741FF00200149087005
:1025B00000BFDDE7A8000020A40000208800002064
:1025C0008024002008B500BF1548806940F4804091
:1025D000134988610846806900F48040009000BF7C
:1025E00000BF00BF0846C06940F40030C86108461B
:1025F000C06900F40030009000BF00BF00BF084673
:10260000806940F0040088610846806900F0040099
:10261000009000BF00BFFFF7A1FDFFF747FE08BD18
:102620000010024010B500F03BF80148007810BDE2
:10263000840000202DE9F04106460C4600270025C5
:1026400000F02EF81EB114B1B4F5807F02D900203D
:10265000BDE8F08172B60F48007830B10E480788A7
:1026600000200D4908800B49087062B687B1A74267
:1026700001DA384600E020460546B5F5807F01D9ED
:102680004FF480752A46054801683046FDF75AFF29
:102690002846DDE784000020820000207C00002026
:1026A00038B5002000903448007800B938BD334870
:1026B000007800B1FAE73248007800B1F6E700F0A0
:1026C00027FE30490968401A052800D2EEE700F0DD
:1026D0001FFE2C490860002027490870684600F05A
:1026E00069F8002843D128480068401C2649086042
:1026F0009DF80000022816D024480068401C234999
:10270000086000F005FE22490968401AB0F57A7F9A
:1027100009D300F0FDFD1E4908604FF489721DA128
:10272000022000F06DFB184800680A281BD3012026
:10273000134908700020104908704FF48E7215A1DB
:10274000052000F05DFB00240AE0FFF735FC642063
:1027500003F0E0FDFFF726FC642003F0DBFD641CC2
:10276000052CF2D306E001200349087002E00020A6
:102770000549086000BF99E785000020840000201B
:10278000CC000020BC000020C800002088000020F1
:10279000C00000202E2E5C4273705C5372635C7527
:1027A0006172742E630000000120014908707047B7
:1027B0008500002010B5044672B600200549088047
:1027C000054908800549087062B6204600F008F8FF
:1027D00010BD000080000020820000208400002046
:1027E00070B504460A4801F02EFB05462DB1022DB6
:1027F00003D004B12570002070BD00F025F8054617
:1028000004B125700DB90120F6E70020F4E70000BF
:102810008024002010B500F07BFD044605480068C8
:10282000201AB0F57A7F03D302480460002010BD5F
:102830000120FCE7B800002010B500F005F808B949
:10284000012010BD0020FCE710B505480068054ACE
:10285000128881180122044801F014FD10BD000007
:1028600078000020800000208024002070B50446FD
:1028700000250CE0012001F07FFE084800F02AF856
:10288000002001F079FE054800F024F86D1CA542F7
:10289000F0D3034800F01EF870BD0000605B030039
:1028A00010EB09007B2204A1082000F0A9FA0820FF
:1028B00002F07AFF00BFFEE72E2E2F436F72652FC6
:1028C0005372632F73746D3332663178785F697435
:1028D0002E63000001B500E000BF0098411E00918A
:1028E0000028F9D108BD30B502460B464FF6FF70FF
:1028F000002112E0545C604000240AE000F0010571
:1029000025B140104AF20105684000E04010651C06
:10291000ECB2082CF2D34C1CA1B29942EADB30BDD8
:10292000704700002DE9F04FA1B01EAA1FA920A8F2
:1029300000F03CF9834605F0E1FA8246BBF1000F56
:102940003ED0209800F0D8F81C901F9800F092F824
:102950001B901E9800F0AEF81A901C9881B20020CF
:1029600001F0DAFF01201B9901F0D6FF02201A992D
:1029700001F0D2FF27480078401C2649087008461D
:10298000007805281BDB002008701E9805F014FD58
:1029900004460D461F9805F00FFD06460F46209889
:1029A00005F00AFD1CA28DE8C300CDE904455021C5
:1029B00006A8FDF79FFC06A803F058FA00BF0DE03B
:1029C0001F480068AAEB000042F21071884205D34C
:1029D0001B48C0F800A01BA003F048FA1DA9032063
:1029E00002F00AF898B100F0ABF80446BDF87400A4
:1029F00020F030001D9004F03000BDF87410084342
:102A00001D90BDF87410032001F086FF00BF21B0B7
:102A1000BDE8F08F040100205B53454E534F525DDB
:102A200020543D252E3166432C20483D252E31660D
:102A300025252C20503D252E31666850610D0A0059
:102A4000000100205B53454E534F525D205265619B
:102A500064206661696C65642C207573696E6720FB
:102A60006C6173742076616C69642076616C756545
:102A7000730D0A0070B504460021204605F060FE83
:102A800000D200240949204605F05AFF00D2074C25
:102A90000749204605F088FE06464FF07C5105F0B8
:102AA000B7FC054605F000FE80B270BD0000C842CC
:102AB0000000204170B504460C49204605F040FE58
:102AC00000D20A4C0A49204605F03AFF00D2084CD1
:102AD0000849204605F068FE06464FF07C5105F097
:102AE00097FC054605F0E0FD80B270BD00009643FE
:102AF000008089440000204170B504460D492046FD
:102B000005F01EFE00D20B4C0B49204605F018FFC5
:102B100000D2094C0949204605F046FE06464FF012
:102B20007C5105F075FC054605F0A2FD00F57A70B4
:102B300000B270BD000020C20000AA420000204187
:102B400001480078704700001001002070B5012492
:102B5000FEF706FE0546FFF73BF806463DB90121A4
:102B6000102000F03DF900200D49087004E000211C
:102B7000102000F035F900243EB90121202000F09A
:102B80002FF900200749087004E00021202000F000
:102B900027F90024012004490870204670BD000078
:102BA0002001002021010020110100202DE9F04F1B
:102BB00085B004460D4616460CB105B11EB900207D
:102BC00005B0BDE8F08F7D48007808B90020F7E730
:102BD0000027B8460020049003900290019000F076
:102BE00097FB00907648007805280BD301F066FC2F
:102BF000FEF7B6FD8346BBF1000F02D100207049FD
:102C0000087000BF4FF001094FF0000B12E003A95C
:102C100004A8FEF749FE8146B9F1000F00D10CE08F
:102C2000BBF1000F02D10A2003F0D1FB0BF1010030
:102C300000F0FF0BBBF1020FE9D300BFB9F1000FA9
:102C40000ED1012700205E4908700121102000F0FC
:102C5000C7F85C49049808605B49039808600FE076
:102C600057480078401C564908700021102000F099
:102C7000B7F853480078052802D905205049087054
:102C80005248007805280BD301F018FCFEF7A0FF8E
:102C90008346BBF1000F02D100204C49087000BFF1
:102CA0004FF0010A4FF0000B12E001A902A8FFF754
:102CB00005F88246BAF1000F00D10CE0BBF1000F1D
:102CC00002D10A2003F083FB0BF1010000F0FF0B9F
:102CD000BBF1020FE9D300BFBAF1000F0CD14FF0E6
:102CE00001080020394908700121202000F078F8FF
:102CF0003749029808600FE034480078401C334997
:102D000008700021202000F06BF83048007805287A
:102D100002D905202D490870FFB1B8F1000F1CD071
:102D20000199049805F03EFE83462A49584605F06D
:102D300007FE04D32849584605F002FD0CD24FF097
:102D4000000822480078401C204908700846007896
:102D5000052801D20520087000BF17B9B8F1000F8F
:102D600002D001201D49087027B104982060039803
:102D700028600CE01948007830B1124800682060E3
:102D800011480068286002E0002020602860B8F147
:102D9000000F02D00298306008E01048007818B1A7
:102DA0000B480068306001E00020306027B1B8F1C6
:102DB000000F01D0012003E7002001E711010020EE
:102DC0002001002014010020180100202101002012
:102DD0001C0100200000A0400000A0C01201002043
:102DE00029B1064A12780243044B1A7004E0034AE0
:102DF00012788243014B1A707047000010010020C6
:102E0000F0B59BB004460E4617460A2C01D31BB002
:102E1000F0BD11480470114850F8240000F1010081
:102E20000E4941F8240000BFEFF3058000B1EEE742
:102E30000EB1304600E00AA023460BA26021CDE986
:102E4000000703A8FDF756FA0546002D02DD03A88A
:102E500000F02EF800BFDAE7DC000020EC290020AB
:102E6000756E6B6E6F776E004552525B25755D20F7
:102E700025733A25640D0A001C2204A10120FFF7E6
:102E8000BFFF012002F0C0FD02F008FC2E2E5C41C5
:102E900070705C53797374656D5C5372635C6572BA
:102EA000726F725F68616E646C65722E6300000001
:102EB00000B9704700BFFCE7014800887047000078
:102EC000D60000200146002291F82100022808D0F7
:102ED0000420886300BF002081F8200000BF01208B
:102EE00070470868006820F00E000B6818600868DA
:102EF000006820F001000B68186091F84030012054
:102F00009840CB6B5860012081F8210000BF002061
:102F100081F8200000BF1046E2E7000070B50446CB
:102F2000002594F82100022803D00420A063012585
:102F300048E02068006820F00E00216808602068E2
:102F4000006820F00100216808601F49206888425D
:102F500001D1012026E01C4914312068884201D1AA
:102F600010201FE0184928312068884201D18015BF
:102F700018E015493C312068884201D1801411E0E5
:102F8000114950312068884202D14FF4803009E065
:102F90000D4964312068884202D14FF4801001E06D
:102FA0004FF08070084908394860012084F82100FA
:102FB00000BF002084F8200000BF606B10B12046E5
:102FC000616B8847284670BD080002400146886B47
:102FD000704700002DE9F8470346002294466EE151
:102FE0004FF0010808FA02F4D1F8008008EA040062
:102FF000A0427DD1DFF8DCA2D1F80480A8EB0A0959
:10300000D0453AD014DCB8F1030F50D009DCB8F148
:10301000000F31D0B8F1010F1CD0B8F1020F49D127
:1030200020E0B8F1110F18D0B8F1120F42D11EE014
:10303000B9F5881F25D006DCB9F5803F20D0B9F559
:10304000801F37D11AE0B9F5001F18D0B9F5041F59
:1030500030D117E0D1F80CC02DE0D1F80C8008F188
:10306000040C28E0D1F80C8008F1080C23E0D1F81A
:103070000C8008F10C0C1EE000BF00BF00BF00BFB9
:1030800000BF00BFD1F80880B8F1000F02D14FF0A7
:10309000040C0BE0D1F80880B8F1010F03D14FF018
:1030A000080C1C6102E04FF0080C5C6103E04FF07B
:1030B000000C00E000BF00BFFF2801D8984601E0E7
:1030C00003F104084646FF2802D84FEA820803E0CD
:1030D000A2F108084FEA88084746D6F800804FF06A
:1030E0000F0909FA07F928EA09080CFA07F900E0BC
:1030F00088E048EA0908C6F80080D1F8048008F0A2
:103100008058B8F1805F7DD100BFDFF8CC81D8F85E
:10311000188048F00108DFF8C091C9F81880C84647
:10312000D8F8188008F00108CDF8008000BF00BF73
:103130004FEAB9384FEA920958F829504FEA827895
:103140004FEA18794FF00F0808FA09F825EA080540
:10315000DFF88881434502D14FF0000816E0DFF820
:103160008081434502D14FF001080FE0DFF8748100
:10317000434502D14FF0020808E0DFF86C81434577
:1031800002D14FF0030801E04FF004084FEA8279C2
:103190004FEA197908FA09F848EA0505DFF84C8181
:1031A0004FEA920948F82950D1F8048008F48018B1
:1031B000B8F5801F0AD1DFF83881D8F8008048EAD6
:1031C0000008DFF82C91C9F8008009E0DFF82081C1
:1031D000D8F8008028EA0008DFF81491C9F80080C8
:1031E000D1F8048008F40018B8F5001F10D1DFF8FA
:1031F000008108F10408D8F8008048EA0008DFF8E8
:10320000F09000E05AE009F10409C9F800800DE0EF
:10321000DFF8DC8008F10408D8F8008028EA00080C
:10322000DFF8CC9009F10409C9F80080D1F80480D6
:1032300008F40038B8F5003F0ED1DFF8B480A8F1EB
:103240000408D8F8008048EA0008DFF8A490A9F143
:103250000409C9F800800DE0DFF89480A8F10408A3
:10326000D8F8008028EA0008DFF88490A9F1040962
:10327000C9F80080D1F8048008F48038B8F5803FA0
:103280000ED1DFF86C80A8F10808D8F8008048EA71
:103290000008DFF85C90A9F10809C9F800800DE08A
:1032A000DFF84C80A8F10808D8F8008028EA000868
:1032B000DFF83C90A9F10809C9F80080521CD1F848
:1032C000008028FA02F8B8F1000F7FF489AEBDE85B
:1032D000F8870000000011100010024000080140B3
:1032E000000C0140001001400014014008000140A2
:1032F00008040140024693680B400BB1012000E036
:10330000002070470AB1016101E00B0403617047BE
:1033100001480068704700000000002070B50446B6
:103320000CB9012070BD4CF6CC402168086045F214
:10333000555021680860D4E9001048602168A068F1
:103340008860FFF7E5FF05460DE0FFF7E1FF401B52
:1033500041F23C31884206D92068C06800F0030081
:1033600008B10320DEE72068C06800F003000028F1
:10337000EBD14AF6AA20216808600020D2E7014676
:103380004AF6AA200A6810600020704703480068C7
:10339000034909780844014908607047000000208B
:1033A0000800002010B50848006840F010000649E9
:1033B0000860032000F0A2F80F2000F007F800F0EA
:1033C0002BF8002010BD00000020024070B504461C
:1033D0000E4800784FF47A71B1FBF0F00C4909689F
:1033E000B1FBF0F5284600F0F3FB08B1012070BDF9
:1033F000102C07D200222146501E00F041F805484B
:10340000046001E00120F2E70020F0E7080000205E
:103410000C0000200400002008B500BF0F488069A0
:1034200040F001000D4988610846806900F0010004
:10343000009000BF00BF00BF0846C06940F0805048
:10344000C8610846C06900F08050009000BF00BF0E
:1034500000220F21901E00F013F808BD001002405A
:1034600001460846002809DB00F01F0301229A40AC
:1034700043099B0003F1E023C3F8002100BF70471C
:103480002DE9F05F80460D461646002702F07CFFCE
:10349000074639462A46334601F00700C0F1070ABD
:1034A000BAF1040F02D94FF0040A01E0C0F1070A93
:1034B000D14600F1040ABAF1070F02D24FF0000A18
:1034C00001E0A0F1030AD4464FF0010A0AFA09FA12
:1034D000AAF1010A0AEA020A0AFA0CFA4FF0010BF1
:1034E0000BFA0CFBABF1010B0BEA030B4AEA0B04E2
:1034F0002146404602F050FFBDE8F09F00BF00F0BB
:103500000702064B19684FF6FF031940044B0B43A3
:1035100043EA0221014B196000BF70470CED00E047
:103520000000FA0570B504460D460CB9012070BDC7
:103530005A48006800F00700A8420ED257480068B9
:1035400020F007002843554908600846006800F04D
:103550000700A84201D00120E9E7207800F002002E
:1035600002281DD1207800F00400042805D14C4821
:10357000406840F4E0604A494860207800F0080064
:10358000082805D14648406840F4605044494860E6
:103590004348406820F0F000A16808434049486073
:1035A000207800F0010078B36068012806D13C481B
:1035B000006800F4003090B90120B8E76068022884
:1035C00006D13748006800F0007040B90120AEE72E
:1035D0003348006800F0020008B90120A7E730482E
:1035E000406820F00300616808432D494860FFF7F8
:1035F0008FFE064609E0FFF78BFE801B41F2883103
:10360000884202D9032092E707E02548406800F08D
:103610000C006168B0EB810FEDD12048006800F02C
:103620000700A8420ED91D48006820F00700284373
:103630001A4908600846006800F00700A84201D057
:10364000012074E7207800F00400042807D1144812
:10365000406820F4E060E168084311494860207840
:1036600000F00800082808D10D48406820F4605098
:10367000216940EAC1000A49486000F03FF8084962
:103680004968C1F30311074A515CC8400649086004
:1036900006480068FFF79AFE002048E70020024035
:1036A00000100240A48A00080C0000200400002042
:1036B00001480068704700000C00002000B5FFF7CB
:1036C000F7FF04494968C1F30221034A515CC8402D
:1036D00000BD000000100240B48A000800B5FFF7EA
:1036E000E7FF04494968C1F3C221034A515CC8405D
:1036F00000BD000000100240B48A000870B500212F
:103700000022002400230020134D696801F00C05FD
:10371000F5B1042D02D0082D19D101E00F4819E0B0
:103720000F4DC1F38346AB5D01F4803555B10A4DB1
:103730006D68C5F340450B4E725D084D5D43B5FBAA
:10374000F2F402E0084D03FB05F4204602E000BF5E
:10375000024800BF00BF70BD0010024000127A0096
:10376000928A0008A28A000800093D00F8B50446C4
:103770000CB90120F8BD207800F00100002878D0B5
:10378000F848406800F00C0004280CD0F548406868
:1037900000F00C00082811D1F248406800F4803095
:1037A000B0F5803F0AD1EF48006800F400300028EF
:1037B0005FD0606800285CD10120DBE700BF606853
:1037C000B0F5803F06D1E748006840F48030E54915
:1037D000086028E0606858B9E248006820F480304A
:1037E000E04908600846006820F4802008601AE07C
:1037F0006068B0F5A02F0BD1DA48006840F4802053
:10380000D84908600846006840F4803008600AE043
:10381000D448006820F48030D24908600846006827
:1038200020F48020086000BF606888B1FFF770FD59
:10383000054606E0FFF76CFD401B642801D9032014
:1038400098E7C848006800F400300028F2D010E083
:10385000FFF75EFD054606E0FFF75AFD401B6428B2
:1038600001D9032086E7BF48006800F40030002833
:10387000F2D1207800F00200022857D1B948406800
:1038800000F00C0050B1B748406800F00C00082868
:1038900018D1B448406800F4803098B9B148006845
:1038A00000F0020020B12069012801D0012061E769
:1038B000AC48006820F0F800616940EAC100A949FD
:1038C000086033E02069E8B10120A7490860FFF7EC
:1038D0001FFD054606E0FFF71BFD401B022801D92E
:1038E000032047E79F48006800F002000028F2D05C
:1038F0009C48006820F0F800616940EAC1009949DD
:10390000086013E0002098490860FFF701FD0546B4
:1039100006E0FFF7FDFC401B022801D9032029E740
:103920009048006800F002000028F2D1207800F0F2
:10393000080008282DD1A069B8B101208B49086082
:10394000FFF7E6FC054606E0FFF7E2FC401B022815
:1039500001D903200EE78348406A00F002000028E6
:10396000F2D0012001F010F913E000207F49086037
:10397000FFF7CEFC054606E0FFF7CAFC401B022815
:1039800001D90320F6E67748406A00F002000028DB
:10399000F2D1207800F00400042873D10027714888
:1039A000C06900F0805070B900BF6E48C06940F037
:1039B00080506C49C8610846C06900F08050009092
:1039C00000BF00BF01276A48006800F48070B0B9EA
:1039D0006748006840F4807065490860FFF798FC0C
:1039E000054606E0FFF794FC401B642801D903203C
:1039F000C0E65F48006800F480700028F2D000BF85
:103A0000E068012806D15748006A40F00100554996
:103A1000086227E0E06858B95248006A20F00100C7
:103A2000504908620846006A20F00400086219E064
:103A3000E06805280BD14B48006A40F00400494972
:103A400008620846006A40F0010008620AE0454842
:103A5000006A20F00100434908620846006A20F02D
:103A60000400086200BFE068A0B1FFF751FC054602
:103A700009E0FFF74DFC401B41F28831884202D932
:103A8000032077E622E03748006A00F002000028B1
:103A9000EFD012E0FFF73CFC054608E0FFF738FCEA
:103AA000401B41F28831884201D9032062E62D484B
:103AB000006A00F002000028F0D1012F05D129484A
:103AC000C06920F080502749C86100BFE069C8B3D1
:103AD0002448406800F00C00082860D0E069022803
:103AE00048D1002020490866FFF712FC054606E091
:103AF000FFF70EFC401B022801D903203AE61948C3
:103B0000006800F000700028F2D1206AB0F5803F14
:103B100007D11448406820F40030A16808431149D7
:103B20004860D4E9080108430E49496821F474113A
:103B300008430C49486001200B490866FFF7E8FB81
:103B4000054607E03DE0FFF7E3FB401B022801D9F3
:103B500003200FE60348006800F000700028F2D050
:103B60002FE0000000100240000042428004424268
:103B700000700040002014490866FFF7C9FB0546A5
:103B800006E0FFF7C5FB401B022801D90320F1E541
:103B90000E48006800F000700028F2D111E0E069E2
:103BA000012800D1E6E50948466806F48031206A1C
:103BB000814204D106F47011606A814201D0012073
:103BC000D8E50020D6E50000000042420010024087
:103BD00070B504462546681EB0F1807F01D30120F0
:103BE0000FE0681E4FF0E02148610F214FF0FF30D9
:103BF00002F0D2FB00204FF0E0218861072008612D
:103C0000002070BD2DE9F04104460D461646002700
:103C100000BF94F83C00012802D10220BDE8F081E9
:103C2000012084F83C0000BF36B1042E1BD0082EC2
:103C300031D00C2E5ED145E02946206802F018F8FC
:103C40002068806940F008002168886120688069E8
:103C500020F0040021688861206880692969084390
:103C60002168886148E02946206802F031F8206820
:103C7000806940F40060216888612068806920F4D0
:103C800080602168886120688069296940EA012094
:103C90002168886130E02946206802F04DF82068EC
:103CA000C06940F008002168C8612068C06920F040
:103CB00004002168C8612068C06929690843216837
:103CC000C86119E02946206802F06AF82068C069D6
:103CD00040F400602168C8612068C06920F48060F9
:103CE0002168C8612068C069296940EA012021680B
:103CF000C86101E0012700BF00BF00BF002084F8B9
:103D00003C0000BF384689E710B504460CB90120D5
:103D100010BD94F83D0028B9002084F83C002046EE
:103D200000F025F8022084F83D00211D206801F0F4
:103D30004BFF012084F8460000BF84F83E000121BB
:103D40003F200155402001554120015500BF00BFD3
:103D5000012084F8420043200155442001554520AC
:103D6000015500BF012084F83D000020D0E77047D6
:103D700070B504460D4615B994F83E000BE0042DCD
:103D800002D13F20005D06E0082D02D14020005DF9
:103D900001E04120005D012801D0012070BD1DB966
:103DA000022084F83E000EE0042D03D102213F20C2
:103DB000015508E0082D03D102214020015502E001
:103DC00002214120015501222946206801F03EFFD1
:103DD00019492068884201D1012000E0002028B163
:103DE0002068406C40F40040216848641249206813
:103DF00088420BD02068B0F1804F07D00F4920686F
:103E0000884203D00E49206888420CD1206880681F
:103E100000F00706062E0CD02068006840F0010074
:103E20002168086005E02068006840F00100216812
:103E300008600020B2E70000002C014000040040B0
:103E400000080040704710B5044600BF00BF21685D
:103E50000C3151E8001F21F4907021680C3141E8C9
:103E60000002002AF3D100BF00BF00BF2168143157
:103E700051E8001F21F001002168143141E80002DF
:103E8000002AF3D100BF206B01280ED100BF00BF74
:103E900021680C3151E8001F21F0100021680C311D
:103EA00041E80002002AF3D100BF2068406900F019
:103EB000400000B300BF00BF2168143151E8001F6B
:103EC00021F040002168143141E80002002AF3D1BA
:103ED00000BFE06B78B10020E16B4863E06BFEF758
:103EE000F1FF40B1E06BFFF771F8202803D11020FB
:103EF0006064032010BD0020E085202084F842008B
:103F00000020206300BFF5E710B504461CB1054949
:103F10002068884200D010BD2046FEF7F5F900BFAA
:103F2000F9E70000003801402DE9F84F0446206809
:103F300005682068C668206847694FF00009CA46CE
:103F400005F00F09B9F1000F0AD105F0200038B1D2
:103F500006F0200020B1204602F046F8BDE8F88FB8
:103F6000B9F1000F7BD007F0010018B906F490708A
:103F7000002874D005F0010030B106F4807018B14B
:103F8000606C40F00100606405F0040030B107F09F
:103F9000010018B1606C40F00200606405F002009E
:103FA00030B107F0010018B1606C40F004006064AB
:103FB00005F0080048B106F0200010B907F0010034
:103FC00018B1606C40F008006064606C002845D057
:103FD00005F0200028B106F0200010B1204602F0C4
:103FE00003F820684069C0F3801A606C00F0080094
:103FF00010B9BAF1000F2CD0204601F0AFFF2068B5
:10400000406900F0400000B300BF00BF21681431D8
:1040100051E8001F21F040002168143141E80002FE
:10402000002AF3D100BFE06B50B17748E16B4863E1
:10403000E06BFEF773FF88B1E06B416B88470DE0E2
:104040002046FFF761FF09E009E02046FFF75CFF2B
:1040500004E02046FFF758FF002060647EE7206BF5
:10406000012877D105F01000002873D006F0100069
:104070000028FAD000BF002000902068006800905F
:1040800020684068009000BF00BF2068406900F0D1
:10409000400000285FD0E06B006840681FFA80F89D
:1040A000B8F1000F55D0A08D404552DDA4F82E8008
:1040B000E06B8069202843D000BF00BF21680C312D
:1040C00051E8001F21F4807021680C3141E80002A2
:1040D000002AF3D100BF00BF00BF2168143151E8AE
:1040E000001F21F001002168143141E80002002A7C
:1040F000F3D100BF00BF00BF2168143151E8001F99
:1041000021F040002168143141E80002002AF3D177
:1041100000BF202084F842000020206300BF00BFC1
:1041200021680C3151E8001F21F0100021680C318A
:1041300041E80002002AF3D100BFE06BFEF7C2FEA7
:1041400002206063A08DE28D801A81B22046FFF7C5
:1041500079FE03E742E0A08DE18D401A1FFA80F856
:10416000E08DD0B3B8F1000F37D000BF00BF216899
:104170000C3151E8001F21F4907021680C3141E8A6
:104180000002002AF3D100BF00BF00BF2168143134
:1041900051E8001F21F001002168143141E80002BC
:1041A000002AF3D100BF202084F8420000202063C1
:1041B00000BF00BF21680C3151E8001F21F0100042
:1041C00021680C3141E80002002AF3D100BF02202F
:1041D000606341462046FFF735FEBFE605F08000EC
:1041E00030B106F0800018B1204602F019F8B5E6AB
:1041F00005F0400030B106F0400018B1204601F053
:10420000E3FEABE600BFA9E6DD5E000810B504469C
:104210000CB9012010BDA06900B100E000BF94F806
:10422000410028B9002084F84000204600F029F819
:10423000242084F841002068C06820F400502168E0
:10424000C860204601F04EFF2068006920F49040CD
:10425000216808612068406920F02A0021684861CF
:104260002068C06840F400502168C8600020606485
:10427000202084F8410084F842000020606300BFE1
:10428000C8E7704770B504460D46164694F84200DC
:1042900020280BD105B10EB9012070BD002020638C
:1042A00032462946204601F09BFFF6E70220F4E75C
:1042B00010B5044625492068884244D12448007836
:1042C00060B124480068244A1288811801222046DF
:1042D000FFF7D8FF08B1FEF767FA10BD1E48008847
:1042E000FF2829D81C480088401C1B490880084624
:1042F0000088FF2818D8174800680A4612888118D5
:1043000001222046FFF7BEFFE8B194F842002228C0
:1043100002D1FEF749FA16E010480068401C0F4928
:104320000860FEF741FA0EE00D480068401C0C4999
:104330000860FEF739FA06E009480068401C0849A1
:104340000860FEF731FA00BFC7E7000000380140FF
:10435000B4000020780000208000002088000020A9
:104360008C0000202DE9F84F04460E46174699466A
:104370004FF0000A94F84100202850D106B117B937
:104380000120BDE8F88F00206064212084F84100FE
:10439000FEF7BEFF8246A784E784A068B0F5805F81
:1043A00004D1206910B90025B04602E035464FF02F
:1043B00000081EE05346002280212046CDF80090E0
:1043C00001F05EFF20B1202084F841000320D8E7EF
:1043D00045B9B8F80000C0F308002168486008F14A
:1043E000020803E02878216848606D1CE08C401EBC
:1043F000E084E08C0028DDD1534600224021204695
:10440000CDF8009001F03CFF20B1202084F841005D
:104410000320B6E7202084F841000020B1E7022005
:10442000AFE770475B2204A10620FEF7E9FC0620F7
:1044300001F0BAF900BFFEE72E2E2F436F72652FF1
:104440005372632F73746D3332663178785F697499
:104450002E63000000B585B000200190029003900B
:10446000049000BF1348806940F00800114988613A
:104470000846806900F00800009000BF00BF4FF4BC
:1044800040700190112002900120039003200490BD
:1044900001A90948FEF79EFD012211020648FEF718
:1044A00031FF012251020448FEF72CFF00F04AFCC4
:1044B00005B000BD00100240000C01401FB50020F7
:1044C00000900190029003904FF440700090012002
:1044D0000190002002900320039069461248FEF7E5
:1044E00079FD012251021048FEF70CFF002410E074
:1044F00000224FF480710C48FEF704FF00F022FC0C
:10450000012211020848FEF7FDFE00F01BFC601CB2
:10451000C4B2092CECDB00F0ABFDFFF79BFF0A20D7
:1045200001F055FF1FBD0000000C01401CB50948FB
:10453000006800B11CBD03F0D1FC022808D10020A6
:1045400000900190684601F0B5FF0249086000BF85
:1045500000BFEFE73001002010B5FDF7F5FC0020AB
:104560000349087003490870FDF71CFD10BD0000E9
:10457000240100202501002010B50446FFF7D6FFD6
:104580001048006850B9062C03D00F480078062860
:1045900003D00D4804700D48047010BD6421094813
:1045A000006801F0BDFF58B9062C03D0064800781A
:1045B000062801D0054804700248006801F088FF11
:1045C00000BFEAE73001002024010020250100207F
:1045D00070B5FFF7ABFF2F480068E0B10A212D4806
:1045E000006801F09DFFB0B92B4800782B4909788D
:1045F00088420CD02848007828490870FEF788FEC9
:1046000027490860002027490870FDF7CBFC2148A6
:10461000006801F05DFFFEF77BFE044600250026E2
:104620001E48007807281AD2DFE800F004050B0FB7
:104630001316080070BDFDF7BFFCFBE7FDF7BCFCDF
:10464000F8E74FF47A7501260AE04FF4FA7501266F
:1046500006E0FA25012603E07D25012600E0E9E7D2
:1046600000BFA6B10E480068201AA8420FD30D481B
:10467000007880F001000B4908700846007810B1FE
:10468000FDF79AFC01E0FDF78DFC0548046000BFD2
:10469000D0E7000030010020250100202401002087
:1046A000280100202C0100206B2204A10720FEF726
:1046B000A7FB072001F078F800BFFEE72E2E2F435E
:1046C0006F72652F5372632F73746D333266317856
:1046D000785F69742E6300002DE9F04107460C46AF
:1046E00000F032F928B90321084600F0B7F9BDE817
:1046F000F08101201C490870032048706006000EFC
:104700008870002014E03A1802EB4202174B33F88D
:1047100022100A0A032303EB4003DFF84CC00CF815
:104720000320042303EB40030CF80310411C88B260
:10473000A042E8DB00F0B0F9032000EB440085B2B2
:1047400029460948FEF7CFF8064607494E55310A73
:10475000054A681C1154A81C81B20522024801F0C8
:1047600059FB00BFC3E70000742800207429002013
:104770001CB50748006800B11CBD002000900190E6
:10478000684601F097FE0249086000BFF4E70000A8
:10479000D80000202DE9F04104460F460CB1082F47
:1047A00001D0BDE8F081E078A17840EA0126607987
:1047B000217940EA01250DB17D2D04D90321084658
:1047C00000F04CF9EDE70A2E04D20A2D02D8701938
:1047D0000A2804D90221032000F040F9E1E7294624
:1047E0003046FFF779FF00BFDBE700002DE9F0411D
:1047F0000446884614B1B8F1080F01D0BDE8F08135
:10480000E078A17840EA01256079217940EA012623
:104810000A2D04D30221062000F020F9EEE73146EC
:10482000284600F06DF920B90321062000F016F9A2
:10483000E4E701200C49087006204870280A8870B7
:10484000CD70300A08714E7106210748FEF74BF80B
:10485000074605498F71380AC871052208210248A8
:1048600001F0D8FA00BFC9E77428002010B5FFF79F
:104870007FFF002017E0002100EB4002214B23F8CE
:10488000221000EB400203EB8202518000EB400259
:1048900003EB820211711C4900EB400203EB820220
:1048A0009160411C88B20A28E5D3002011E0174925
:1048B00031F8101000EB4002124B23F8221013497C
:1048C00031F8101000EB400203EB82025180411CD2
:1048D00088B2062801DA0A28E9D3012009490871BB
:1048E000012108480174017780F828100849042044
:1048F00000F09CF80749052000F098F800F0EAF96C
:1049000010BD00007429002075490008BC8A000809
:10491000874900087749000870B504460D460A2CFF
:1049200001D3002070BD00F00FF808B90020F9E7AE
:1049300004EB4400034921F8205000F0ADF80120B9
:10494000F0E700007429002010B5FFF711FF0848B8
:10495000006808B9002010BD4FF0FF31044800681E
:1049600001F0DEFD08B90120F5E70020F3E70000C3
:10497000D8000020704770B505460C46E1B2022011
:1049800000F0B5F970BD70B505460C462146012012
:1049900000F0A5F970BD000038B500224FF4807119
:1049A000144801F0B0FA04460020009004B938BD64
:1049B0006A4621460F4800F07BF800B9F7E79DF8FA
:1049C0000000032802D006280AD104E02146094845
:1049D000FFF7E0FE0AE021460648FFF707FF05E083
:1049E00001219DF8000000F039F800BF00BF00BFB2
:1049F000DDE700007427002070B504460D460DB1B8
:104A00000A2C01D3002070BDFFF79EFF08B90020DB
:104A1000F9E704EB4400044931F82000288000F055
:104A20003BF80120EFE700007429002070B5044630
:104A30000D460A2C01D3002070BDFFF785FF08B991
:104A40000020F9E704EB4400034901EB8000856096
:104A500000F022F80120EFE7742900207CB504461D
:104A60000D4601208DF8000044F080008DF8010013
:104A70008DF8025003216846FDF735FF0646F0B277
:104A80008DF80300300A8DF80400052211466846AF
:104A900001F0C0F97CBD000010B50448006818B1F1
:104AA0000248006801F014FD10BD0000D80000208D
:104AB0002DE9F04104460D46164604B116B9002012
:104AC000BDE8F081082D01D20020F9E72078012807
:104AD00001D00020F4E7A81E215C681E205C41EA9A
:104AE0000028A81E81B22046FDF7FDFE0746B84506
:104AF00001D00020E4E7607830700120E0E700009A
:104B00002DE9F04104460D46002600270A2C02D369
:104B10000020BDE8F081042C03D1B42D01D9002080
:104B2000F7E7052C03D1FF2D01D90020F1E7FFF7AE
:104B30000BFF08B90020ECE704EB4400104901EB3F
:104B40008000007918B1FFF7A7FF0020E1E704EB30
:104B500044000B4931F8206004EB440021F8205058
:104B600004EB440001EB80008768FFF795FF27B155
:104B7000AE4202D029463046B8470120C9E70000BE
:104B80007429002000BFFEE708B508490968C90874
:104B90004FF47A72B1FBF2F14143009100BF00BFC4
:104BA00000994A1E00920029F9D108BD0C0000208E
:104BB0002DE9F0478046894615461E46FEF77CF9EA
:104BC000044600BF2B4632464946404600F0C6F830
:104BD00008B9012000E00020074607B108E014B141
:104BE000204601F0F4FB2000A4F101018CB2E9D1D0
:104BF00000BF3846BDE8F0872DE9F04706460F466E
:104C000090469946FEF758F9044600BF4B46424687
:104C10003946304600F0B9F808B9012000E000201C
:104C2000054605B108E014B1204601F0D0FB200094
:104C3000A4F101018CB2E9D100BF2846BDE8F0879C
:104C40002DE9F04180460C461546FEF735F906463B
:104C500004B115B90020BDE8F08100BF2246294605
:104C6000404600F06FFA08B9012000E00020074636
:104C700007B108E016B1304601F0A9FB3000A6F1FB
:104C800001018EB2EAD100BF3846E4E72DE9F047D2
:104C900006460F4690469946FEF70EF9044600BFB9
:104CA0004B4642463946304600F078FA08B90120B2
:104CB00000E00020054605B108E014B1204601F0EF
:104CC00086FB2000A4F101018CB2E9D100BF284687
:104CD000BDE8F08710B5FDF779F9012010BD70B57A
:104CE00004460D4629462046FDF7DCF970BD70B537
:104CF00006460C46752C02D9892C00D27F247F2CC5
:104D00000AD24FF47A7060437F21B0FBF1F040F695
:104D1000C411081A85B210E07F2C0CD9A4F18000D0
:104D20004FF47A7148437F21B0FBF1F040F2DC513F
:104D3000081A85B201E040F2DC5529463046FDF7FD
:104D4000E1F970BD08B50020009003E000BF0098B5
:104D5000401C009000980828F8D308BD2DE9F041C8
:104D60000746884614461D464146384600F0CAF9B3
:104D7000064616B13046BDE8F0812A46214638463F
:104D800000F0B0F806463046F5E72DE9F041074659
:104D9000884615461E4600F03FF9044614B12046E9
:104DA000BDE8F081002141EA4701C8B200F0E4F813
:104DB00004461CB100F05CF92046F1E7404600F0E3
:104DC000DBF804461CB100F053F92046E8E700F098
:104DD00023F904461CB100F04BF92046E0E701211D
:104DE00001EB4701C8B200F0C7F804461CB100F05F
:104DF0003FF92046D4E70BE0012D03D100F00EF877
:104E0000307002E000F03CF83070761C681E85B20D
:104E1000002DF1D100F02CF90020C1E770B500247D
:104E2000012251021548FEF76DFA00224FF48071FD
:104E30001248FEF767FA00251AE0012211020F4816
:104E4000FEF760FAFFF77EFF6006040E4FF4007174
:104E50000A48FEF74FFA08B144F0010400224FF46B
:104E600080710648FEF74EFAFFF76CFF681CC5B26A
:104E7000082DE2DB00F0B6F8204670BD000C0140C2
:104E800070B50024012251021548FEF73BFA0022BA
:104E90004FF480711248FEF735FA00251AE001221E
:104EA00011020F48FEF72EFAFFF74CFF6006040EC2
:104EB0004FF400710A48FEF71DFA08B144F00104EE
:104EC00000224FF480710648FEF71CFAFFF73AFF04
:104ED000681CC5B2082DE2DB00F032F8204670BD38
:104EE000000C01402DE9F04107460C46154600F044
:104EF00093F8064626B100F0BBF83046BDE8F081D5
:104F0000012101EB4701C8B200F036F806461EB198
:104F100000F0AEF83046F1E70BE0012C03D1FFF7CB
:104F20007DFF287002E0FFF7ABFF28706D1C601E4C
:104F300084B2002CF1D100F09BF80020DEE70000E5
:104F400010B500224FF400710A48FEF7DBF9FFF7B5
:104F5000F9FE012211020748FEF7D4F9FFF7F2FE2D
:104F600000224FF480710348FEF7CCF9FFF7EAFE08
:104F700010BD0000000C014070B5044600224FF443
:104F800080711748FEF7BEF9002523E004F0800089
:104F900028B1012251021248FEF7B4F905E00022BF
:104FA0004FF400710E48FEF7ADF96006040EFFF7EE
:104FB000C9FE012211020A48FEF7A4F9FFF7C2FE5A
:104FC00000224FF480710648FEF79CF9FFF7BAFE05
:104FD000681CC5B2082DD9DB00F064F870BD000074
:104FE000000C014010B5012251020A48FEF78AF96F
:104FF000FFF7A8FE012211020648FEF783F9FFF72A
:10500000A1FE00224FF480710248FEF77BF9FFF702
:1050100099FE10BD000C014010B501225102134849
:10502000FEF770F9FFF78EFE012211020F48FEF71E
:1050300069F9FFF787FE4FF400710C48FEF75AF943
:1050400008B9012010BD00224FF400710748FEF797
:1050500059F9FFF777FE00224FF480710348FEF7FD
:1050600051F9FFF76FFE0020ECE70000000C014053
:1050700010B500224FF400710948FEF743F9FFF71D
:1050800061FE012211020648FEF73CF9FFF75AFEC5
:10509000012251020248FEF735F9FFF753FE10BD19
:1050A000000C014010B5FEF733F90446012251020D
:1050B0001348FEF727F9FFF745FE012211021048B9
:1050C000FEF720F9FFF73EFE08E0FEF721F9001B8E
:1050D0000A2803D3FFF7CCFF022010BD4FF4007164
:1050E0000748FEF707F90028EFD100224FF480713E
:1050F0000348FEF707F9FFF725FE0020EDE7000063
:10510000000C014070B505460E46FFF785FF0446CA
:105110000CB1204670BD002141EA4501C8B2FFF73D
:105120002BFF04461CB1FFF7A3FF2046F2E73046F1
:10513000FFF722FF04461CB1FFF79AFF2046E9E77C
:105140000020E7E72DE9F04106460F469046FFF7BD
:1051500063FF054615B12846BDE8F081002141EA0C
:105160004601C8B2FFF708FF05461DB1FFF780FFF3
:105170002846F1E700240BE018F80400FFF7FCFED6
:1051800005461DB1FFF774FF2846E5E7601CC4B271
:10519000BC42F1DBFFF76CFF0020DDE72DE9F047B3
:1051A00006460F4690469946FFF736FF044614B16F
:1051B0002046BDE8F087002141EA4601C8B2FFF76A
:1051C000DBFE04461CB1FFF753FF2046F1E73846EB
:1051D000FFF7D2FE04461CB1FFF74AFF2046E8E77E
:1051E00000250BE019F80500FFF7C6FE04461CB1C8
:1051F000FFF73EFF2046DCE7681CC5B24545F1DB02
:10520000FFF736FF0020D4E770B50546FDF79EFC9A
:10521000FFF7A2F90220FFF7AFF900201849087044
:1052200001F03EF91749086001F03AF916490860A3
:1052300000BF1348007800B119E001F031F90446CD
:1052400010480068201A322803D3FFF7C1F90D482F
:1052500004600D480068201AB0F57A7F03D3FDF78B
:1052600061FB09480460322001F009F9E1E700BF61
:105270000020FFF781F9002001F0B5F970BD0000B2
:10528000F4000020F8000020FC0000202DE9F84385
:10529000814600250026002701F002F9054601F0AD
:1052A000FFF8064601F0FCF8074600201B4908708D
:1052B00000BF1A48007800B12CE001F0F1F8044674
:1052C000601BB0F57A7F11D300200090694603205F
:1052D000FFF792FB40B1BDF8000080F00F08414697
:1052E0000320FFF719FB00BF254600BFA01B40F6B7
:1052F000B831884202D300F091FA2646E01B40F60E
:10530000B831884202D300F063F927460A2001F041
:10531000B6F8CEE700BFBDE8F8830000F00000203B
:1053200010B5044600F0E4FD00200949087007E0CC
:10533000FFF732FB00F0E3FD10B9012001F09FF808
:10534000034800780028F3D0002001F04CF910BD8C
:10535000F100002010B5FEF719F802F0BFFD01289A
:1053600001D002F035F910BD00B58FB0282105A895
:10537000FBF767F914216846FBF763F901200590F4
:1053800000040690002007900120099002200C9054
:10539000C1030D914FF4E0110E9105A8FEF7E6F957
:1053A00008B1FDF769FD0F20009002200190002058
:1053B00002904FF480600390002004900221684620
:1053C000FEF7B0F808B1FDF757FD0FB000BD70470C
:1053D00010B50848016808A000F060FA08480168A4
:1053E00008A000F05BFA0948016809A000F056FA2D
:1053F00010BD0000E40000205541525400000000A0
:10540000E00000204445564943450000E8000020E4
:105410004D6F6E69746F720030B5A1B02B48446A4D
:10542000002504F0005040B129A2802101A8FAF71C
:1054300061FF01A800F058F9012504F0804040B157
:105440002DA2802101A8FAF755FF01A800F04CF920
:10545000012504F0006040B130A2802101A8FAF7D4
:1054600049FF01A800F040F9012504F0806040B137
:1054700033A2802101A8FAF73DFF01A800F034F91A
:10548000012504F0805040B136A2802101A8FAF72E
:1054900031FF01A800F028F9012504F0004040B1D7
:1054A00038A2802101A8FAF725FF01A800F01CF915
:1054B000012515B93BA000F017F90448406A40F0F7
:1054C00080700249486221B030BD000000100240E7
:1054D0005B52455345545D20496E646570656E644A
:1054E000656E74205761746368646F672074696DBA
:1054F000656F75740D0A00005B52455345545D207D
:1055000057696E646F77205761746368646F6720B2
:1055100074696D656F75740D0A0000005B52455328
:1055200045545D20506F7765722D6F6E2F506F77E9
:1055300065722D646F776E2072657365740D0A0055
:105540005B52455345545D2045787465726E616CBD
:10555000204E5253542070696E2072657365740D2D
:105560000A0000005B52455345545D20536F66743A
:105570007761726520726573657420284E564943C1
:10558000290D0A005B52455345545D204C6F772D21
:10559000706F776572206D6F6465207265736574D6
:1055A0000D0A00005B52455345545D2046697273F5
:1055B0007420706F7765722D6F6E20286E6F207269
:1055C0006573657420666C616773290D0A000000BD
:1055D00010B5FFF7FDFE10BDF0B587B004460D46CF
:1055E00016461F461CB115B10FB1842E02D1002002
:1055F00007B0F0BD1C2207496846FAF7E8FF00949F
:105600000195ADF8086004970021684600F0BCFFE2
:10561000EEE70000C88A000810B500F0D3FA68B9B8
:1056200002200949087009A000F05EF836220FA197
:105630000520FDF7E5FBFDF71FFC10BDFFF7ECFEB5
:1056400000F0F4F800BFF8E7EC0000204552523AB1
:1056500020696E76616C69642073797374656D205E
:10566000636F6E6669670D0A000000002E2E5C41B4
:1056700070705C53797374656D5C5372635C73799D
:105680007374656D5F6374726C2E630010B50446AD
:1056900014B1204600F0A7FF10BD000088B00948F3
:1056A000037809A220216846FAF724FE0446002C5C
:1056B00002DD6846FDF7FCFB72B60120FEF75CFFD9
:1056C00000BFFEE7DC000020534146455F4D4F44DC
:1056D000455F454E5445523A204552525F54595009
:1056E000453D25750D0A000010B5044604B910BDEE
:1056F000204600F0BBFB00BFF9E7000010B50446F0
:105700000CB9002010BD0BA12046FAF7C1FF08B963
:105710000A48F7E70AA12046FAF7BAFF08B90A488B
:10572000F0E70AA12046FAF7B3FF08B90948E9E70C
:105730000020E7E74445564943450000ED000020BE
:105740005541525400000000EE0000204D6F6E697C
:10575000746F7200EF00002010B504460CB90020F1
:1057600010BD0BA12046FAF793FF08B95020F7E7C8
:1057700009A12046FAF78CFF08B96220F0E708A1DA
:105780002046FAF785FF08B93020E9E70020E7E76F
:10579000444556494345000055415254000000001D
:1057A0004D6F6E69746F7200044672B618480470CB
:1057B0000A2C06D2174850F82400401C154941F81D
:1057C000240023E0201F06281BD2DFE800F0031A84
:1057D0000A0E12160120FEF7CFFE0F48FDF77AF8E9
:1057E00013E00120FDF742F80FE00220FDF73EF83C
:1057F0000BE00320FDF73AF807E00420FDF736F848
:1058000003E00520FDF732F800BF00BFDAE7000033
:10581000DC000020EC290020A0BB0D0010B50248E0
:10582000FDF7ADFD10BD0000142A002010B50B4897
:105830000B4908600620486040F20D31084881603D
:10584000FDF76CFD40B14FF4DD7206A10520FDF7B8
:10585000D7FA0CA0FFF748FF10BD00000030004051
:10586000142A00202E2E5C4170705C53797374658D
:105870006D5C5372635C73797374656D5F6374728E
:105880006C2E63004552523A204957444720696EB6
:105890006974206661696C65640D0A002DE9F8433E
:1058A00006460F464FF00008002500240EB9BDE85B
:1058B000F8833046FFF722FF044667B90CB1002099
:1058C0002070334620A250212948FAF713FD2848BA
:1058D00000F096F8EBE7384601F09AFA8046304639
:1058E000FFF73AFF0546334622A250212048CDF863
:1058F0000080FAF7FFFC1E4800F082F89DB1A84531
:1059000011D814B1207800B1D1E70CB1012020707A
:10591000334620A2502116480095FAF7EBFC1448B4
:1059200000F06EF80EE06CB1207858B100202070C5
:10593000334626A250210E480095FAF7DBFC0C48AE
:1059400000F05EF800BFB2E7257320537461636B0B
:105950002057617465726D61726B3A20696E766171
:105960006C69642068616E646C650D0A000000005B
:10597000202A0020257320537461636B20576174C3
:1059800065726D61726B3A20257520776F72647352
:105990000D0A00003D3D3D3D3D5741524E3D3D3DD0
:1059A0003D3D3A20257320737461636B206C6F77E3
:1059B0002077617465726D61726B203C3D202575A6
:1059C00020776F7264730D0A0A000000494E464F3B
:1059D0003A20257320737461636B2077617465725C
:1059E0006D61726B207265636F76657265642061AC
:1059F000626F766520257520776F7264730D0A00DB
:105A000000B9704700BFFCE730B589B004462346B3
:105A100007A2202101A8FAF76DFC0546002D02DD42
:105A200001A8FDF745FA0120FEF7A6FD09B030BD3B
:105A300053414645204D4F44453A2025750D0A00F7
:105A400010B53048006898B9F02300222E492FA0E5
:105A5000FFF7C2FD2B4908600846006840B90320E3
:105A60002D4908702DA0FFF73FFE2B48007810BD90
:105A700033480068D0B980230222324932A0FFF7B0
:105A8000ABFD2F4908600846006878B90420224918
:105A9000087030A0FFF728FE1A480068FFF7F6FDEF
:105AA0000020184908601C480078E0E73448006886
:105AB000002821D18023421E324933A0FFF78CFDFC
:105AC0002F49086008460068B0B9052012490870DF
:105AD00031A0FFF709FE0B480068FFF7D7FD002053
